:100000000C9455080C947D080C947D080C947D0884
:100010000C947D080C947D080C947D080C947D084C
:100020000C947D080C947D080C945F1E0C94CE1EDD
:100030000C947D080C947D080C947D080C947D082C
:100040000C947D080C941F220C947D080C947D0860
:100050000C947D080C947D080C947D080C94151E5E
:100060000C947D080C947D080C947D080C947D08FC
:100070000C947D080C947D080C947D080C947D08EC
:100080000C947D080C947D080C947D080C947D08DC
:100090000C9400210C947D080C947D080C947D0830
:1000A0000C947D080C947D080C947D084F4B004502
:1000B0005252200000000000003E5B4F5B3E3E6B52
:1000C0004F6B3E1C3E7C3E1C183C7E3C181C577DF2
:1000D000571C1C5E7F5E1C00183C1800FFE7C3E73E
:1000E000FF0018241800FFE7DBE7FF30483A060E50
:1000F0002629792926407F050507407F05253F5A97
:100100003CE73C5A7F3E1C1C08081C1C3E7F142206
:100110007F22145F5F005F5F06097F017F006689B1
:10012000956A606060606094A2FFA29408047E04F7
:100130000810207E201008082A1C08081C2A08081D
:100140001E101010100C1E0C1E0C30383E383006DD
:100150000E3E0E06000000000000005F00000007D9
:10016000000700147F147F14242A7F2A1223130807
:10017000646236495620500008070300001C2241E3
:10018000000041221C002A1C7F1C2A08083E080887
:100190000080703000080808080800006060002037
:1001A000100804023E5149453E00427F400072491A
:1001B0004949462141494D331814127F10274545BE
:1001C00045393C4A494931412111090736494949D4
:1001D00036464949291E0000140000004034000042
:1001E00000081422411414141414004122140802AB
:1001F000015909063E415D594E7C1211127C7F491E
:100200004949363E414141227F4141413E7F494972
:1002100049417F090909013E414151737F0808089E
:100220007F00417F41002040413F017F081422416F
:100230007F404040407F021C027F7F0408107F3EC9
:100240004141413E7F090909063E4151215E7F0936
:10025000192946264949493203017F01033F40409D
:10026000403F1F2040201F3F4038403F6314081488
:100270006303047804036159494D43007F414141C0
:100280000204081020004141417F040201020440A1
:1002900040404040000307080020545478407F2825
:1002A0004444383844444428384444287F3854541B
:1002B000541800087E090218A4A49C787F0804043E
:1002C0007800447D40002040403D007F10284400DD
:1002D00000417F40007C047804787C08040478386E
:1002E00044444438FC1824241818242418FC7C089E
:1002F000040408485454542404043F44243C40401B
:10030000207C1C2040201C3C4030403C44281028CD
:10031000444C9090907C4464544C44000836410016
:100320000000770000004136080002010204023C90
:100330002623263C1EA1A161123A4040207A38545F
:1003400054555921555579412254547842215554D8
:10035000784020545579400C1E527212395555552B
:1003600059395454545939555454580000457C4116
:100370000002457D420001457C407D1211127DF056
:10038000282528F07C545545002054547C547C0A80
:10039000097F4932494949323A4444443A324A4849
:1003A00048303A4141217A3A42402078009DA0A04D
:1003B0007D3D4242423D3D4040403D3C24FF24249F
:1003C000487E4943662B2FFC2F2BFF0929F620C0BE
:1003D000887E090320545479410000447D4130480F
:1003E000484A32384040227A007A0A0A727D0D1952
:1003F000317D2629292F28262929292630484D40B4
:1004000020380808080808080808382F10C8ACBAAF
:100410002F102834FA00007B000008142A1422222E
:10042000142A14085500550055AA55AA55AAFF5577
:10043000FF55FF000000FF00101010FF00141414FF
:10044000FF001010FF00FF1010F010F0141414FC47
:10045000001414F700FF0000FF00FF1414F404FC64
:10046000141417101F10101F101F1414141F001045
:100470001010F0000000001F101010101F101010BE
:1004800010F010000000FF101010101010101010CD
:10049000FF10000000FF140000FF00FF00001F100D
:1004A000170000FC04F414141710171414F404F4C7
:1004B0000000FF00F714141414141414F700F714B8
:1004C0001414171410101F101F141414F414101007
:1004D000F010F000001F101F0000001F14000000AB
:1004E000FC140000F010F01010FF10FF141414FFA3
:1004F000141010101F00000000F010FFFFFFFFFF9E
:10050000F0F0F0F0F0FFFFFF0000000000FFFF0F31
:100510000F0F0F0F3844443844FC4A4A4A347E02D5
:10052000020606027E027E02635549416338444456
:100530003C04407E201E2006027E020299A5E7A50B
:10054000991C2A492A1C4C7201724C304A4D4D307C
:100550003048784830BC625A463D3E494949007EA1
:100560000101017E2A2A2A2A2A44445F4444405138
:100570004A444040444A51400000FF0103E080FFEC
:10058000000008086B6B083612362436060F090F78
:1005900006000018180000001010003040FF010194
:1005A000001F01011E00191D1712003C3C3C3C00BD
:1005B00000000000000103070F1F3F7F0080C0E024
:1005C000F0F8FCFE080B0002020200000904000023
:1005D00001020200000524001001052401010104AC
:1005E00024020605240600010705810310004009C6
:1005F000040100020A000000070502024000000793
:100600000583024000000403090412010002EF0206
:1006100001404123368000010102030141726475EB
:10062000696E6F204C4C430041726475696E6F2097
:100630004C656F6E6172646F00424F4F5420524F91
:100640004D454F5F5553425F50524F544F2031003C
:100650003F2020202020202020D18DD182D0B0200A
:10066000D181D0BFD180D0B0D0B2D0BAD0B00050FC
:10067000494E472020202020D0BFD180D0BED0B20C
:10068000D0B5D180D0BAD0B020D181D0B2D18FD066
:10069000B7D0B8004D53474C2020202020D181D026
:1006A000BFD0B8D181D0BED0BA20D181D0BED0BE0B
:1006B000D0B1D189D0B5D0BDD0B8D0B920D0B2207A
:1006C000555342004D5347434C52202020D0BED1B9
:1006D00087D0B8D181D182D0B8D182D18C20D18DB0
:1006E000D0BAD180D0B0D0BD20D0B820D0BCD0B04E
:1006F000D181D181D0B8D0B220D181D0BED0BED0EE
:10070000B1D189D0B5D0BDD0B8D0B9004D534720B4
:100710007420202020D182D0B5D0BAD181D18220BE
:10072000D0BDD0B0204F4C45442028D0BCD0B0D153
:1007300081D181D0B8D0B220D0B4D0BE206B4D735F
:1007400067436F756E7420D181D182D180D0BED0C5
:10075000BA290056524546205B6D767C4155544F70
:100760005D2020D0BFD0BED0BAD0B0D0B7D0B0D1ED
:1007700082D18C2FD0B7D0B0D0B4D0B0D182D18CB0
:1007800020D0BED0BFD0BED180D0BDD0BED0B5208D
:10079000D0BDD0B0D0BFD180D18FD0B6D0B5D0BD74
:1007A000D0B8D0B520D090D0A6D09F0056434320DB
:1007B0002020202020D0B8D0B7D0BCD0B5D180D058
:1007C000B8D182D18C204156434320D187D0B5D1B6
:1007D00080D0B5D0B72062616E6467617020D0B8F8
:1007E00020D0B2D0B7D18FD182D18C20D0BAD0B0A6
:1007F000D0BA20D180D0B5D184D0B5D180D0B5D0F9
:10080000BDD18100564241542020202020D0B1D0BB
:10081000B0D182D0B0D180D0B5D18F20D0BDD0B0F2
:1008200020413120D187D0B5D180D0B5D0B7203488
:10083000376B2F31306B202D3E2056424154203CE7
:100840006D563E203C7261773E203C70696E5F6D54
:10085000563E0041302E2E4135202F2041206E2063
:1008600020D090D0A6D09F202D3E20413C6E3E202F
:100870003C7261775F305F313032333E203C6D56E1
:100880003E004C4544204F4E7C4F46467C54202031
:1008900020D182D0BE20D0B6D0B52C20D180D0B00F
:1008A000D0B7D0B2D191D180D0BDD183D182D0BECA
:1008B0003B204C454420D0B1D0B5D0B720D0B0D1EA
:1008C00080D0B3D183D0BCD0B5D0BDD182D0B02040
:1008D000E2809420D181D182D0B0D182D183D181E4
:1008E000004C4F4E2F4C4F46462F4C54472020D0A3
:1008F000B1D0BED180D182D0BED0B2D0BED0B920CE
:10090000D181D0B2D0B5D182D0BED0B4D0B8D0BE13
:10091000D0B400464952452F49522020D098D09A51
:100920002DD0B8D0BCD0BFD183D0BBD18CD1810069
:100930005332206E2020202020D181D0B5D180D00C
:10094000B2D0BE2032202854494C54292C20302EBD
:100950002E31383020D0B1D0B5D0B720D0BBD0B8F0
:10096000D0BCD0B8D182D0BED0B2005331206E20DE
:1009700020202020D181D0B5D180D0B2D0BE20316E
:10098000202850414E292C20302E2E31383020D0B6
:10099000B1D0B5D0B720D0BBD0B8D0BCD0B8D18200
:1009A000D0BED0B200504F53202020202020D18232
:1009B000D0B5D0BAD183D189D0B5D0B53A20504F77
:1009C000532050414E203C643E2054494C54203C1E
:1009D000643E00484F4D452020202020D0B1D0B0AB
:1009E000D188D0BDD18F20D0B220D186D0B5D0BD96
:1009F000D182D1802028D0B3D0B0D181D0B8D182DB
:100A000020D181D0BAD0BED180D0BED181D182D107
:100A10008C29005453544F5020202020D0BED18127
:100A2000D182D0B0D0BDD0BED0B2D0B8D182D18C1E
:100A300020D0BFD0BBD0B0D0B2D0BDD18BD0B920E8
:100A4000D185D0BED0B420D0B1D0B0D188D0BDD067
:100A5000B80054555252455456207020742020201E
:100A6000D0BED0B1D0B520D181D0BAD0BED180D047
:100A7000BED181D182D0B820D181D180D0B0D0B7C1
:100A8000D1830054494C545620762020D0BFD0BB8F
:100A9000D0B0D0B2D0BDD18BD0B920D0BDD0B0D0E5
:100AA000BAD0BBD0BED0BD2C207620D0B3D180D060
:100AB000B0D0B42FD1812028D181D0BE20D0B7D0E2
:100AC000BDD0B0D0BAD0BED0BC290050414E5620C7
:100AD00076202020D0BFD0BBD0B0D0B2D0BDD18B3B
:100AE000D0B920D0BFD0BED0B2D0BED180D0BED180
:100AF000822C207620D0B3D180D0B0D0B42FD18139
:100B00002028D181D0BE20D0B7D0BDD0B0D0BAD0AF
:100B1000BED0BC290054532020202020202020D1EA
:100B200081D182D0BED0BF20D0BFD0BBD0B0D0B298
:100B3000D0BDD0BED0B3D0BE20D185D0BED0B4D031
:100B4000B020D0B1D0B0D188D0BDD0B82028D181CC
:100B5000D0B8D0BDD0BED0BDD0B8D0BC2054535436
:100B60004F502900504C2F50522F54552F54442091
:100B70005B765D20D0BFD0BBD0B0D0B2D0BDD18B22
:100B8000D0B920D185D0BED0B420D0B1D0B0D188DA
:100B9000D0BDD0B82028D0BFD0BE20D183D0BCD00B
:100BA000BED0BBD187D0B0D0BDD0B8D18E206B54D1
:100BB000757272657444656661756C7452617465B2
:100BC000290054494C5444205B735D20D188D0B037
:100BD000D0B320D0B2D0BDD0B8D0B70054494C5417
:100BE00055205B735D20D188D0B0D0B320D0B2D077
:100BF000B2D0B5D180D1850050414E52205B735D9B
:100C000020D188D0B0D0B320D0B2D0BFD180D0B066
:100C1000D0B2D0BE0050414E4C205B735D20D188D5
:100C2000D0B0D0B320D0B2D0BBD0B5D0B2D0BE20DF
:100C30002028D0BFD0BE20D183D0BCD0BED0BBD165
:100C400087D0B0D0BDD0B8D18E206B54757272658C
:100C50007453746570446567290054555252455465
:100C6000207020742020D0BED0B1D0B020D183D04D
:100C7000B3D0BBD0B020D181D180D0B0D0B7D18398
:100C80000054494C542064202020D0B1D0B0D188E9
:100C9000D0BDD18F3A20D0BDD0B0D0BAD0BBD0BE5D
:100CA000D0BD2C20D183D0B3D0BED0BB20D18120E9
:100CB000D0BBD0B8D0BCD0B8D182D0B0D0BCD0B826
:100CC0000050414E206420202020D0B1D0B0D188E7
:100CD000D0BDD18F3A20D0BFD0BED0B2D0BED1804F
:100CE000D0BED1822C20D183D0B3D0BED0BB20D1F6
:100CF0008120D0BBD0B8D0BCD0B8D182D0B0D0BCCD
:100D0000D0B8004D32206E2020202020D0BCD0BE94
:100D1000D182D0BED18020322C20D181D0BAD0BE99
:100D2000D180D0BED181D182D18C202D3235352ECB
:100D30002E323535004D31206E2020202020D0BCB1
:100D4000D0BED182D0BED18020312C20D181D0BA6A
:100D5000D0BED180D0BED181D182D18C202D323570
:100D6000352E2E3235350054414E4B206C207220EA
:100D7000D0BBD0B5D0B2D0B0D18F20D0B820D0BFAA
:100D8000D180D0B0D0B2D0B0D18F20D0B3D183D168
:100D900081D0B5D0BDD0B8D186D0B02C202D323581
:100DA000352E2E32353520D0BAD0B0D0B6D0B4D012
:100DB000B0D18F00545220202020202020D180D07C
:100DC000B0D0B7D0B2D0BED180D0BED18220D0BDFD
:100DD000D0B020D0BCD0B5D181D182D0B520D0B296
:100DE000D0BFD180D0B0D0B2D0BE00544C20202093
:100DF00020202020D180D0B0D0B7D0B2D0BED180BA
:100E0000D0BED18220D0BDD0B020D0BCD0B5D18151
:100E1000D182D0B520D0B2D0BBD0B5D0B2D0BE0038
:100E20004D532F53544F502020D181D182D0BED06A
:100E3000BF20D0BED0B1D0BED0B8D18520D0BCD0DC
:100E4000BED182D0BED180D0BED0B2004D422020D3
:100E50002020202020D0BED0B1D0B020D0BCD0BE29
:100E6000D182D0BED180D0B020D0BDD0B0D0B7D04C
:100E7000B0D0B4004D4620202020202020D0BED06D
:100E8000B1D0B020D0BCD0BED182D0BED180D0B045
:100E900020D0B2D0BFD0B5D180D191D0B4003D3DEB
:100EA0003D20526F6D656F2055534220E2809420A3
:100EB000D0BAD0BED0BCD0B0D0BDD0B4D18B203D44
:100EC0003D3D00554E4B4E4F574E004D5347200071
:100ED0004D53474C2000415247004C45445F56411A
:100EE0004C004F4646004F4E004C454420005652A1
:100EF00045462000565245465F56414C00565245E5
:100F00004620005652454620005643432000564294
:100F10004154200041004144435F4348004152474F
:100F20000041004144435F434800535445505F56DD
:100F3000414C00524154455F56414C005455525269
:100F40004554565F56414C004152470041524700BC
:100F500054494C54565F56414C0041524700504151
:100F60004E565F56414C004152470054555252452F
:100F7000545F56414C00415247004152470054498A
:100F80004C545F56414C004152470050414E5F5611
:100F9000414C00415247002054494C542000504FCE
:100FA000532050414E200053325F56414C00415275
:100FB000470053315F56414C00415247004D325F6C
:100FC00056414C00415247004D315F56414C004163
:100FD00052470054414E4B5F56414C00415247002E
:100FE00041524700504F4E4720310045565420484B
:100FF000495420004C494E455F4F564600070605B0
:10100000040100080A0B0C0D090000000024002751
:10101000002A002D003000000000002300260029D7
:10102000002C002F000000000200090F0000030444
:1010300001000C00000000000000000000000000A3
:1010400000000000DB40A4A62EAF2000A1C8D30002
:10105000408DAED580A804080201104080401020C9
:10106000408040800802040180402010020110806E
:10107000102040402000000000250028002B002EFA
:101080000031000404040404030405020202020403
:101090000302020202060606060606040402020213
:1010A00004042200FF217724F12E11241FBECFEF6C
:1010B000DAE0DEBFCDBF12E0A0E0B1E0EEEEF4E694
:1010C00002C005900D92A234B107D9F729E0A2E43D
:1010D000B2E001C01D92AC3CB207E1F718E0C4E5F4
:1010E000D8E004C02197FE010E94ED30C335D1073E
:1010F000C9F70E944D250C946A320C940000FC0143
:101100008091FA08882311F13FB7F89482E0809328
:10111000E9002091F200822F90E01816190614F4CD
:1011200081E090E0882339F0289844E64093F9085C
:101130004091F1004083222339F02091F2002111E7
:1011400003C02BE62093E8003FBF08958FEF9FEF89
:1011500008952FB7F89483E08093E9009091E80018
:10116000892F807295FF04C09091F20080E4891B62
:101170002FBF08958091F10881110DC082E0809306
:10118000ED0884E08093EE081092F0081092EF08CA
:1011900081E08093F1088DEE98E0089581508F30C2
:1011A00008F047C0E82FF0E0E852F74F0C94ED301C
:1011B000F508F908E708ED08F108190919091909EE
:1011C000FC08020906090A09100919091409809185
:1011D00080008F77809380000895809180008F7DBC
:1011E000F9CF80918000877FF5CF84B58F7784BD5C
:1011F000089584B58F7DFBCF809190008F77809389
:1012000090000895809190008F7DF9CF809190009B
:10121000877FF5CF8091C0008F778093C0000895BD
:101220008091C0008F7DF9CF8091C200877F80932D
:10123000C2000895CF93DF93E1E3F0E18491E2E609
:10124000F0E1D491EFE8F0E1C491CC23A1F0811159
:101250000E94CE08EC2FF0E0EE0FFF1FE95EFF4E7C
:10126000A591B491EC91ED2381E090E009F480E048
:10127000DF91CF91089580E090E0FACF1F93CF9354
:10128000DF93282F30E0F901EB5DFF4E8491F901E7
:10129000EA5AFF4ED491F901ED57FF4EC491CC2389
:1012A000A9F0162F81110E94CE08EC2FF0E0EE0F6E
:1012B000FF1FEB58FF4EA591B4918FB7F894EC91B6
:1012C000111108C0D095DE23DC938FBFDF91CF9141
:1012D0001F910895DE2BF8CFCF93DF9390E0FC01B0
:1012E000EA5AFF4E24918D579F4EFC01849188232A
:1012F000C9F090E0880F991FFC01E75FFF4EA591B0
:10130000B491FC01EB58FF4EC591D49161110DC011
:101310009FB7F8948C91209582238C938881282301
:1013200028839FBFDF91CF910895623051F49FB71A
:10133000F8943C91822F809583238C93E8812E2B07
:10134000EFCF8FB7F894EC912E2B2C938FBFEACF71
:101350001F93CF93DF93EC01162F88818C3008F018
:1013600050C061E0812F0E946C098881282F30E0F5
:10137000F901EE0FFF1FE20FF31FE15BF64F1F7342
:101380006081607C612B60839BE0998397EE9A83F8
:101390002CE0622F0E94CD30829FB001112430E0FA
:1013A00020E0AB01420F531FFA01EE0FFF1FE40FC5
:1013B000F51FE15BF64F908196FD16C02F5F3F4F02
:1013C0002C30310571F781110FC01092800082E03E
:1013D000809381001092850010928400B19A8091D0
:1013E0006F00826080936F00E8818E2F90E0FC0197
:1013F000EE0FFF1FE80FF91FE15BF64F808180645D
:1014000080838881DF91CF911F9108951F93CF939F
:10141000DF93182FEB0161E00E946C09209739F4EB
:1014200060E0812FDF91CF911F910C943E09CF3F57
:10143000D10511F461E0F5CFE12FF0E0EB5DFF4E57
:10144000E491E150EF3008F07FC0F0E0E65DF54F49
:101450000C94ED30390A410A460A500A5A0AA40A85
:10146000A40AA40A640A6E0A780A820A8F0AA40AE5
:10147000970A84B5806884BDC7BDDF91CF911F9165
:10148000089584B5806284BDC8BDF7CF8091800087
:10149000806880938000D0938900C0938800EDCF4E
:1014A00080918000806280938000D0938B00C093F5
:1014B0008A00E3CF80918000886080938000D09381
:1014C0008D00C0938C00D9CF80919000806880936C
:1014D0009000D0939900C0939800CFCF8091900056
:1014E000806280939000D0939B00C0939A00C5CFF8
:1014F00080919000886080939000D0939D00C0936D
:101500009C00BBCF8091C00080688093C000809118
:10151000C0008F7B8093C000C093CF00AECF80917E
:10152000C00080628093C000C093D000A6CF80919D
:10153000C20088608093C2008091C2008B7F80933C
:10154000C200C093D20099CFC038D1050CF072CF41
:1015500067CF3FB7F8948091E9089091EA08A0918D
:10156000EB08B091EC0826B5A89B05C02F3F19F0F9
:101570000196A11DB11D3FBFBA2FA92F982F882713
:10158000BC01CD01620F711D811D911D42E0660FEE
:10159000771F881F991F4A95D1F708958F929F92C0
:1015A000AF92BF92CF92DF92EF92FF924B015C011C
:1015B0000E94A90A6B017C010E94A90A6C197D098D
:1015C0008E099F09683E734081059105A8F321E0CB
:1015D000821A9108A108B10888EEC80E83E0D81ECF
:1015E000E11CF11C81149104A104B10429F7FF90BE
:1015F000EF90DF90CF90BF90AF909F908F90089525
:101600002FB7F8946091E5087091E6088091E7089B
:101610009091E8082FBF08950895089540913503EB
:10162000509136032091330330913403421753070E
:10163000B4F49091E8009570E1F39091E80092FD88
:1016400019C08093F1008091350390913603019683
:101650008F739927892B19F48EEF8093E80080917E
:1016600035039091360301969093360380933503AA
:1016700081E0089580E00895DF92EF92FF920F934A
:101680001F93CF93DF93D82E8A01EB017B01E40EE9
:10169000F51ECE15DF0559F0D7FE12C0FE0184916C
:1016A0000E940E0B21968111F4CF0FEF1FEFC8019E
:1016B000DF91CF911F910F91FF90EF90DF900895F0
:1016C0008881EECF0F931F93CF93DF931F92CDB7F7
:1016D000DEB782E0898342E450E064EC75E080E8A4
:1016E0000E943C0B0E94BA08DC0112960D911C91DD
:1016F0000115110589F0D801ED91FC910280F3816B
:10170000E02DBE016F5F7F4FC801099597FD04C0B2
:10171000F80100851185ECCF89810F90DF91CF9181
:101720001F910F910895615030F02091F100FC015C
:1017300020830196F8CF289884E68093F9080895CD
:10174000AF92BF92CF92DF92EF92FF920F931F93CF
:10175000CF93DF936C017B018B01040F151FEB010D
:101760005E01AE18BF08C017D10759F06991D601C4
:10177000ED91FC910190F081E02DC6010995892B36
:1017800079F7C501DF91CF911F910F91FF90EF90F5
:10179000DF90CF90BF90AF9008958F929F92AF92BD
:1017A000BF92CF92DF92EF92FF920F931F93CF934E
:1017B000DF936C017B018A0180910B01882309F47E
:1017C0005CC08091FA08882309F457C080913903DE
:1017D00080FF05C08091E00082608093E000E80116
:1017E000B12C8AEFA82E93E0892E2AE3922E20971F
:1017F00011F4BB20D9F10E94A90881110AC0AA9452
:10180000AA20D9F161E070E080E090E00E94CE0A69
:10181000EECF8C171D0611F00CF08C2F9FB7F894AB
:101820008092E9002091E80025FD02C09FBFDFCF34
:10183000282F30E0C21BD30BF701815020F04191DB
:101840004093F100FACFE20EF31EBB2021F09092FC
:10185000E800B12CEBCF8091E80085FDE7CF9092B6
:10186000E800BB24B394209709F3F3CF5D9884E696
:1018700080933803101611063CF081E090E0F601E9
:101880009383828310E000E0C801DF91CF911F9124
:101890000F91FF90EF90DF90CF90BF90AF909F900F
:1018A0008F900895CF93DF931F92CDB7DEB76983F2
:1018B000DC01ED91FC910280F381E02D41E050E0EC
:1018C000BE016F5F7F4F09950F90DF91CF91089513
:1018D0000F931F93CF93DF938C01D0E0C0E0F8010A
:1018E000EC0FFD1F6491662341F08FEF98E00E949A
:1018F000520C892B11F02196F2CFCE01DF91CF91BE
:101900001F910F91089583E08093E9008091F20088
:10191000882319F08AE38093E80008950E94A908BB
:1019200090E00895CF93DF931F92CDB7DEB7FC010F
:101930008485958597FD08C02FEF3FEF3587248775
:101940000F90DF91CF910895CE0101960E947F08FC
:10195000019719F4898190E0F3CF8FEF9FEFF0CFDB
:101960000F931F93CF93DF931F92CDB7DEB78C01F8
:10197000FC018485958597FF0BC0CE0101960E94DE
:101980007F08019771F4898190E0F8019587848739
:10199000F801848595850F90DF91CF911F910F916C
:1019A00008958FEF9FEFF1CFFC018485958597FD1A
:1019B0000BC09FB7F89482E08093E9008091F20019
:1019C0009FBF90E0019608959FB7F89482E08093BE
:1019D000E9008091F2009FBF90E00895EF92FF929E
:1019E0000F931F93CF93DF93EC01EC80FD806E1576
:1019F0007F050CF070C057FF04C0240F351F50E066
:101A000040E08E819F81FA01E20FF31F8E179F073E
:101A10001CF49C01241B350B121613060CF05BC042
:101A2000922F842F8695869586958E9DD0018F9DC9
:101A3000B00D11246A0F7B1FAF8DB8A1A60FB71F81
:101A4000477049F188E0841B482F682F70E0FB0144
:101A5000E454FA4FE491281708F063C0621B71093F
:101A60002FEF30E002C0359527956A95E2F7E22323
:101A70000130110539F0B0F10230110561F58C919A
:101A8000E82702C08C91E82BEC93941720F12C816D
:101A90003D81A20FB31FE92FE41BE83078F002303C
:101AA000110521F58E2F9C9190959C932C813D8161
:101AB000A20FB31F88508830B0F7E770EE2359F0BB
:101AC000F0E0EC54FA4FE49101301105F9F010F117
:101AD0000230110519F1DF91CF911F910F91FF9005
:101AE000EF900895E0958C91E823CECF81E0011529
:101AF000110509F480E081959E2F8C932C813D8106
:101B0000A20FB31F98509830C0F7D7CF8C91E82B15
:101B1000EC93E1CFE0958C91E823FACF8C91E82704
:101B2000F7CF0130110509F4ADCFE0F20230110515
:101B300009F4A5CFAE0DBF1DAECF0F931F93CF936A
:101B4000DF9377FF04C0260F371F70E060E0DC01F1
:101B50001496CD91DC91FB01E20FF31FCE17DF0746
:101B60001CF49E01261B370B121613064CF5FA01C6
:101B700057FD3796A3E0F595E795AA95E1F7EC9F19
:101B8000D001ED9FB00DFC9FB00D11246A0F7B1F9B
:101B9000DC015F96ED91FC91E60FF71F477055272A
:101BA00081E090E001C0880F4A95EAF7482F0130A4
:101BB000110559F0A8F02E0F3F1F02301105E1F07A
:101BC000DF91CF911F910F9108952E0F3F1FE217C4
:101BD000F307B1F38191DF011197842B8C93F7CF39
:101BE00080952E0F3F1FE217F30751F39191DF010C
:101BF000119798239C93F7CFE217F30709F381918C
:101C0000DF01119784278C93F7CF0F931F93FA016D
:101C1000DC0156964C9156974230E9F04330A1F1E1
:101C2000413061F514964D915C91DA01AE1BBF0B0A
:101C3000FD01E21BF30B77FD0BC0DC0116964D9105
:101C40005C916417750724F4AB01BF010E949D0DE0
:101C50001F910F91089514964D915C91DA01A61B86
:101C6000B70BBD0161507109DC0116964D915C9175
:101C7000DA01AE1BBF0BFD01E21BF30B77FDE8CFD2
:101C8000AF010E94EE0CE4CF16964D915C91DA0103
:101C9000A61BB70BBD0161507109CDCF0F931F93E8
:101CA000FA01DC0156964C9156974230A9F0433028
:101CB00091F1413019F514964D915C91DA01AE1B0A
:101CC000BF0BFD013197F7FD04C0AB01BF010E94BE
:101CD000EE0C1F910F91089514964D915C91DA01CD
:101CE000A61BB70BBD01DC0116964D915C91DA0184
:101CF000AE1BBF0BFD013197621B730BF7FDE9CFE4
:101D0000DC0116964D915C91E417F50714F7AF01CD
:101D10000E949D0DDECF16964D915C91DA01A61BB7
:101D2000B70BBD01621B730BCECFFC0177FD64C006
:101D300080859185681779070CF05EC057FD5CC0FF
:101D400082859385481759070CF056C086898230E2
:101D5000B1F0833029F1813041F484819581841B75
:101D6000950BAB01BC01615071092130310509F1BE
:101D700008F443C02230310509F463C0089584811A
:101D80009581DC01A61BB70BBD01615071098681ED
:101D90009781DC01A41BB50BAD0141505109E5CF82
:101DA00086819781861B970BBA01AC01415051097E
:101DB000DCCFCA0157FD0796A3E095958795AA95B4
:101DC000E1F7A481B5818A9F90018B9F300D9A9F86
:101DD000300D1124620F731F078CF0A1E02DE60F68
:101DE000F71F4770552721E030E001C0220F4A95C8
:101DF000EAF78081822B80830895CA0157FD0796F8
:101E000033E0959587953A95E1F7A481B5818A9F4E
:101E100090018B9F300D9A9F300D1124620F731F1C
:101E2000078CF0A1E02DE60FF71F4770552781E0E2
:101E300090E001C0880F4A95EAF780959081892348
:101E4000DACFCA0157FD079623E0959587952A9525
:101E5000E1F7A481B5818A9F90018B9F300D9A9FF5
:101E6000300D1124620F731F078CF0A1E02DE60FD7
:101E7000F71F4770552721E030E001C0220F4A9537
:101E8000EAF780818227B7CF08958EBD00000DB498
:101E900007FEFDCF8EB508958CBD9DBD08950895B4
:101EA000FC016370668B8481958126813781613066
:101EB00039F0633029F0918780873387228708952E
:101EC000318720879387828708952F923F924F9280
:101ED0005F926F927F928F929F92AF92BF92CF92BA
:101EE000DF92EF92FF920F931F93CF93DF93CDB7C3
:101EF000DEB76A970FB6F894DEBF0FBECDBF9A8FDC
:101F0000898F7A8369834A01D22E18870F8337011C
:101F1000BC2CDC0159962D913C915A972115310525
:101F200009F015C118968D919C911997681779073A
:101F30000CF0D7C11A968D919C91481759070CF057
:101F4000D0C14C2C512CB6E0CB9E600D711D1124DC
:101F50007C876B87161617060CF0C3C1EA2DF0E0DC
:101F6000FA87E98793E0EE0FFF1F9A95E1F7F88B68
:101F7000EF87CF01840F951F181619060CF0B1C119
:101F8000A98DBA8D58968C91811104C0BFEABD15F8
:101F900008F4D394A98DBA8DED91FC911197028428
:101FA000F385E02DCD010995B5E0DB9EC00111243C
:101FB000E981FA81FC83EB83312C212C9C012C5488
:101FC0003F4F388F2F8B4A2D50E05E8B4D8BEF8922
:101FD000F88DE20DF31D44919E828D82D12CC12C8F
:101FE00069817A81620D731D7A8B698B842F90E0F1
:101FF0009C8B8B8BE98DFA8DA081B18140FF82C0D3
:10200000F1E0BF126FC0AF126DC01C96ED91FC9154
:102010002F813885A4014C0D5D1D69897A89898DD0
:102020009A8D0995EB89FC89F595E7954E2F5FEF21
:10203000C51AD50A6D817E818D899E89680F791FA9
:102040007E836D8398E0C916D10481F6AFEF2A1A1A
:102050003A0AEB81FC81E40DF51DFC83EB83F5E08E
:102060002F16310409F0B3CF2F8138852615370597
:10207000B9F0A98DBA8DED91FC91B1E0BB1257C0BA
:10208000AB1255C069817A816B5F7F4F0088F189FF
:10209000E02D830128E030E0A401898D9A8D099517
:1020A000A98DBA8DED91FC9111970688F789E02DE5
:1020B000CD016A960FB6F894DEBF0FBECDBFDF919B
:1020C000CF911F910F91FF90EF90DF90CF90BF9035
:1020D000AF909F908F907F906F905F904F903F90C8
:1020E0002F9009941E96ED91FC91EF80F88409855C
:1020F0001A8592014D815E816B817C81898D9A8DDB
:10210000099590CF2F8138852615370509F48ACF98
:1021100031E0B31207C0A31205C01C96ED91FC91EB
:10212000930178CF1E96ED91FC917301E0CF6B8502
:102130007C85641975090684F785E02D73010F8588
:1021400018899201A401898D9A8D0995A9CFF90169
:1021500034969491329745915491D91AB7E0DB9E09
:10216000400D511D1124F901259134913C8B2B8B8D
:10217000FA0125903490FA01329674903196349198
:10218000398B329664903196449041E04C1518F0AA
:102190004A1508F07FC0662D062C000C770B7C8357
:1021A0006B83842D042C000C990B9E838D83A98D49
:1021B000BA8DED91FC9111970284F385E02DCD014C
:1021C0000995512CD12CC12CEA2DF0E0FA87E98732
:1021D0002B2D30E03C872B87A401440D511D47FC7B
:1021E0005A95588F4F8B69817A81660D711D67FCF6
:1021F0007A957E876D877989C71608F051CF2C2D87
:1022000030E04D815E81420F531FA985BA854A9FF8
:10221000C0014B9F900D5A9F900D1124FC01E80DB9
:10222000F91DF88BEF87852D612C4F89588D420F52
:10223000531F5E8B4D8B671408F050C044244394A9
:10224000480E877041F4C1010196EB89FC89E20DCB
:10225000F31DD4901C01D7FE19C0A98DBA8DED9144
:10226000FC91662D70E0B1E0BB1219C0AB1217C033
:102270002D853E85620F731F0484F585E02D2F8127
:1022800038854D895E89898D9A8D0995DD0C639419
:10229000842DD1CF1E821D821C821B8288CF4B8150
:1022A0005C81640F751FAB85BC856A9FC0016B9F05
:1022B000900D7A9F900D112469817A81680F791FA2
:1022C0000684F785E02DEF80F88409851A859D0145
:1022D0004F855889898D9A8D0995D8CF570CC3940D
:1022E0008ACF6A960FB6F894DEBF0FBECDBFDF91DE
:1022F000CF911F910F91FF90EF90DF90CF90BF9003
:10230000AF909F908F907F906F905F904F903F9095
:102310002F9008958F929F92AF92CF92EF92FF925B
:102320000F931F93CF93DF93EC01262F898D9A8D06
:10233000009709F051C06A30D1F41D861C868D8942
:1023400048E0849F900111248E859F85820F931F02
:102350009F878E8781E090E0DF91CF911F910F9151
:10236000FF90EF90CF90AF909F908F9008956D3039
:1023700089F3CC88AD888F898823C1F08C859D85B1
:1023800036E0C39E800D911D11244885598548175C
:10239000590764F44E855F851D861C8638E0A39E30
:1023A000C0011124840F951F9F878E87EA88FB88C0
:1023B000088919894E855F856C857D85CE010E94CF
:1023C000650F2C898C859D8546E0249F800D911D8D
:1023D00011249D878C87BECF6A3069F41D861C86C8
:1023E000FC013896E4912D898E859F85E29F800DB2
:1023F000911D1124ADCF6D3009F4ACCFFC013496A2
:102400003491631708F4A6CF3296E491E61708F4E6
:10241000A1CFFC01329685909490462F431B342F18
:1024200047E0349F800C911C1124F40132963491C2
:102430003196E4913323A9F1EE2399F1CC88F4018C
:102440003596E491AD884F89442301F10E2E000C9E
:10245000FF0BE30FF11DCE9EA001CF9E500D112466
:102460006C857D85460F571F6885798564177507CC
:102470006CF44E855F851D861C86FC013896E491C0
:10248000AE9E400D511D11245F874E87EA88FB8860
:10249000088919894E855F856C857D85CE010E94EE
:1024A000650FF4013496E4912C898C859D85E29F1B
:1024B000800D911D11248DCF6F927F928F929F92EC
:1024C000AF92BF92CF92DF92EF92FF920F931F9342
:1024D000CF93DF93EC016B015A0139014801E88188
:1024E000F9810284F385E02D0995E881F98102885C
:1024F000F389E02D87019301A501B601CE0109956D
:10250000A501480D591D41505109E881F981028802
:10251000F389E02D9301B601CE010995E881F98197
:102520000088F189E02D9401A501B601CE0109953D
:10253000C60CD71CB60161507109E881F981008889
:10254000F189E02D9401A501CE010995E881F98179
:102550000688F789E02DCE01DF91CF911F910F9171
:10256000FF90EF90DF90CF90BF90AF909F908F90B3
:102570007F906F9009946F927F928F929F92AF920B
:10258000BF92CF92DF92EF92FF920F931F93CF9360
:10259000DF935C01EB016A01490138018701DC012D
:1025A000ED91FC916217730719F5641675062CF00E
:1025B000962D872D3A01C92ED82E96012619370956
:1025C0002F5F3F4F048CF58DE02DA301BE01C501A7
:1025D0000995DF91CF911F910F91FF90EF90DF90C0
:1025E000CF90BF90AF909F908F907F906F90089505
:1025F0004615570591F42617370724F0892D4B010E
:10260000C22FD82F9E01281939092F5F3F4F068C02
:10261000F78DE02DA601B401DACF0284F385E02D19
:102620000995D501ED91FC910488F589E02D830190
:102630009401A601BE01C5010995D501ED91FC915A
:102640000688F789E02DC501DF91CF911F910F9189
:10265000FF90EF90DF90CF90BF90AF909F908F90C2
:102660007F906F900994EF92FF920F931F93DC017C
:102670001A960D911C911B9718962D913C911997C4
:10268000ED91FC9100A0F1A1E02D7B0150E040E034
:1026900070E060E009951F910F91FF90EF90089511
:1026A0004F925F926F927F928F929F92AF92BF9262
:1026B000CF92DF92EF92FF920F931F93CF93DF930E
:1026C0006C012B015A0139014801DC01ED91FC91AB
:1026D0000284F385E02D0995E201640C751CD60196
:1026E000ED91FC91C615D7055CF40088F189E02DC9
:1026F00087019401A501BE01C60109952196EFCF7E
:102700000688F789E02DC601DF91CF911F910F91C7
:10271000FF90EF90DF90CF90BF90AF909F908F9001
:102720007F906F905F904F9009948F929F92AF929D
:10273000BF92CF92DF92EF92FF920F931F93CF93AE
:10274000DF93EC015B014A016901E881F9810284B0
:10275000F385E02D099595012C0D3D1D2150310982
:10276000E881F9810488F589E02D78018401A401CC
:10277000B501CE010995E881F9810688F789E02D38
:10278000CE01DF91CF911F910F91FF90EF90DF90DD
:10279000CF90BF90AF909F908F9009948F929F920F
:1027A000AF92BF92CF92DF92EF92FF920F931F935F
:1027B000CF93DF93EC015B014A0169017801E88165
:1027C000F9810284F385E02D0995C80CD91C860196
:1027D00001501109E881F9810488F589E02D9501FE
:1027E000A401B501CE010995E881F9810688F78930
:1027F000E02DCE01DF91CF911F910F91FF90EF90CF
:10280000DF90CF90BF90AF909F908F9009940895E4
:10281000EF92FF920F931F93DC01ED91FC9100A0CA
:10282000F1A1E02D09951F910F91FF90EF90089570
:102830000F931F93DC01ED91FC91068CF78DE02D39
:1028400009951F910F9108950F931F93DC01ED914E
:10285000FC91048CF58DE02D09951F910F91089541
:10286000DC01ED91FC910084F185E02D09942F921B
:102870003F924F925F926F927F928F929F92AF9210
:10288000BF92CF92DF92EF92FF920F931F93CF935D
:10289000DF9300D000D000D0CDB7DEB73C016A0195
:1028A0003E832D83FC82EB825801A41AB50AB7FE41
:1028B00003C0B194A194B1088D809E80861A970AB6
:1028C00097FE03C09194819491088A149B045CF054
:1028D000902F812F0D811E819D838E839C2D8D2DA8
:1028E0006B01692F782F0C151D055CF09D818E8181
:1028F0007E836D83692F782F902F812F8601C92EBB
:10290000D82E1601201A310A2B012D813E81421A40
:10291000530A57FE03C0519441945108710137FE88
:1029200003C03FEFE31AF30AF594E7948D819E818B
:10293000861797075CF5A1E0B0E0BA83A983C016BB
:10294000D1064CF1D301ED91FC910484F585E02D85
:102950002B813C81A8016D817E818A149B041CF02F
:102960004D815E81B801C3010995E418F508F7FEB1
:102970000AC02D813E8189819A81280F391F3E83AB
:102980002D83E20CF31C0F5F1F4FD9CF2FEF3FEFCA
:102990003A832983D4CF26960FB6F894DEBF0FBEB4
:1029A000CDBFDF91CF911F910F91FF90EF90DF90FE
:1029B000CF90BF90AF909F908F907F906F905F90DF
:1029C0004F903F902F9008952091E902260F3327D2
:1029D000331F21323105ECF420910D03FC0190E00E
:1029E00080E0243069F082E00895A091E90221910D
:1029F000AC0147535D4FA40FB52FB11D2C93019629
:102A0000861798F38091E902680F6093E90280E0ED
:102A1000089581E0089510920D0381E080930F03E3
:102A200010920E0361E082E00E943E0961E083E0C3
:102A30000E943E09E9EBF0E080818E7F80838081F7
:102A40008D7F808388E48093B80085E48093BC0008
:102A50000895CF93DF9391E09093C8028823B9F053
:102A6000C091B800D091BA008091BC008A7B80935D
:102A7000BC0060E082E00E943E0960E083E00E94CA
:102A80003E090E940B15D093BA00C093B800DF91A5
:102A9000CF910895E091400380913F03E81730F40F
:102AA000F0E0ED55FD4F808190E008958FEF9FEFAE
:102AB00008959091400380913F032FEF3FEF9817C7
:102AC00048F4E92FF0E0ED55FD4F208130E09F5FA5
:102AD00090934003C901089580913F039091400372
:102AE000891B990B0895CF92DF92EF92FF920F937B
:102AF0001F93CF93DF937C01CB018A012091FE08C5
:102B0000222389F0EB016B01C40ED51ECC15DD0527
:102B100069F06991D701ED91FC910190F081E02D70
:102B2000C7010995F3CF642F0E94E414C801DF9117
:102B3000CF911F910F91FF90EF90DF90CF9008956C
:102B4000CF93DF931F92CDB7DEB769832091FE0844
:102B50002223F9F02091FB08203258F021E030E0E8
:102B6000FC013383228390E080E00F90DF91CF91CE
:102B700008958091FC08E82FF0E0ED57FD4F998112
:102B800090838F5F8093FC088093FB0881E090E046
:102B9000ECCF61E0CE0101960E94E414F7CFCF9212
:102BA000DF92EF92FF920F931F93CF93DF93D09119
:102BB000FB0881E0D13208F09CC0C091FD080E9462
:102BC000A90A6B017C0180910D0381116CC082E028
:102BD00080930D0381E080930F038FEF80930C03AC
:102BE00010923103D0933003A3E8B2E0E0E1F3E0C8
:102BF00080E0D8138DC01092320380913203CC0F45
:102C0000C82BC093320380910E03813009F084C039
:102C100010920E030E94A90A6B017C01809132037D
:102C20008093BB008091C4029091C502A091C6021E
:102C3000B091C702892B8A2B8B2BA1F00E94A90A85
:102C40000091C4021091C5022091C6023091C702C2
:102C50006C197D098E099F09061717072807390780
:102C600008F442C08091BC0083FDD8CF85EC8093EE
:102C7000BC000E94A90A6B017C0180910D03823087
:102C800009F44CC080910C038F3F09F469C0809116
:102C90000C03803209F466C080910C03803309F480
:102CA00063C084E026C08091C4029091C502A091C7
:102CB000C602B091C702892B8A2B8B2B09F483CFD4
:102CC0000E94A90A0091C4021091C5022091C60277
:102CD0003091C7026C197D098E099F0906171707E5
:102CE0002807390708F06FCF8091C3020E94291589
:102CF00085E01092FC081092FB081092FE08DF910C
:102D0000CF911F910F91FF90EF90DF90CF9008959A
:102D10009D9191938F5F6DCF85EEA9CF8091C40275
:102D20009091C502A091C602B091C702892B8A2B4F
:102D30008B2B09F4A2CF0E94A90A0091C402109122
:102D4000C5022091C6023091C7026C197D098E0917
:102D50009F09061717072807390708F08ECFC4CF39
:102D600080E0C7CF82E0C5CF83E0C3CFCF92DF92B0
:102D7000EF92FF920F931F93CF93DF93EC016B01C0
:102D8000142F8D8D9E8D009709F454C029A131E038
:102D90003093FE082093FD081092FC081092FB0867
:102DA000DC01ED91FC910190F081E02D60E009954E
:102DB0007601CC24C394D12C01E011508D8D9E8DD1
:102DC0001F3F71F1B0E2CB16D104C0F00E94CF15C5
:102DD0008D8D9E8D29A10093FE082093FD081092F1
:102DE000FC081092FB08DC01ED91FC910190F08150
:102DF000E02D60E00995CC24C394D12C8D8D9E8D5F
:102E0000F7016491DC01ED91FC910190F081E02DDE
:102E10000995BFEFCB1ADB0AEFEFEE1AFE0ACDCF12
:102E2000DF91CF911F910F91FF90EF90DF90CF90A6
:102E30000C94CF15EDA5FEA590818BA980958923D3
:102E400080837B01115070F1F70184912B8D3C8DB3
:102E5000232B31F00E94450FFFEFEF1AFF0AF2CF4C
:102E600028E030E040E8E9A5FAA599A9582F5423B5
:102E7000A9F05081952B9083EBA5FCA590815AA9D0
:102E8000952B9083EBA5FCA550819AA9909595234D
:102E9000908346952150310931F7DECF50819095CE
:102EA0009523E9CFDF91CF911F910F91FF90EF9084
:102EB000DF90CF9008951F93CF93DF93EC018D8D1A
:102EC0009E8D009721F1162F29A131E03093FE0845
:102ED0002093FD081092FC081092FB08DC01ED9194
:102EE000FC910190F081E02D60E009958D8D9E8D23
:102EF000DC01ED91FC910190F081E02D612F0995AD
:102F00008D8D9E8DDF91CF911F910C94CF15ADA526
:102F1000BEA59C918BA9809589238C938B8D9C8DCC
:102F2000892B31F0862FDF91CF911F910C94450FA3
:102F300028E030E080E8A9A5BAA599A9462F482342
:102F4000C1F04C91942B9C93ABA5BCA59C914AA934
:102F5000942B9C93ABA5BCA54C919AA990959423D6
:102F60009C9386952150310931F7DF91CF911F91C4
:102F700008954C9190959423E6CFDF92EF92FF92C3
:102F80000F931F93CF93DF938091A3099091A4098E
:102F9000892B09F4A7C02091BB093091BC0940914D
:102FA000BD095091BE0960E074E284EF90E00E9498
:102FB00033302051310941095109569547953795CC
:102FC00027952093B80044E062EA70E186E899E032
:102FD0000E94B61680918A0990918B0980349105E0
:102FE00009F097C060E286E899E00E945B17609163
:102FF0008A09615E86E899E00E945B1720918C093E
:1030000030918D09C901079697FD079633E0959594
:1030100087953A95E1F720918A0930918B09829F33
:103020008001839F100D929F100D1124C091A5095E
:10303000D091A6098091A3099091A4090C0F1D1F9E
:10304000009709F498C02091A70931E03093FE0859
:103050002093FD081092FC081092FB08DC01ED9112
:10306000FC910190F081E02D60E40995EE24E39459
:10307000F12CDD24D3948091A3099091A4090C171D
:103080001D0709F44FC0B0E2EB16F104D8F00E941E
:10309000CF158091A3099091A4092091A709D092FE
:1030A000FE082093FD081092FC081092FB08DC013A
:1030B000ED91FC910190F081E02D60E40995EE2402
:1030C000E394F12C8091A3099091A4096991DC010A
:1030D000ED91FC910190F081E02D0995BFEFEB1A85
:1030E000FB0AC9CF8091A1099091A209892B31F0E7
:1030F0008091C4099091C5090E944C0FE091B509D7
:10310000F091B60990818091BA09809589238083D6
:103110005ACF60E086E899E00E945B1760918A09C7
:10312000615068CF0E94CF158091A3099091A409A6
:10313000892B09F461C02091BF093091C0094091E9
:10314000C1095091C20960E074E284EF90E00E94EE
:10315000333020513109410951095695479537952A
:1031600027952093B800DF91CF911F910F91FF9089
:10317000EF90DF900895E091B309F091B409808158
:103180009091B909892B80830C171D0769F28991E9
:103190002091A1093091A209232B19F00E94450F1B
:1031A000F3CF28E030E040E8E091AF09F091B009BA
:1031B0009091B709582F5423D9F05081952B9083C3
:1031C000E091B109F091B20990815091B809952B25
:1031D0009083E091B109F091B20950819091B809C2
:1031E000909595239083469521503109E9F6CCCFEF
:1031F000508190959523E3CFE091B509F091B60900
:1032000080819091BA09892B8083ADCF1F93CF9392
:10321000DF93EC01162F8D8D9E8D892BB1F12DA999
:103220003EA94FA958AD60E074E284EF90E00E949F
:103230003330205131094109510956954795379549
:1032400027952093B80066EA111167EACE010E9423
:103250005B178D8D9E8D892B41F129AD3AAD4BAD1C
:103260005CAD60E074E284EF90E00E943330205166
:10327000310941095109569547953795279520936E
:10328000B800DF91CF911F9108958B8D9C8D892B74
:1032900021F08EAD9FAD0E944C0FEFA5F8A9908153
:1032A0008CA9809589238083CECFEFA5F8A9808152
:1032B0009CA9892B8083E5CFDC01EC91EC3090F563
:1032C00011968C91119728E830E0281B310987FD71
:1032D0003395220F331F220F331F6217730784F0B9
:1032E00012968C9128E532E0281B310987FD339531
:1032F000220F331F220F331F621773070CF49B0139
:1033000022503109220F331F4FB7F8948E2F90E0CF
:10331000FC01EE0FFF1FE80FF91FE15BF64F328350
:1033200021834FBF089561322FEB720722E082079D
:10333000910524F060E27FEB82E090E09B01AC011C
:1033400057FF03C020E030E0A901A0EDB7E00E94E4
:10335000743020E23FEB42E050E00E943330DA016B
:10336000C9018C509E4FAF4FBF4F0895AC01092E3D
:10337000000C660B770B4E3151056105710544F069
:1033800047395105610571052CF086E990E002C0CE
:103390008EE190E028EE33E0DC010E94F330609390
:1033A0006E0870936F088093700890937108109264
:1033B0007708109276080E949319BC0184E799E07F
:1033C0000C945C19AC01092E000C660B770B77FD91
:1033D00008C0453B5105610571052CF084EB90E078
:1033E00002C090E080E028EE33E0DC010E94F33080
:1033F00060937208709373088093740890937508B3
:1034000010927908109278080E949319BC0187E7FE
:1034100099E00C945C191F93CF93DF939C01862F46
:10342000D42F21309FEF3907DCF070E060E02115E8
:10343000310581F0C22F132F2F3F310519F014F001
:10344000CFEF10E01216130664F461E00E943E090B
:103450006C2F712F8D2FDF91CF911F910C94060A45
:10346000C1E060E00E943E09C1956C2F70E0F2CF90
:1034700046E067E00C940B1A45E064E00C940B1AEC
:1034800080930308682F8DE00C943E09089590E026
:1034900080E00895FC01868197819C01295F3F4F60
:1034A00037FF02C0295F3F4F83E0359527958A9506
:1034B000E1F784819581289FA001299F500D389FB5
:1034C000500D112470E060E0878D90A10C94403283
:1034D000CF938091A5099091A609892B09F499C0F1
:1034E00086E899E00E944A1A82E08093A8098091B8
:1034F000A3099091A409892B09F0AFC061E08091E4
:10350000AC090E946C0961E08091AD090E946C09D0
:103510008091AC09082E000C990BFC01ED57FF4E71
:10352000E491F0E0EE0FFF1FEB58FF4E2591349130
:103530003093B4092093B309FC01EA5AFF4EE49199
:10354000E093B9098091AD09082E000C990BFC019C
:10355000ED57FF4EE491F0E0EE0FFF1FEB58FF4EEA
:10356000A591B491B093B609A093B509FC01EA5AAC
:10357000FF4EE491E093BA098C91E82BEC93809193
:10358000A1099091A209892B09F06AC061E080919C
:10359000AA090E946C0961E08091AB090E946C0944
:1035A0008091AA09082E000C990BFC01ED57FF4EE3
:1035B000E491F0E0EE0FFF1FEB58FF4E25913491A0
:1035C0003093B0092093AF09FC01EA5AFF4EE49111
:1035D000E093B7098091AB09082E000C990BFC0110
:1035E000ED57FF4EE491F0E0EE0FFF1FEB58FF4E5A
:1035F000A591B491B093B209A093B109FC01EA5A24
:10360000FF4EE491E093B8098C91E095E823EC93A8
:1036100027C020918C0930918D09C901079697FD2B
:10362000079663E0959587956A95E1F720918A0959
:1036300030918B09AC01429FC001439F900D529F76
:10364000900D11240E940E319093A6098093A50934
:10365000892B09F045CF80E0C7C08CE38093A70990
:103660008091A3099091A409892B09F457C0209156
:10367000BB093091BC094091BD095091BE0960E081
:1036800074E284EF90E00E94333020513109410907
:10369000510956954795379527952093B80044E0F2
:1036A00062E570E186E899E00E94B61660918C09A7
:1036B000615086E899E00E945B1744E06EE470E197
:1036C00086E899E00E94B6168091A80964E18130ED
:1036D00009F460E186E899E00E945B1744E06AE43F
:1036E00070E186E899E00E94B6168FE88093C309DE
:1036F00080918A0990918B098038910509F076C0F4
:1037000080918C0990918D098034910509F07EC0DB
:103710008091A8098130C9F08FEC18C08091A1096F
:103720009091A209892B31F08091C4099091C5092B
:103730000E944C0FE091B509F091B60990818091FB
:10374000BA09809589238083AACF8FE98093C30922
:10375000C2E16AED86E899E00E945B176C2F86E86B
:1037600099E00E945B1761E886E899E00E945B1788
:103770006091C30986E899E00E945B1769ED86E8CD
:1037800099E00E945B178091A80961EF813009F4EC
:1037900062E286E899E00E945B1746E064E470E12B
:1037A00086E899E00E94B6168091A3099091A40939
:1037B000892B09F43FC02091BF093091C009409185
:1037C000C1095091C20960E074E284EF90E00E9468
:1037D00033302051310941095109569547953795A4
:1037E00027952093B80081E0CF9108958036910508
:1037F00089F480918C0990918D09409739F48091DA
:10380000A809813029F08FEA8093C309C2E0A1CFD3
:1038100080E1FACF80349105C9F780918C099091AD
:103820008D09809799F78091A809813009F074CFAC
:1038300080E18CCFE091B509F091B609808190913B
:10384000BA09892B8083CFCFCF93C0916D08C11166
:1038500004C0C0E08C2FCF91089581E08093FE08D2
:103860008CE38093FD081092FC081092FB088AE715
:1038700099E00E94CF15882369F38091A509909162
:10388000A609892B31F3CF910C94681AE1E4F3E097
:1038900080E094E0DF019C011D9221503040E1F76F
:1038A00086E899E00E944A1A0C94BD17109201080C
:1038B0001092020810926C08109267081092680823
:1038C0001092690810926A0810926B0810925202C6
:1038D00010924107109271071092A1071092D10720
:1038E0000E94241C81110C94461C08950E943332BE
:1038F000FB0101900020E9F73197AF01461B570B00
:10390000DC01ED91FC910280F381E02D0994CF93CD
:10391000DF930E94680CEC016CE671E08FEF98E099
:103920000E94781C8C0F9D1FDF91CF910895CF933B
:10393000DF93EC018FEA90E00E94680CCE01DF91EA
:10394000CF910C94871C8CEA90E00C94871C8F928A
:103950009F92AF92BF920F931F93CF93DF93CDB7F8
:10396000DEB7A1970FB6F894DEBF0FBECDBF19A288
:10397000423008F44AE08E010F5D1F4F842E912CD7
:10398000B12CA12CA50194010E943330E62FB9017E
:10399000CA01EA3004F5E05DD801EE938D01232BD6
:1039A000242B252B79F790E080E0109729F0BD01BA
:1039B0008FEF98E00E94781CA1960FB6F894DEBFB6
:1039C0000FBECDBFDF91CF911F910F91BF90AF90F0
:1039D0009F908F900895E95CDFCFCF93DF934AE00B
:1039E0000E94A71CEC016CE671E08FEF98E00E944A
:1039F000781C8C0F9D1FDF91CF910895CF93C82F16
:103A000086E899E00E944A1A84E080939A0980939C
:103A10009B0981E090E09093990980939809909395
:103A200097098093960980939D0980916C0888235B
:103A3000B1F0C817A0F41092930910929209109255
:103A4000950910929409EC2FF0E0EE5BFD4F608138
:103A500070E06E5A7D4F86E899E00E94781CCF9105
:103A60000C94BD170F931F93CF93DF93C091010860
:103A700020E3C29F800111240F5B184F4FE250E0FA
:103A8000BC01C8010E945B32F80117A68C2F90E0A0
:103A900001968370992780930108209102082430B1
:103AA00018F42F5F2093020810926C081092670898
:103AB0001092520220910208222329F1039683706A
:103AC000992720E3289FB001299F700D11246F5B77
:103AD000784F4FE250E082E592E00E945B32109214
:103AE0008102C2E4D2E080E0A2E5B2E09C91992399
:103AF00041F0803131F0FD019D919032E1F391115F
:103B00001BC080936C080E94000B60936808709340
:103B1000690880936A0890936B0880916C08811102
:103B20001AC00E94241C81110E94461C81E0DF9172
:103B3000CF911F910F9108958F5F9F0122553240C1
:103B400029939F0191919923E1F2DF019032C9F706
:103B5000F9011082CBCF0E94241C882339F380E026
:103B60000E94FE1CE3CF85ED8093BC008091C402CF
:103B70009091C502A091C602B091C7020796A11DFF
:103B8000B11D23E0B695A795979587952A95D1F70E
:103B90002091BC0024FD03C010920D0308954091B4
:103BA000C4025091C5026091C6027091C702452BB4
:103BB000462B472B69F30097A105B10541F02AE296
:103BC0002A95F1F700C00197A109B109E1CF8091D1
:103BD000C3020C942915CF92DF92EF92FF921F93AC
:103BE000CF93DF937C01EB01F70191917F01199154
:103BF000992381F0112371F0892F90E00E943832CF
:103C00006C01812F90E00E943832C816D90661F30A
:103C100080E003C081E09113FBCFDF91CF911F9132
:103C2000FF90EF90DF90CF9008951F920F920FB604
:103C30000F9211242F933F938F939F93AF93BF9332
:103C40008091E5089091E608A091E708B091E80816
:103C50003091E40823E0230F2D3758F50196A11D7C
:103C6000B11D2093E4088093E5089093E608A093A3
:103C7000E708B093E8088091E9089091EA08A091DC
:103C8000EB08B091EC080196A11DB11D8093E908E5
:103C90009093EA08A093EB08B093EC08BF91AF9122
:103CA0009F918F913F912F910F900FBE0F901F907A
:103CB000189526E8230F0296A11DB11DD2CF1F92A1
:103CC0000F920FB60F9211248F939F938091E10072
:103CD0009091E100937F9093E10083FF0FC01092D9
:103CE000E90091E09093EB001092EC0092E3909346
:103CF000ED001092FA0898E09093F00082FF22C045
:103D000093E09093E9009091F200992319F09AE3DF
:103D10009093E80090913803992341F090913803F3
:103D2000915090933803911101C05D9A9091F908D8
:103D3000992341F09091F90891509093F9089111CD
:103D400001C0289A84FF18C08091E2008E7E8160B5
:103D50008093E2008091E1008F7E8093E10080916A
:103D600039038E7E8061809339039F918F910F90EC
:103D70000FBE0F901F90189580FFF7CF8091E20043
:103D80008E7E80618093E2008091E1008E7E809340
:103D9000E100809139038E7E8160E5CF1F920F9202
:103DA0000FB60F921124CF92DF92EF92FF920F93F2
:103DB0001F932F933F934F935F936F937F938F93B3
:103DC0009F93AF93BF93EF93FF93CF93DF93CDB7C1
:103DD000DEB76C97DEBFCDBF1092E9008091E8009E
:103DE00083FF25C068E0CE0145960E94930B82EFC9
:103DF0008093E8008D8987FF39C09091E80090FF9B
:103E0000FCCF982F907609F034C19E894F89588D48
:103E10002F89F88C911131C0803861F580913A0377
:103E20008093F1001092F1008EEF8093E8006C9681
:103E30000FB6F894DEBF0FBECDBFDF91CF91FF91DB
:103E4000EF91BF91AF919F918F917F916F915F9112
:103E50004F913F912F911F910F91FF90EF90DF9025
:103E6000CF900F900FBE0F901F9018959EEF9093DC
:103E7000E800C7CF1092F100D5CF913059F48111ED
:103E8000D3CF4130510581F680913A038D7F8093E5
:103E90003A03CACF933049F48111C6CF413051055E
:103EA00019F680913A038260F2CF953041F4809107
:103EB000E80080FFFCCF20682093E300B5CF963068
:103EC00009F0A9C00B8D1C8D22E01092E900109220
:103ED000360310923503F2122EC010923403109262
:103EE00033030E94620B1F8299E09983FA8291E06A
:103EF0009E8390EA98879AEF9987209135033091B5
:103F00003603275F3F4F3C832B838D831092E9005C
:103F10001092360310923503109334030093330349
:103F200049E050E0BE016F5F7F4F80E00E943C0B94
:103F30000E94620B79CF10933403009333030E94E5
:103F4000BA08DC0112960D911C910115110509F4B6
:103F500051C1D801ED91FC910480F581E02DBE01A5
:103F60006B5E7F4FC8010995009709F03EC1F801CB
:103F700000851185EACFF3E0FF120EC08F898823F8
:103F800009F440C0823061F440E860E188E296E0E4
:103F90000E943323811148CF81E28093EB0047CF09
:103FA000813029F440E86BE08CE196E0F1CF83307A
:103FB00099F70E94BA08DC011296ED90FC908E01F0
:103FC0000F5F1F4F6801E114F10479F0D701ED9103
:103FD000FC910680F781E02DB801C7010995080F13
:103FE000111DF701E084F184EECFD8011C92F60197
:103FF00001900020E9F73197BF016C197D0940E07D
:10400000C601C6CF66E076E0FB01449150E080E84F
:104010000E943C0B09CF973009F4BECF983021F4B1
:1040200081E08093F10000CF993009F0FDCE8370DC
:1040300009F0B2CFE6E1F1E081E031E096E32191D1
:10404000222371F08093E9003093EB00DF01119798
:104050002C912093EC009093ED008F5F873079F7DF
:104060008EE78093EA001092EA008F898093FA0825
:10407000DBCE8B8D9C8D1092E9001092360310924E
:1040800035039093340380933303898D811192C05B
:104090008E899D89913A49F4813209F07DCF47E0BC
:1040A00050E064E071E080E0B3CF913209F074CF6A
:1040B000833269F48F89988DB0E0A0E0809300018D
:1040C00090930101A0930201B0930301ADCE803221
:1040D00069F48091E80082FFFCCF67E084E091E022
:1040E0000E94930B8BEF8093E8009ECE823209F002
:1040F0009BCE8F8980930B01EEEFFFE78591949122
:104100008B3F9C4D51F1E0E0F8E0809104019091EB
:104110000501A0910601B0910701803B9440A105E3
:10412000B105F1F480910B0180FD1AC0EE3F8AE0E9
:10413000F80789F587E797E791838083809160008E
:104140008093370388E19BE00FB6F894A89580939D
:1041500060000FBE9093600067CEEEEFFAE0D5CF1F
:10416000808191818737974709F05ECEA89580912D
:1041700060008861809360008091370380936000C5
:10418000EE3F2AE0F20789F08091FE0A9091FF0A43
:104190009183808349CE808191818737980751F23E
:1041A0009093FF0A8093FE0AC5CF1092FF0A1092E7
:1041B000FE0A3ACE0E94BA08DC0112960D911C91BB
:1041C0000115110509F4E8CED801ED91FC9101909B
:1041D000F081E02DBE016B5E7F4FC8010995811112
:1041E00023CEF80100851185EBCF181619060CF4C3
:1041F0001BCED2CEF1E0FF12BECE6AE076E004CF55
:104200001F920F920FB60F9211242F933F934F934B
:104210005F936F937F938F939F93AF93BF93EF932E
:10422000FF938091B900887F803609F44AC0F0F589
:10423000883209F4A7C018F5803109F49BC0B8F49E
:10424000882309F4F9C0883009F494C0FF91EF91F4
:10425000BF91AF919F918F917F916F915F914F919E
:104260003F912F910F900FBE0F901F90189588319E
:1042700009F488C0803251F780930C0314C0803455
:1042800009F49DC040F48033B9F38833F9F6809384
:104290000C0385ECB0C0803509F485C0883509F47D
:1042A00096C0883499F60E94B31DD0CF883909F49E
:1042B0008CC038F5883729F050F4883611F08037F3
:1042C00029F683E080930D0310920B0357C08838C2
:1042D00009F47BC0803919F0803809F0B7CF80919C
:1042E0000B03803208F071C0E0910B0381E08E0F68
:1042F00080930B038091BB00F0E0E551FD4F80837C
:104300003DC0803B39F0E0F4803A09F479C0883A46
:1043100009F09CCF84E080930D031092EA02109282
:10432000E902E0913D03F0913E0309958091E90295
:1043300081110FC081E08093E9021092C90209C087
:10434000803C09F4A6CF883C09F4A3CF883B09F050
:104350007DCFE091EA0281E08E0F8093EA02F0E0E7
:10436000E753FD4F80818093BB009091EA028091DA
:10437000E90229C0809132038093BB0085EC8093D1
:10438000BC0064CF9091310380913003981758F5A9
:10439000E091310381E08E0F80933103F0E0E05F24
:1043A000FC4F8081E9CFE091310381E08E0F809353
:1043B00031038091BB00F0E0E05FFC4F808390917F
:1043C0003103809130039817C8F285E8D8CFE09187
:1043D000310381E08E0F809331038091BB00F0E0C8
:1043E000E05FFC4F808380910F0381115CCF81E0FF
:1043F00080930E0384EA8093BC0010920D0326CFB5
:1044000085EC8093BC0010920D0380910B038032E9
:1044100030F4E0910B03F0E0E551FD4F1082609124
:104420000B0370E0E0913B03F0913C038BEE92E0D4
:10443000099510920B030ACF10920C0334CF1F92F0
:104440000F920FB60F9211242F933F934F935F93C8
:104450006F937F938F939F93AF93BF93CF93DF938C
:10446000EF93FF9380918202C0917309D0E087FFA0
:1044700024C01092850010928400809182028F5F88
:104480008093820280918202082E000C990B8C1777
:104490009D0724F4809182028C30C4F180918400C5
:1044A00090918500049680349C4908F47AC08091EC
:1044B000840090918500049676C080918202082E37
:1044C000000C990B8C179D07C4F6E09182028E2F89
:1044D000EE0F990BFC01EE0FFF1FE80FF91FE15BD8
:1044E000F64F808186FFC9CFE09182028E2FEE0FBA
:1044F000990BFC01EE0FFF1FE80FF91FE15BF64F70
:10450000808160E08F730E943E09B7CF20918400C4
:1045100030918500E09182028E2FEE0F990BFC0105
:10452000EE0FFF1FE80FF91FE15BF64F81819281CB
:10453000820F931F9093890080938800E0918202FC
:104540008E2FEE0F990BFC01EE0FFF1FE80FF91FE6
:10455000E15BF64F808186FF11C0E09182028E2FD1
:10456000EE0F990BFC01EE0FFF1FE80FF91FE15B47
:10457000F64F808161E08F730E943E09FF91EF91B9
:10458000DF91CF91BF91AF919F918F917F916F916B
:104590005F914F913F912F910F900FBE0F901F9001
:1045A000189580E49CE990938900809388008FEFB0
:1045B00080938202E3CF823108F08251E82FF0E04D
:1045C000E350F04FE49190917B008E2F880F880F7D
:1045D00080729F7D892B80937B00E770E064E0937D
:1045E0007C0080917A00806480937A0080917A00C8
:1045F00086FDFCCF80917800909179000895AC0100
:10460000092E000C660B770B40312FEF5207620723
:10461000720744F0413F5105610571052CF080EFB0
:1046200090E002C080E19FEF909379088093780832
:104630000895AC01092E000C660B770B40312FEF6B
:1046400052076207720744F0413F51056105710549
:104650002CF080EF90E002C080E19FEF909377080C
:10466000809376080895EF92FF920F931F93CF9354
:10467000DF93F82E192FE62E042F81E0860F880F86
:104680000E940E0B83E00E940E0BCF2DD12FEC0E5B
:10469000FD2EF11CCE15DF05B9F007FF13C0FE019A
:1046A00084910E940E0B182F80E00E940E0B812334
:1046B00021968111EFCFDF91CF911F910F91FF9044
:1046C000EF9008958881EDCF81E0F5CFEF92FF92D2
:1046D0000F931F93CF93DF93E0907C00F0907B00CB
:1046E0008EE580937C0080917B008F7D80937B00A2
:1046F00062E070E080E090E00E94CE0A80917A0053
:10470000806480937A0080917A0086FDFCCF80914E
:10471000780020917900322F282F21153105A1F141
:1047200050E040E064EB7BE281E190E00E943330B6
:104730008901D42FC52FE0927C00F0927B0061E0CC
:1047400070E080E090E00E94CE0AA8016D2F7C2FDF
:104750004115510581E06807710520F04FEF5FEFCB
:1047600060E070E0CA019A012C5D35402D3735417B
:1047700020F45093050840930408DF91CF911F91D6
:104780000F91FF90EF90089500E010E0D0E0C0E0BE
:10479000D2CFAF92BF92CF92DF92EF92FF920F9360
:1047A0001F93CF93DF938B01EA0192E1B92EB80EEC
:1047B00060E08B2D0E946C0960E08B2D0E943E0909
:1047C0008B2D0E94DB228B2D0E94DB2220E1A22E6A
:1047D000C12CD12C76018B2D0E94DB22C80ED91E54
:1047E000E11CF11CAA94A110F6CF88E0C80ED11CE0
:1047F000E11CF11CA701960184E056954795379579
:1048000027958A95D1F7F8013183208344275527CE
:10481000A0910408B09105080E9474302FEF33E096
:1048200040E050E00E943330288339834A835B8321
:10483000DF91CF911F910F91FF90EF90DF90CF907C
:10484000BF90AF900895CF93DF93BC0190E080E0DC
:104850004AE00E94A71CEC016CE671E08FEF98E043
:104860000E94781C8C0F9D1FDF91CF910895EF92CD
:10487000FF920F931F93CF93DF9300D0CDB7DEB796
:104880007C018B011A8219824AE050E0BE016F5F01
:104890007F4F0E94002F29813A812E153F0569F430
:1048A000F801108290E080E00F900F90DF91CF919F
:1048B0001F910F91FF90EF90089521E0F801208360
:1048C0006115F0E87F07FFEF8F079F076CF0DC01B1
:1048D000CB01811520E89207A105B1052CF38FEFDC
:1048E0009FE7A0E0B0E0E0CF80E090E8DDCF10925D
:1048F00002091092010988EE93E0A0E0B0E08093F5
:10490000030990930409A0930509B093060920E2D6
:1049100031E0309300092093FF082FEF3FEF3093F1
:104920000C0920930B0910927D0910927C09809349
:104930007E0990937F09A0938009B093810982E357
:1049400091E090937B0980937A09809173098C3070
:1049500008F09BC091E0980F9093730980937709BA
:1049600090E0FC01EE0FFF1FE80FF91FE15BF64F2F
:1049700088EB9BE092838183809173098C3008F0EF
:1049800088C091E0980F909373098093740990E028
:10499000FC01EE0FFF1FE80FF91FE15BF64F88EBFC
:1049A0009BE092838183109289091092880920E804
:1049B00030E030938B0920938A0980E490E0909353
:1049C0008D0980938C0930938F0920938E099093E1
:1049D00091098093900910929C091092930910926A
:1049E0009209109295091092940981E080939B0995
:1049F00080939A092FEF3FEF3093990920939809FC
:104A0000309397092093960980939D0910929E09EF
:104A10001092A00910929F091092A2091092A10968
:104A20008AE799E09093A4098093A3091092A609BC
:104A30001092A5098FEF8093AA098093AB09809308
:104A4000AC098093AD098093AE0980EA96E8A1E0B5
:104A5000B0E08093BB099093BC09A093BD09B093CB
:104A6000BE098093BF099093C009A093C109B09378
:104A7000C20980E58093C4091092C50984E491E0DD
:104A8000909387098093860908958FEF8093770923
:104A900073CF8FEF8093740986CFCF93DF93CDB719
:104AA000DEB7E3970FB6F894DEBF0FBECDBF7894A4
:104AB00084B5826084BD84B5816084BD85B5826023
:104AC00085BD85B5816085BD80916E0081608093D4
:104AD0006E0010928100809181008260809381003D
:104AE000809181008160809381008091800081604D
:104AF00080938000809191008260809391008091EA
:104B000091008160809391008091900081608093FA
:104B100090008091C10084608093C1008091C100A9
:104B200082608093C1008091C10081608093C10048
:104B30008091C30081608093C3008091C000826037
:104B40008093C0008091C20081608093C2008091F8
:104B50007A00846080937A0080917A0082608093EA
:104B60007A0080917A00816080937A0080917A0047
:104B7000806880937A001092FA0810923A0310929B
:104B800039038091D70081608093D70080EA8093B9
:104B9000D80089B5806189BD89B5826089BD09B4B5
:104BA00000FEFDCF61E070E080E090E00E94CE0A60
:104BB0008091D8008F7C80618093D8008091E00044
:104BC000807F8093E0008091E1008E7E8093E10001
:104BD0008DE08093E200559A209A61E084E00E9483
:104BE0006C0961E087E00E946C0961E085E00E9449
:104BF0006C0961E086E00E946C0990E080E00E9410
:104C00003C1A90E080E00E94381A69E070E087E783
:104C100099E00E94A8096AE070E084E799E00E94A8
:104C2000A8091092790810927808109277081092CB
:104C300076080E94000B60937A0870937B0880933B
:104C40007C0890937D088AE590E00E94E2198AE54D
:104C500090E00E94B61961E08DE00E946C0980E04E
:104C60000E94401A82E394E190930508809304081F
:104C700012E160E0812F0E946C0960E0812F0E94A8
:104C80003E091F5F1831A9F710920108109202081F
:104C900010926C08109267081092680810926908C8
:104CA00010926A0810926B0810926D0801E413E0EC
:104CB00080E094E0F8019C01119221503040E1F72E
:104CC0001092400310923F031092FC081092FB08D0
:104CD0000E940B158CE09BE090933E0380933D0374
:104CE0008DE09BE090933C0380933B0388E48093AA
:104CF000B80062E370E080E090E00E94CE0A10937A
:104D0000A6090093A5090E94681A882349F081E04A
:104D100080936D080E94561C8FE691E00E94321D20
:104D20001092DF081092DE081092E0081092E1085D
:104D30001092E2081092E30881E090E090930D0158
:104D400080930C0161E08BE00E946C0960E08BE0D5
:104D50000E943E0962E08CE00E946C090E941A09E0
:104D600080930E01109266088FEF9FEF90930C09CD
:104D700080930B098AE090E0A0E0B0E08093030903
:104D800090930409A0930509B093060989E396E07E
:104D90000E94871C68EE862E63E0962EA12CB12C13
:104DA0007FE2272E312C50E2452E5FEB552E52E04C
:104DB000652E712C8FEF98E00E94D40C18161906FE
:104DC0000CF06BC68FEF98E00E94920C8D3091F33F
:104DD000E09166088A3009F04EC6E03660F5F0E0F2
:104DE000EA5FF74F108226E038E08901F9018081FF
:104DF0002F5F3F4F8032C9F38930B9F3882309F41C
:104E000041C260E270E0C8010E9447327C01009715
:104E100031F0FC0110829C012F5F3F4F79016BE75D
:104E200071E0C8010E94EB1D882341F084EE9FE0F1
:104E30000E94871C27C210926508D5CF60E871E0F8
:104E4000C8010E945232892B79F062E871E0C801F2
:104E50000E94EB1D811108C067E871E0C8010E9443
:104E6000EB1D882309F49BC08EE99EE00E94871CFD
:104E700084E79EE00E94871C8CE49EE00E94871CD1
:104E800080E29EE00E94871C8BEE9DE00E94871CC2
:104E900084EB9DE00E94871C87E69DE00E94871CB2
:104EA00085E39DE00E94871C83E09DE00E94871CB3
:104EB00081EC9CE00E94871C81E89CE00E94871C9A
:104EC0008AE59CE00E94871C85E19CE00E94871C8B
:104ED00088EF9BE00E94871C8CED9BE00E94871C62
:104EE00082EC9BE00E94871C84E69BE00E94871C6A
:104EF00085E19BE00E94871C8BEC9AE00E94871C56
:104F000083E89AE00E94871C82E59AE00E94871C51
:104F100083E19AE00E94871C83ED99E00E94871C40
:104F200085EA99E00E94871C8BE699E00E94871C25
:104F300080E399E00E94871C83E199E00E94871C2E
:104F400081EE98E00E94871C82E898E00E94871C0E
:104F500083E598E00E94871C84E098E00E94871C0B
:104F60008CEA97E00E94871C83E597E00E94871CEB
:104F70008CE097E00E94871C84EC96E00E94871CDE
:104F800084E996E00E94871C8FE696E00E94871CC9
:104F900080E596E00E94871C0E94A31C73C169E80B
:104FA00071E0C8010E94EB1D882349F08CED90E070
:104FB0000E943C1A8CED90E00E94381AEDCF6CE80C
:104FC00071E0C8010E94EB1D882339F084E29FEF55
:104FD0000E943C1A84E29FEFEFCF6FE871E0C801B6
:104FE0000E94EB1D882339F090E080E00E943C1A7B
:104FF00090E080E0E1CF62E971E0C8010E94EB1D22
:10500000811128C065E971E0C8010E94EB1D811182
:1050100021C068E971E0C8010E94EB1D81112EC01A
:105020006DE971E0C8010E94EB1D882309F458C0A6
:105030008FEC9FE0E114F10479F11982BE016F5FFA
:105040007F4FC7010E9437242981211146C088EC77
:105050009FE022C065E971E0C8010E94EB1D882332
:1050600041F088EC90E008E31FEF0E943C1AC80171
:10507000A3CF88E39FEF08EC10E0F7CF80EE9FE02E
:10508000E114F10449F060E270E0C7010E94473288
:10509000009729F48CED9FE00E94971CF3C0FC015F
:1050A00011928F0119AA1982BE016F5C7F4FC7014F
:1050B0000E9437247C01BE016F5F7F4FC8010E94B0
:1050C00037248C0189A9882319F08981811103C0B3
:1050D00083ED9FE0E1CFC701C8CF0E943C1A5CCFAF
:1050E00060EA71E0C8010E94EB1D882391F084EC16
:1050F0009FE0E114F10481F21982BE016F5F7F4FDE
:10510000C7010E9437242981211156CF8DEB9FE0E2
:10511000C3CF63EA71E0C8010E94EB1D882381F1CF
:1051200089EB9FE0E114F10409F4B6CF1982BE01C6
:105130006F5F7F4FC7010E9437249981911103C08F
:1051400082EB9FE0A9CF853B08F084EB282F30E06D
:10515000A8EEB3E00E94BE306093720870937308AB
:1051600080937408909375081092790810927808CB
:105170000E949319BC0187E799E00E945C190CCF4B
:1051800066EA71E0C8010E94EB1D882371F18EEA86
:105190009FE0E114F10409F47FCF1982BE016F5F33
:1051A0007F4FC7010E9437249981911103C087EA7C
:1051B0009FE072CF853B08F084EB282F30E0A8EE0B
:1051C000B3E00E94BE3060936E0870936F088093C6
:1051D00070089093710810927708109276080E94D8
:1051E0009319BC0184E799E0C8CF69EA71E0C8016E
:1051F0000E94EB1D882349F08AE590E00E94E219A5
:105200008AE590E00E94B619C7CE6EEA71E0C80147
:105210000E94EB1D8823C9F18EE99FE00E94680C73
:10522000609172087091730880917408909175086C
:10523000A50194010E945530CA01B901772788273A
:1052400099274AE00E94A71C87E99FE00E94680C0A
:1052500060916E0870916F0880917008909171084C
:10526000A50194010E945530CA01B901772788270A
:1052700099274AE00E94A71C6CE671E08FEF98E046
:105280000E94781C1092660895CD62EB71E0C8010F
:105290000E94EB1D882399F083E99FE0E114F1045B
:1052A00009F4FACE1982BE016F5F7F4FC7010E94D9
:1052B0003724298121119DC18BE89FE0EDCE66EB5B
:1052C00071E0C8010E94EB1D882399F087E89FE0F8
:1052D000E114F10409F4E0CE1982BE016F5F7F4F43
:1052E000C7010E943724298121118CCF8EE79FE0CE
:1052F000D3CE6BEB71E0C8010E94EB1D882389F1CE
:105300008AE79FE0E114F10409F4C6CE60E270E0A0
:10531000C7010E944732009719F486E79FE0BCCE90
:10532000FC0111928F0119AA1982BE016F5C7F4F97
:10533000C7010E9437247C01BE016F5F7F4FC80107
:105340000E9437248C0189A9882319F08981811151
:1053500003C08BE69FE0A0CEC7010E94E219C801FE
:1053600051CF62EC71E0C8010E94EB1D882399F0D7
:1053700087E69FE0E114F10409F48ECE1982BE01A4
:105380006F5F7F4FC7010E94372429812111EAC036
:105390008EE59FE081CE67EC71E0C8010E94EB1DB5
:1053A000882399F08AE59FE0E114F10409F474CEB2
:1053B0001982BE016F5F7F4FC7010E943724298188
:1053C00021113AC080E59FE067CE6DEC71E0C80125
:1053D0000E94EB1D882399F18CE49FE0E114F10415
:1053E00009F45ACE60E270E0C7010E94473200978C
:1053F00019F488E49FE050CEFC0111928F0119AAA4
:105400001982BE016F5C7F4FC7010E9437247C0167
:10541000BE016F5F7F4FC8010E9437248C0189A9AC
:10542000882319F08981811103C08CE39FE034CE79
:10543000C7010E94FF22C8010E941923ADCD65ED6E
:1054400071E0C8010E94EB1D811145C26BED71E056
:10545000C8010E94EB1D81113EC26EED71E0C801D2
:105460000E94EB1D81115CC061EE71E0C8010E94D9
:10547000EB1D811155C061EF71E0C8010E94EB1D69
:1054800081114EC067EF71E0C8010E94EB1D8111D0
:1054900047C064EE71E0C8010E94EB1D81117CC021
:1054A00069EE71E0C8010E94EB1D811175C06EEEBE
:1054B00071E0C8010E94EB1D81116EC064EF71E0C4
:1054C000C8010E94EB1D811167C06AEF71E0C8013D
:1054D0000E94EB1D882309F4C1C00E94000B6B01E0
:1054E0007C01F2E1CF0ED11CE11CF11C0E94000BEB
:1054F0006C197D098E099F0997FF4ECD16E061E07A
:105500008BE00E943E09C1010197F1F760E08BE05A
:105510000E943E09C1010197F1F7115081F7E6CFD2
:10552000E114F10489F01982BE016F5F7F4FC7015A
:105530000E9437247C018981882319F01E141F04DE
:1055400034F083E39FE0A8CD4AE5E42EF12C6EED24
:1055500071E0C8010E94EB1D882339F08827992744
:105560008E199F090E94FF2217CD61EE71E0C801DC
:105570000E94EB1D882311F0C701F4CF61EF71E0A9
:10558000C8010E94EB1D882311F0C70155CF882761
:1055900099278E199F0950CFE114F10489F01982DF
:1055A000BE016F5F7F4FC7010E9437247C01898154
:1055B000882319F01E141F0434F08AE29FE06CCD9A
:1055C00035E0E32EF12C64EE71E0C8010E94EB1D82
:1055D000882391F06091720870917308809174082B
:1055E00090917508A50194010E945530C9018E194A
:1055F0009F090E94E219D0CC69EE71E0C8010E94B7
:10560000EB1D882381F0609172087091730880917E
:10561000740890917508A50194010E945530C70146
:10562000820F931FE6CF6EEE71E0C8010E94EB1D62
:10563000182F60916E0870916F088091700890919A
:105640007108A50194010E945530C901112319F078
:105650008E0D9F1DD7CD8E199F09D4CD6FEF71E0B0
:10566000C8010E94EB1D811138CFF80180818F7D28
:105670008134E9F5618120EDD22ED60EF9E0FD15D9
:10568000B0F1F8018281811132C0F5E083E29FE040
:10569000FD1508F401CDAE014F5F5F4FBE016F5C99
:1056A0007F4F8D2D0E94C92381E29FE00E94680CEC
:1056B0006D2D70E090E080E04AE00E94A71C60E25F
:1056C0008FEF98E00E94520C69A97AA990E080E0DF
:1056D0004AE00E94A71C60E28FEF98E00E94520C03
:1056E00069817A818B819C810E94ED1CCBCD62E027
:1056F00072E0C8010E94EB1D882349F18DE19FE013
:10570000E114F10409F4C8CC1BAABE016D5C7F4F03
:10571000C7010E9437248C018BA9882319F0063019
:10572000110518F086E19FE0B7CCAE014F5F5F4FE7
:10573000BE016F5C7F4F802F0E94C92384E19FE0F0
:105740000E94680CB801110F880B990BB5CF64E06B
:1057500072E0C8010E94EB1D8823C9F1AE014F5FC2
:105760005F4FBE016F5C7F4F81E00E94C92329819A
:105770003A814B815C81A8EABEED0E947430685783
:105780007C4E8F4F9F4F20E137E240E050E00E9477
:10579000333060E579E68FE090E00E9423306B01C2
:1057A0007C0120E2C20E21EAD21E27E0E21EF11C9B
:1057B0008EE09FE00E94680CC701B60120E432E44D
:1057C0004FE050E00E943330CA01B90175CF69E063
:1057D00072E0C8010E94EB1D882359F00E946623E5
:1057E0008C0189E09FE00E94680CC8010E9423247C
:1057F00049CD6DE072E0C8010E94EB1D882391F154
:1058000083E09FE0E114F10431F162E172E0C7014D
:105810000E94EB1D882331F00E9466238C018DEFDE
:105820009EE0E1CF1982BE016F5F7F4FC7010E94EA
:1058300037242981222331F09C01245F3140253611
:10584000394118F084EF9EE027CC909305088093AF
:1058500004088EEE9EE00E94680C809104089091EE
:105860000508C4CF67E172E0C8010E94EB1D8823E0
:1058700021F081E00E94401A8FCB6BE172E0C801F9
:105880000E94EB1D882311F080E0F4CF60E272E00B
:10589000C8010E94EB1D811127C064E272E0C801BB
:1058A0000E94EB1D811120C06CE272E0C8010E94D1
:1058B000EB1D81111EC066ED71E0C8010E94EB1D59
:1058C000882309F456C090E080E00E943C1A90E0E2
:1058D00080E00E94381A109279081092780810928D
:1058E00077081092760858CB9091030881E08927B9
:1058F000C1CFE114F10471F489EE9EE00E94680CBE
:1059000080910308882319F086EE9EE091CA82EE0A
:105910009EE08ECA68E172E0C7010E94EB1D811112
:10592000A8CF6EE971E0C7010E945232892B09F4B9
:10593000A0CF6CE172E0C7010E94EB1D8111A4CFE2
:1059400060E372E0C7010E945232892B09F49CCFB8
:1059500067E072E0C7010E94EB1D8111C5CF65E2CF
:1059600072E0C7010E94EB1D8111BECF8AED9EE05F
:1059700093CB62E372E0C8010E94EB1D882371F0B3
:10598000E114F10421F0F7018081811103C086ED5B
:105990009EE082CBC7010E94321DFECA66E372E020
:1059A000C8010E94EB1D882319F00E94561CF4CAFE
:1059B0006DE372E0C8010E94EB1D882309F458C012
:1059C0001091020880ED9EE00E94680C612F70E04B
:1059D00090E080E04AE00E94A71C6CE671E08FEF47
:1059E00098E00E94781CC12CD12C760100E3C116EE
:1059F00008F0D2CA30910208C316A0F580910108C0
:105A000090E00496831B910964E070E00E94D93015
:105A10006C2D680F6370609FB00111246F5B784F2D
:105A20004FE250E0CE0101960E945B3218AA8BEC47
:105A30009EE00E94680C4AE0C701B6010E94A71CC4
:105A400060E28FEF98E00E94520CBE016F5F7F4FC3
:105A50008FEF98E00E94781C6CE671E08FEF98E081
:105A60000E94781CFFEFCF1ADF0AEF0AFF0ABFCFB0
:105A700083EC9EE011CBEF3548F491E09E0F9093BC
:105A80006608F0E0EA5FF74F808394C910926608D9
:105A900084EF9FE00E94971C8DC98091DE08909151
:105AA000DF08891709F49FC026E0829FF0011124C6
:105AB000E258F74FC080D180E280F38004811581E5
:105AC00090E001968F7099278093DE088BEE9FE01F
:105AD0000E94680CB80190E080E04AE00E94A71C98
