:100000000C9443030C94D4090C94AD090C94860908
:100010000C945F090C946B030C946B030C943809DB
:100020000C946B030C946B030C94FB090C946A0AFC
:100030000C946B030C946B030C946B030C946B0388
:100040000C946B030C949C0C0C946B030C946B033E
:100050000C946B030C946B030C946B030C94EE08E0
:100060000C946B030C946B030C946B030C946B0358
:100070000C946B030C946B030C946B030C946B0348
:100080000C946B030C946B030C946B030C946B0338
:100090000C946B030C946B030C946B030C946B0328
:1000A0000C946B030C946B030C946B034F4B004547
:1000B00052522000080B0002020200000904000056
:1000C00001020200000524001001052401010104C1
:1000D00024020605240600010705810310004009DB
:1000E000040100020A0000000705020240000007A8
:1000F0000583024000000403090412010002EF021C
:100100000140412336800001010203014172647500
:10011000696E6F204C4C430041726475696E6F20AC
:100120004C656F6E6172646F00424F4F5420524FA6
:100130004D454F5F5553425F50524F544F20310051
:100140003F2020202020202020D18DD182D0B0201F
:10015000D181D0BFD180D0B0D0B2D0BAD0B0005011
:10016000494E472020202020D0BFD180D0BED0B221
:10017000D0B5D180D0BAD0B020D181D0B2D18FD07B
:10018000B7D0B800464952452F49522020D098D0C8
:100190009A2DD0B8D0BCD0BFD183D0BBD18CD18167
:1001A000005332206E2020202020D181D0B5D18074
:1001B000D0B2D0BE2032202854494C54292C2030B3
:1001C0002E2E31383020D0B1D0B5D0B720D0BBD012
:1001D000B8D0BCD0B8D182D0BED0B2005331206EDE
:1001E0002020202020D181D0B5D180D0B2D0BE2017
:1001F00031202850414E292C20302E2E31383020ED
:10020000D0B1D0B5D0B720D0BBD0B8D0BCD0B8D149
:1002100082D0BED0B200504F53202020202020D1C9
:1002200082D0B5D0BAD183D189D0B5D0B53A2050DB
:100230004F532050414E203C643E2054494C5420A2
:100240003C643E00484F4D452020202020D0B1D0B6
:10025000B0D188D0BDD18F20D0B220D186D0B5D03A
:10026000BDD182D1800054494C5444205B735D2041
:10027000D188D0B0D0B320D0B2D0BDD0B8D0B700E4
:1002800054494C5455205B735D20D188D0B0D0B315
:1002900020D0B2D0B2D0B5D180D1850050414E52DD
:1002A000205B735D20D188D0B0D0B320D0B2D0BF56
:1002B000D180D0B0D0B2D0BE0050414E4C205B7344
:1002C0005D20D188D0B0D0B320D0B2D0BBD0B5D0D3
:1002D000B2D0BE202028D0BFD0BE20D183D0BCD089
:1002E000BED0BBD187D0B0D0BDD0B8D18E206B549A
:1002F000757272657453746570446567290054554E
:1003000052524554207020742020D0BED0B1D0B0BD
:1003100020D183D0B3D0BBD0B020D181D180D0B098
:10032000D0B7D1830054494C542064202020D0B150
:10033000D0B0D188D0BDD18F3A20D0BDD0B0D0BA06
:10034000D0BBD0BED0BD2C20D183D0B3D0BED0BBCB
:1003500020D18120D0BBD0B8D0BCD0B8D182D0B011
:10036000D0BCD0B80050414E206420202020D0B115
:10037000D0B0D188D0BDD18F3A20D0BFD0BED0B2BE
:10038000D0BED180D0BED1822C20D183D0B3D0BEFC
:10039000D0BB20D18120D0BBD0B8D0BCD0B8D182C6
:1003A000D0B0D0BCD0B8004D32206E20202020200C
:1003B000D0BCD0BED182D0BED18020322C20D18101
:1003C000D0BAD0BED180D0BED181D182D18C202DE7
:1003D0003235352E2E323535004D31206E2020201D
:1003E0002020D0BCD0BED182D0BED18020312C20E4
:1003F000D181D0BAD0BED180D0BED181D182D18CB2
:10040000202D3235352E2E3235350054414E4B20BD
:100410006C207220D0BBD0B5D0B2D0B0D18F20D05C
:10042000B820D0BFD180D0B0D0B2D0B0D18F20D042
:10043000B3D183D181D0B5D0BDD0B8D186D0B02CC6
:10044000202D3235352E2E32353520D0BAD0B0D0D1
:10045000B6D0B4D0B0D18F0054522020202020201C
:1004600020D180D0B0D0B7D0B2D0BED180D0BED154
:100470008220D0BDD0B020D0BCD0B5D181D182D027
:10048000B520D0B2D0BFD180D0B0D0B2D0BE005451
:100490004C20202020202020D180D0B0D0B7D0B256
:1004A000D0BED180D0BED18220D0BDD0B020D0BCB3
:1004B000D0B5D181D182D0B520D0B2D0BBD0B5D00B
:1004C000B2D0BE004D532F53544F502020D181D174
:1004D00082D0BED0BF20D0BED0B1D0BED0B8D185E2
:1004E00020D0BCD0BED182D0BED180D0BED0B20090
:1004F0004D4220202020202020D0BED0B1D0B020DE
:10050000D0BCD0BED182D0BED180D0B020D0BDD0A2
:10051000B0D0B7D0B0D0B4004D462020202020204D
:1005200020D0BED0B1D0B020D0BCD0BED182D0BE01
:10053000D180D0B020D0B2D0BFD0B5D180D191D0B1
:10054000B4003D3D3D20526F6D656F2055534220F4
:10055000E2809420D0BAD0BED0BCD0B0D0BDD0B450
:10056000D18B203D3D3D00554E4B4E4F574E0053D5
:100570005445505F56414C005455525245545F56B5
:10058000414C00415247004152470054494C545F8E
:1005900056414C004152470050414E5F56414C007D
:1005A000415247002054494C542000504F53205092
:1005B000414E200053325F56414C00415247005398
:1005C000315F56414C00415247004D325F56414C1D
:1005D00000415247004D315F56414C0041524700A7
:1005E00054414E4B5F56414C0041524700415247E7
:1005F00000504F4E47203100455654204849542062
:10060000004C494E455F4F56460000000000240054
:1006100027002A002D0030000000000025002800DF
:100620002B002E003100040404040403040502021C
:10063000020204030202020206060606060604047B
:10064000020202040404080201104080401020400D
:1006500080408008020401804020100201108010B8
:10066000204040200000000200090F0000030401A8
:10067000000C00000000000000000000000000006E
:1006800000000000980D11241FBECFEFDAE0DEBF9E
:10069000CDBF11E0A0E0B1E0EEE8F9E202C00590C4
:1006A0000D92AE39B107D9F723E0AEE9B1E001C050
:1006B0001D92A430B207E1F713E0C3E4D3E004C015
:1006C0002197FE010E94A314C234D107C9F70E94EA
:1006D000E90D0C94C5140C940000FC018091860275
:1006E000882311F13FB7F89482E08093E9002091CC
:1006F000F200822F90E01816190614F481E090E0C1
:10070000882339F0289844E6409385024091F1000F
:100710004083222339F02091F200211103C02BE6FF
:100720002093E8003FBF08958FEF9FEF08952FB704
:10073000F89483E08093E9009091E800892F80721B
:1007400095FF04C09091F20080E4891B2FBF0895AB
:1007500080917D0281110DC082E08093790284E056
:1007600080937A0210927C0210927B0281E0809347
:100770007D0289E792E00895282F30E0F901EC59D5
:10078000F94F9491F901EB5BF94F84912A5D394F50
:10079000F9012491222309F430C09923E9F0915002
:1007A0009F30D0F4E92FF0E0E852FC4F0C94A314F2
:1007B00006040A04E703FE030204EC03EC03EC0363
:1007C0000D04130417041B042104EC032504909169
:1007D00080009F7790938000E22FF0E0EE0FFF1FE4
:1007E000E85EF94FA591B4919FB7F894EC9161112F
:1007F00032C080958E238C939FBF08959091800086
:100800009F7DE8CF90918000977FE4CF94B59F774C
:1008100094BDE2CF94B59F7DFBCF909190009F77E0
:1008200090939000D9CF909190009F7DF9CF9091B7
:100830009000977FF5CF9091C0009F779093C00074
:10084000CBCF9091C0009F7DF9CF9091C200977F50
:100850009093C200C1CF8E2BCECFCF93DF9390E089
:10086000FC01EB5BF94F24918A5D994FFC01849167
:100870008823D1F090E0880F991FFC01E65FF94FC3
:10088000A591B491FC01E85EF94FC591D491623015
:1008900071F49FB7F8943C91822F809583238C93B9
:1008A000E8812E2B28839FBFDF91CF9108958FB7CA
:1008B000F894EC912E2B2C938FBFF6CF1F93CF93F0
:1008C000DF93182FEB0161E00E942D04209739F48B
:1008D00060E0812FDF91CF911F910C94BC03CF3F3B
:1008E000D10511F461E0F5CFE12FF0E0EC59F94FBB
:1008F000E491E150EF3008F07FC0F0E0EE57FB4F9D
:100900000C94A314910499049E04A804B204FC045A
:10091000FC04FC04BC04C604D004DA04E704FC04B0
:10092000EF0484B5806884BDC7BDDF91CF911F916E
:10093000089584B5806284BDC8BDF7CF80918000E2
:10094000806880938000D0938900C0938800EDCFA9
:1009500080918000806280938000D0938B00C09350
:100960008A00E3CF80918000886080938000D093DC
:100970008D00C0938C00D9CF8091900080688093C7
:100980009000D0939900C0939800CFCF80919000B1
:10099000806280939000D0939B00C0939A00C5CF53
:1009A00080919000886080939000D0939D00C093C8
:1009B0009C00BBCF8091C00080688093C000809174
:1009C000C0008F7B8093C000C093CF00AECF8091DA
:1009D000C00080628093C000C093D000A6CF8091F9
:1009E000C20088608093C2008091C2008B7F809398
:1009F000C200C093D20099CFC038D1050CF072CF9D
:100A000067CF3FB7F8948091750290917602A091DC
:100A10007702B091780226B5A89B05C02F3F19F048
:100A20000196A11DB11D3FBFBA2FA92F982F88276E
:100A3000BC01CD01620F711D811D911D42E0660F49
:100A4000771F881F991F4A95D1F70895CF92DF929B
:100A5000EF92FF920E9401056B017C010E9401054B
:100A60006C197D098E099F09683E734081059105C7
:100A7000A8F3FF90EF90DF90CF90089508954091F4
:100A8000A1015091A20120919F013091A001421734
:100A90005307B4F49091E8009570E1F39091E80069
:100AA00092FD19C08093F1008091A1019091A20163
:100AB00001968F739927892B19F48EEF8093E800A4
:100AC0008091A1019091A20101969093A20180933F
:100AD000A10181E0089580E00895EF92FF920F93C5
:100AE0001F93CF93DF93F82E192FE62E042F81E06A
:100AF000860F880F0E943F0583E00E943F05CF2D9F
:100B0000D12FEC0EFD2EF11CCE15DF05B9F007FF3D
:100B100013C0FE0184910E943F05182F80E00E94BF
:100B20003F05812321968111EFCFDF91CF911F9156
:100B30000F91FF90EF9008958881EDCF81E0F5CF80
:100B4000DF92EF92FF920F931F93CF93DF93D82EF4
:100B50008A01EB017B01E40EF51ECE15DF0559F08D
:100B6000D7FE12C0FE0184910E943F05219681119B
:100B7000F4CF0FEF1FEFC801DF91CF911F910F91BD
:100B8000FF90EF90DF9008958881EECF0F931F9331
:100B9000CF93DF931F92CDB7DEB782E0898342E423
:100BA00050E064EB70E080E80E94A0050E94A8037A
:100BB000DC0112960D911C910115110589F0D801E7
:100BC000ED91FC910280F381E02DBE016F5F7F4FBC
:100BD000C801099597FD04C0F80100851185ECCF87
:100BE00089810F90DF91CF911F910F9108956150EE
:100BF00030F02091F100FC0120830196F8CF289875
:100C000084E68093850208958F929F92AF92BF925F
:100C1000CF92DF92EF92FF920F931F93CF93DF93C8
:100C20006C017B018A0180910D01882309F458C071
:100C300080918602882309F453C08091A50180FF2A
:100C400005C08091E00082608093E000E801B12C53
:100C50008AEFA82E93E0892E2AE3922E209711F492
:100C6000BB20B9F10E949703811106C0AA94AA2063
:100C7000B9F10E942605F2CF8C171D0611F00CF079
:100C80008C2F9FB7F8948092E9002091E80025FD11
:100C900002C09FBFE3CF282F30E0C21BD30BF70168
:100CA000815020F041914093F100FACFE20EF31E03
:100CB000BB2021F09092E800B12CEBCF8091E800AE
:100CC00085FDE7CF9092E800BB24B394209709F309
:100CD000F3CF5D9884E68093A401101611063CF0D2
:100CE00081E090E0F6019383828310E000E0C80188
:100CF000DF91CF911F910F91FF90EF90DF90CF90F8
:100D0000BF90AF909F908F900895CF93DF931F92E5
:100D1000CDB7DEB76983DC01ED91FC910280F381F0
:100D2000E02D41E050E0BE016F5F7F4F09950F90CD
:100D3000DF91CF9108950F931F93CF93DF938C0191
:100D4000D0E0C0E0F801EC0FFD1F6491662341F094
:100D500087E892E00E948506892B11F02196F2CF58
:100D6000CE01DF91CF911F910F91089583E0809381
:100D7000E9008091F200882319F08AE38093E8006B
:100D800008950E94970390E00895CF93DF931F92F8
:100D9000CDB7DEB7FC018485958597FD08C02FEFA0
:100DA0003FEF358724870F90DF91CF910895CE01D3
:100DB00001960E946D03019719F4898190E0F3CFA9
:100DC0008FEF9FEFF0CF0F931F93CF93DF931F927F
:100DD000CDB7DEB78C01FC018485958597FF0BC0EC
:100DE000CE0101960E946D03019771F4898190E014
:100DF000F80195878487F801848595850F90DF91A8
:100E0000CF911F910F9108958FEF9FEFF1CFFC01CC
:100E10008485958597FD0BC09FB7F89482E08093F9
:100E2000E9008091F2009FBF90E0019608959FB77E
:100E3000F89482E08093E9008091F2009FBF90E0F7
:100E400008958F929F92AF92BF92FF920F931F933C
:100E5000CF93DF93FC01F0808BE08F1508F44AC03C
:100E6000828108E512E0081B110987FD1395000F28
:100E7000111F000F111F8181C8E8D0E0C81BD109E4
:100E800087FDD395CC0FDD1FCC0FDD1F4E010D2E3E
:100E9000000CAA08BB089801012E000C440B550B4E
:100EA000281939094A095B09DB010E94491424EB1E
:100EB00030E040E050E00E941F14820E931EA41EFA
:100EC000B51E8C169D062CF0E801801691060CF4D8
:100ED000E4012297CC0FDD1F2FB7F8948F2D90E0FF
:100EE000FC01EE0FFF1FE80FF91FE952FD4FD283FF
:100EF000C1832FBFDF91CF911F910F91FF90BF90C2
:100F0000AF909F908F900895892B79F41092800074
:100F100082E0809381001092850010928400B19A43
:100F200080916F00826080936F0008958E319105EB
:100F30005CF08739910554F48093AB01682F70E021
:100F40008CEF92E00C9421078EE1F6CF86E9F4CF86
:100F500097FD0BC0853B910554F48093AC01682F3D
:100F600070E08FEF92E00C94210780E0F6CF84EBE5
:100F7000F4CF1F93CF93DF939C01862FD42F213082
:100F80009FEF3907DCF070E060E02115310581F05A
:100F9000C22F132F2F3F310519F014F0CFEF10E0BF
:100FA0001216130664F461E00E94BC036C2F712FCB
:100FB0008D2FDF91CF911F910C945E04C1E060E012
:100FC0000E94BC03C1956C2F70E0F2CF46E067E051
:100FD0000C94B90745E064E00C94B907CF92DF9216
:100FE000EF92FF920F931F930E9401050091A701BA
:100FF0001091A8012091A9013091AA016B017C01F7
:10100000C01AD10AE20AF30A97018601003A16488B
:101010002140310508F43FC06093A7017093A801F7
:101020008093A9019093AA012091000130910101C0
:10103000C901019690930101809300018FB7F89444
:10104000409171025091720260917302709174022A
:101050008FBF80910D0290E001968F709927E091EB
:101060000E02E817C1F0A0910D02E6E0EA9FD00160
:101070001124A355BE4F4D935D936D937C931397AD
:1010800090910D02E99FF0011124E355FE4F358345
:10109000248380930D021F910F91FF90EF90DF90BA
:1010A000CF9008958F929F92AF92BF920F931F930C
:1010B000CF93DF93CDB7DEB7A1970FB6F894DEBF1D
:1010C0000FBECDBF19A2423008F44AE08E010F5D79
:1010D0001F4F842E912CB12CA12CA50194010E94AC
:1010E000FD13E62FB901CA01EA3044F5E05DD801ED
:1010F000EE938D01232B242B252B79F790E080E0B4
:10110000109769F0FD0101900020E9F73197AF01D8
:101110004A1B5B0BBD0187E892E00E940406A19682
:101120000FB6F894DEBF0FBECDBFDF91CF911F91F8
:101130000F91BF90AF909F908F900895E95CD7CFAB
:1011400042E050E061E371E087E892E00C9404062D
:10115000CF93DF930E949B06EC010E94A0088C0FA6
:101160009D1FDF91CF910895CF93DF93EC018FEA1C
:1011700090E00E949B06CE01DF91CF910C94A808CD
:101180008CEA90E00C94A808CF92DF92EF92FF9245
:101190001F93CF93DF937C01EB01F70191917F01C6
:1011A0001991992381F0112371F0892F90E00E9409
:1011B000A9146C01812F90E00E94A914C816D906C9
:1011C00061F380E003C081E09113FBCFDF91CF9109
:1011D0001F91FF90EF90DF90CF9008951F920F9294
:1011E0000FB60F9211242F933F938F939F93AF933A
:1011F000BF938091710290917202A0917302B0919D
:1012000074023091700223E0230F2D3758F50196B8
:10121000A11DB11D20937002809371029093720200
:10122000A0937302B093740280917502909176023C
:10123000A0917702B09178020196A11DB11D809313
:10124000750290937602A0937702B0937802BF91D3
:10125000AF919F918F913F912F910F900FBE0F9063
:101260001F90189526E8230F0296A11DB11DD2CF1D
:101270001F920F920FB60F9211242F933F934F930B
:101280005F936F937F938F939F93AF93BF93EF93EE
:10129000FF93E0911601F09117010995FF91EF91ED
:1012A000BF91AF919F918F917F916F915F914F917E
:1012B0003F912F910F900FBE0F901F9018951F9286
:1012C0000F920FB60F9211242F933F934F935F937A
:1012D0006F937F938F939F93AF93BF93EF93FF93FE
:1012E000E0911401F09115010995FF91EF91BF91E3
:1012F000AF919F918F917F916F915F914F913F91AE
:101300002F910F900FBE0F901F9018951F920F9264
:101310000FB60F9211242F933F934F935F936F93C8
:101320007F938F939F93AF93BF93EF93FF93E0913E
:101330001201F09113010995FF91EF91BF91AF91C7
:101340009F918F917F916F915F914F913F912F91DD
:101350000F900FBE0F901F9018951F920F920FB60F
:101360000F9211242F933F934F935F936F937F932B
:101370008F939F93AF93BF93EF93FF93E0911001EF
:10138000F09111010995FF91EF91BF91AF919F915C
:101390008F917F916F915F914F913F912F910F901E
:1013A0000FBE0F901F9018951F920F920FB60F92BD
:1013B00011242F933F934F935F936F937F938F935A
:1013C0009F93AF93BF93EF93FF93E0910E01F09142
:1013D0000F010995FF91EF91BF91AF919F918F916F
:1013E0007F916F915F914F913F912F910F900FBE21
:1013F0000F901F9018951F920F920FB60F92112405
:101400008F939F938091E1009091E100937F90935F
:10141000E10083FF0FC01092E90091E09093EB0090
:101420001092EC0092E39093ED001092860298E007
:101430009093F00082FF22C093E09093E900909196
:10144000F200992319F09AE39093E8009091A40197
:10145000992341F09091A40191509093A40191118E
:1014600001C05D9A90918502992341F09091850287
:10147000915090938502911101C0289A84FF18C061
:101480008091E2008E7E81608093E2008091E10095
:101490008F7E8093E1008091A5018E7E8061809394
:1014A000A5019F918F910F900FBE0F901F901895DF
:1014B00080FFF7CF8091E2008E7E80618093E20012
:1014C0008091E1008E7E8093E1008091A5018E7E67
:1014D0008160E5CF1F920F920FB60F921124CF9229
:1014E000DF92EF92FF920F931F932F933F934F93AF
:1014F0005F936F937F938F939F93AF93BF93EF937C
:10150000FF93CF93DF93CDB7DEB76C97DEBFCDBF30
:101510001092E9008091E80083FF25C068E0CE01C9
:1015200045960E94F70582EF8093E8008D8987FF3A
:1015300039C09091E80090FFFCCF982F907609F089
:1015400034C19E894F89588D2F89F88C911131C0F3
:10155000803861F58091A6018093F1001092F1002E
:101560008EEF8093E8006C960FB6F894DEBF0FBE46
:10157000CDBFDF91CF91FF91EF91BF91AF919F913F
:101580008F917F916F915F914F913F912F911F911B
:101590000F91FF90EF90DF90CF900F900FBE0F90C4
:1015A0001F9018959EEF9093E800C7CF1092F1001E
:1015B000D5CF913059F48111D3CF4130510581F607
:1015C0008091A6018D7F8093A601CACF933049F404
:1015D0008111C6CF4130510519F68091A601826074
:1015E000F2CF953041F48091E80080FFFCCF206875
:1015F0002093E300B5CF963009F0A9C00B8D1C8D68
:1016000022E01092E9001092A2011092A101F212C0
:101610002EC01092A00110929F010E94C6051F8249
:1016200099E09983FA8291E09E8390EA98879AEFF5
:1016300099872091A1013091A201275F3F4F3C8300
:101640002B838D831092E9001092A2011092A101C8
:101650001093A00100939F0149E050E0BE016F5F2D
:101660007F4F80E00E94A0050E94C60579CF1093AD
:10167000A00100939F010E94A803DC0112960D9126
:101680001C910115110509F451C1D801ED91FC918E
:101690000480F581E02DBE016B5E7F4FC801099586
:1016A000009709F03EC1F80100851185EACFF3E00B
:1016B000FF120EC08F89882309F440C0823061F484
:1016C00040E860E188E191E00E946D05811148CF1A
:1016D00081E28093EB0047CF813029F440E86BE052
:1016E0008CE091E0F1CF833099F70E94A803DC01F0
:1016F0001296ED90FC908E010F5F1F4F6801E11470
:10170000F10479F0D701ED91FC910680F781E02D8D
:10171000B801C7010995080F111DF701E084F18494
:10172000EECFD8011C92F60101900020E9F7319725
:10173000BF016C197D0940E0C601C6CF66EF70E0BD
:10174000FB01449150E080E80E94A00509CF97304A
:1017500009F4BECF983021F481E08093F10000CFEE
:10176000993009F0FDCE837009F0B2CFE9E1F1E0E4
:1017700081E031E096E32191222371F08093E9002A
:101780003093EB00DF0111972C912093EC009093A4
:10179000ED008F5F873079F78EE78093EA00109233
:1017A000EA008F8980938602DBCE8B8D9C8D109210
:1017B000E9001092A2011092A1019093A0018093E0
:1017C0009F01898D811192C08E899D89913A49F43A
:1017D000813209F07DCF47E050E066E071E080E0C3
:1017E000B3CF913209F074CF833269F48F89988D29
:1017F000B0E0A0E08093020190930301A093040164
:10180000B0930501ADCE803269F48091E80082FF8B
:10181000FCCF67E086E091E00E94F7058BEF8093B4
:10182000E8009ECE823209F09BCE8F8980930D0115
:10183000EEEFFFE7859194918B3F9C4D51F1E0E0F5
:10184000F8E08091060190910701A0910801B09104
:101850000901803B9440A105B105F1F480910D018F
:1018600080FD1AC0EE3F8AE0F80789F587E797E721
:1018700091838083809160008093A30188E19BE045
:101880000FB6F894A895809360000FBE9093600007
:1018900067CEEEEFFAE0D5CF808191818737974709
:1018A00009F05ECEA8958091600088618093600009
:1018B0008091A30180936000EE3F2AE0F20789F057
:1018C0008091FE0A9091FF0A9183808349CE8081A6
:1018D00091818737980751F29093FF0A8093FE0A0F
:1018E000C5CF1092FF0A1092FE0A3ACE0E94A803BA
:1018F000DC0112960D911C910115110509F4E8CE39
:10190000D801ED91FC910190F081E02DBE016B5E5C
:101910007F4FC8010995811123CEF80100851185FB
:10192000EBCF181619060CF41BCED2CEF1E0FF1245
:10193000BECE6AEF70E004CF1F920F920FB60F92E7
:1019400011242F933F934F935F936F937F938F93C4
:101950009F93AF93BF93CF93DF93EF93FF938091C8
:101960009E01C091FB02D0E087FF24C01092850049
:101970001092840080919E018F5F80939E018091E0
:101980009E01082E000C990B8C179D0724F4809162
:101990009E018C30C4F18091840090918500049662
:1019A00080349C4908F47AC080918400909185002D
:1019B000049676C080919E01082E000C990B8C171E
:1019C0009D07C4F6E0919E018E2FEE0F990BFC014E
:1019D000EE0FFF1FE80FF91FE952FD4F808186FFD0
:1019E000C9CFE0919E018E2FEE0F990BFC01EE0FF7
:1019F000FF1FE80FF91FE952FD4F808160E08F73F0
:101A00000E94BC03B7CF2091840030918500E09103
:101A10009E018E2FEE0F990BFC01EE0FFF1FE80FBA
:101A2000F91FE952FD4F81819281820F931F90939C
:101A3000890080938800E0919E018E2FEE0F990B14
:101A4000FC01EE0FFF1FE80FF91FE952FD4F8081E7
:101A500086FF11C0E0919E018E2FEE0F990BFC01C5
:101A6000EE0FFF1FE80FF91FE952FD4F808161E083
:101A70008F730E94BC03FF91EF91DF91CF91BF91D3
:101A8000AF919F918F917F916F915F914F913F9116
:101A90002F910F900FBE0F901F90189580E49CE936
:101AA00090938900809388008FEF80939E01E3CF0D
:101AB000EF92FF920F931F93CF93DF9300D0CDB798
:101AC000DEB77C018B011A8219824AE050E0BE0128
:101AD0006F5F7F4F0E94CA1229813A812E153F0500
:101AE00069F4F801108290E080E00F900F90DF9190
:101AF000CF911F910F91FF90EF90089521E0F80191
:101B000020836115F0E87F07FFEF8F079F076CF0D8
:101B1000DC01CB01811520E89207A105B1052CF36A
:101B20008FEF9FE7A0E0B0E0E0CF80E090E8DDCF6E
:101B300010928A021092890288EE93E0A0E0B0E051
:101B400080938B0290938C02A0938D02B0938E02AF
:101B500083E291E090938802809387028FEF9FEF5A
:101B600090939402809393028091FB028C3048F50D
:101B700091E0980F9093FB028093FF0290E0FC01AC
:101B8000EE0FFF1FE80FF91FE952FD4F88EB9BE0B6
:101B9000928381838091FB028C30B8F491E0980F9E
:101BA0009093FB028093FC0290E0FC01EE0FFF1F7C
:101BB000E80FF91FE952FD4F88EB9BE09283818388
:101BC00008958FEF8093FF02E5CF8FEF8093FC02A3
:101BD0000895CF93DF9300D0CDB7DEB7789484B566
:101BE000826084BD84B5816084BD85B5826085BD19
:101BF00085B5816085BD80916E00816080936E00A7
:101C00001092810080918100826080938100809198
:101C10008100816080938100809180008160809349
:101C2000800080919100826080939100809191006A
:101C300081608093910080919000816080939000FA
:101C40008091C10084608093C1008091C100826056
:101C50008093C1008091C10081608093C100809118
:101C6000C30081608093C3008091C0008260809334
:101C7000C0008091C20081608093C20080917A0090
:101C8000846080937A0080917A00826080937A00E9
:101C900080917A00816080937A0080917A008068D8
:101CA00080937A00109286021092A6011092A501EC
:101CB0008091D70081608093D70080EA8093D8001C
:101CC00089B5806189BD89B5826089BD09B400FE8E
:101CD000FDCF0E9426058091D8008F7C8061809383
:101CE000D8008091E000807F8093E0008091E10047
:101CF0008E7E8093E1008DE08093E200559A209AD9
:101D000061E084E00E942D0461E087E00E942D04E0
:101D100061E085E00E942D0461E086E00E942D04D0
:101D200090E080E00E94EA0790E080E00E94E607F1
:101D30008091FF028C3008F043C061E089E00E948E
:101D40002D048091FF02282F30E0F901EE0FFF1FD4
:101D5000E20FF31FE952FD4F9081907C99609083D0
:101D600010920003109201032CE0622F0E9497143E
:101D700090E0829FB001112430E020E0AB01420FDF
:101D8000531FFA01EE0FFF1FE40FF51FE952FD4F3D
:101D9000408146FD07C02F5F3F4F2C30310571F762
:101DA0000E948407E091FF028E2F90E0FC01EE0F6D
:101DB000FF1FE80FF91FE952FD4F80818064808387
:101DC0008091FC028C3008F043C061E08AE00E9400
:101DD0002D048091FC02282F30E0F901EE0FFF1F47
:101DE000E20FF31FE952FD4F9081907C9A6090833F
:101DF0001092FD021092FE022CE0622F0E949714B6
:101E000090E0829FB001112430E020E0AB01420F4E
:101E1000531FFA01EE0FFF1FE40FF51FE952FD4FAC
:101E2000408146FD07C02F5F3F4F2C30310571F7D1
:101E30000E948407E091FC028E2F90E0FC01EE0FDF
:101E4000FF1FE80FF91FE952FD4F808180648083F6
:101E50008AE590E00E94A8078AE590E00E94960734
:101E600010920D0210920E021092A7011092A8017A
:101E70001092A9011092AA0161E08BE00E942D044A
:101E800060E08BE00E94BC0362E083E00E942D04CE
:101E90008EEE97E090930F0180930E018091690080
:101EA0008C7F826080936900E89A10926F028FEFB6
:101EB0009FEF90939402809393028AE090E0A0E0D9
:101EC000B0E080938B0290938C02A0938D02B0932C
:101ED0008E0289E291E00E94A8082FE2C22ED12C46
:101EE00087E892E00E940707181619068CF096E022
:101EF000F92EF89490910E0280910D0298131DC353
:101F0000789480E090E0892B59F30E940000E8CF9C
:101F100087E892E00E94C5068D3011F3E0916F02D0
:101F20008A3009F0F8C2E03658F5F0E0E15FFD4F85
:101F300010822FE032E08901F90180812F5F3F4F4D
:101F40008032C9F38930B9F38823B9F060E270E0D8
:101F5000C8010E94B1147C01009721F0FC0110829D
:101F600001967C0164E371E0C8010E94C4088823E3
:101F700051F081EF95E00E94A80810926F02B0CF57
:101F800010926E02D6CF69E371E0C8010E94BC14C2
:101F9000892B79F06BE371E0C8010E94C4088111BC
:101FA00008C060E471E0C8010E94C408882309F4F5
:101FB0005FC082E495E00E94A80888E195E00E9455
:101FC000A80880EF94E00E94A80884EC94E00E94A6
:101FD000A8088FE894E00E94A80888E594E00E9491
:101FE000A8088BE094E00E94A80889ED93E00E9485
:101FF000A80887EA93E00E94A80885E693E00E947B
:10200000A80885E293E00E94A8088EEF92E00E9463
:10201000A80889EB92E00E94A8088CE992E00E944F
:10202000A80880E892E00E94A80886E692E00E9454
:10203000A80884E492E00E94A80886E192E00E9449
:10204000A8088CED91E00E94A80881EA91E00E9426
:10205000A80884E891E00E94A8088FE591E00E941A
:10206000A80880E491E00E94A8080E94C00885CFDB
:1020700062E471E0C8010E94C408882349F08CED35
:1020800090E00E94EA078CED90E00E94E607EDCF19
:1020900065E471E0C8010E94C408882339F084E235
:1020A0009FEF0E94EA0784E29FEFEFCF68E471E0C0
:1020B000C8010E94C408882339F090E080E00E94A3
:1020C000EA0790E080E0E1CF6BE471E0C8010E9494
:1020D000C408811128C06EE471E0C8010E94C408E0
:1020E000811121C061E571E0C8010E94C40881111D
:1020F0002EC066E571E0C8010E94C408882309F477
:1021000058C08CED95E0E114F10479F11982BE011B
:102110006F5F7F4FC7010E94580D2981211146C072
:1021200085ED95E022C06EE471E0C8010E94C4080C
:10213000882341F088EC90E008E31FEF0E94EA0753
:10214000C801A3CF88E39FEF08EC10E0F7CF8DEE36
:1021500095E0E114F10449F060E270E0C7010E94EB
:10216000B114009729F489EE95E00E94B40805CFD8
:10217000FC0111928F011A821982BE016E5F7F4F9E
:10218000C7010E94580D7C01BE016F5F7F4FC801DF
:102190000E94580D8C018A81882319F08981811150
:1021A00003C080EE95E0E1CFC701C8CF0E94EA07E7
:1021B0005CCF69E571E0C8010E94C408882391F0F2
:1021C00081ED95E0E114F10481F21982BE016F5FA7
:1021D0007F4FC7010E94580D2981211156CF8AECEB
:1021E00095E0C3CF6CE571E0C8010E94C408882364
:1021F00001F186EC95E0E114F10409F4B6CF1982FF
:10220000BE016F5F7F4FC7010E94580D99819111E8
:1022100003C08FEB95E0A9CF182F853B08F014EB96
:10222000612F70E08FEF92E00E9421071093AC01C4
:102230001CCF6FE571E0C8010E94C408882301F13A
:102240008BEB95E0E114F10409F48FCF1982BE0104
:102250006F5F7F4FC7010E94580D9981911103C094
:1022600084EB95E082CF182F853B08F014EB612FAB
:1022700070E08CEF92E00E9421071093AB01F5CE45
:1022800062E671E0C8010E94C408882349F08AE52B
:1022900090E00E94A8078AE590E00E949607E5CEAC
:1022A00067E671E0C8010E94C4088823D9F08BEA70
:1022B00095E00E949B066091AC0170E090E080E0A8
:1022C0004AE00E94520884EA95E00E949B066091D1
:1022D000AB0170E090E080E04AE00E9452080E946A
:1022E000A0084BCE6BE671E0C8010E94C4088823A9
:1022F00099F080EA95E0E114F10409F436CF1982EF
:10230000BE016F5F7F4FC7010E94580D29812111C7
:10231000CFC088E995E029CF6FE671E0C8010E943F
:10232000C408882399F084E995E0E114F10409F4E4
:102330001CCF1982BE016F5F7F4FC7010E94580DED
:1023400029812111AACF8BE895E00FCF64E771E0D6
:10235000C8010E94C408882389F187E895E0E11448
:10236000F10409F402CF60E270E0C7010E94B114E9
:10237000009719F483E895E0F8CEFC0111928F01E3
:102380001A821982BE016E5F7F4FC7010E94580DED
:102390007C01BE016F5F7F4FC8010E94580D8C0108
:1023A0008A81882319F08981811103C088E795E02B
:1023B000DCCEC7010E94A807C8016FCF6BE771E0B0
:1023C000C8010E94C408811150C060E871E0C801D2
:1023D0000E94C408811149C065E871E0C8010E94EB
:1023E000C408811142C06BE871E0C8010E94C408B2
:1023F00081113BC061E971E0C8010E94C4088823D3
:1024000009F478C08FB7F8948090710290907202AE
:10241000A0907302B09074028FBFF2E18F0E911CF6
:10242000A11CB11C2FB7F894809171029091720297
:10243000A0917302B09174022FBF88199909AA095B
:10244000BB09B7FF12CE16E061E08BE00E94BC032F
:10245000C6010197F1F760E08BE00E94BC03C60162
:102460000197F1F7115081F7DDCFE114F10489F004
:102470001982BE016F5F7F4FC7010E94580D7C011A
:102480008981882319F01E141F0434F08FE695E02B
:102490006CCE85E0E82EF12C6BE771E0C8010E945C
:1024A000C408882341F08091AC0190E08E199F0907
:1024B0000E94A807DACD60E871E0C8010E94C40854
:1024C000882331F08091AC018E0D9F2D911DF0CFAE
:1024D00065E871E0C8010E94C4082091AB0130E0BA
:1024E000882321F0C9018E0D9F1DD7CEC9018E19F9
:1024F0009F09D3CE66E971E0C8010E94C40881112A
:1025000081CF69E971E0C8010E94C4088111D5CD6D
:1025100087E695E02ACEEF3548F491E09E0F909340
:102520006F02F0E0E15FFD4F8083DACC10926F0222
:1025300081E096E00E94B408D3CCE0910E02EF9DBA
:10254000F0011124E355FE4F80809180A280B3807A
:102550000481158180910E0290E001968F70992779
:1025600080930E02789488EF95E00E949B06B80154
:1025700090E080E04AE00E94520860E287E892E042
:102580000E9485064AE0C501B4010E9452080E94DB
:10259000A008AFCCB0E0A0E0E0EDF2E10C94521462
:1025A0005C016B017A016115710519F0FB019183E2
:1025B0008083E114F10451F0C7010297839730F052
:1025C00040E030E020E090E072C05E01E50121963D
:1025D000F5011081812F90E00E94E113892BA9F76A
:1025E0001D3201F52196F501118101E0E114F1049C
:1025F00009F4DAC0F0E1EF16F10409F082C01033FB
:1026000059F488818F7D883509F076C0198122962A
:102610000260F0E1EF2EF12C812C912CA12C88E0AE
:10262000B82E8CC01B3221F4E5012296F5011181F0
:1026300000E0DCCFEAE0EE16F10409F4BBC0F0E103
:10264000EF16F10409F06DC0E7CF78E0E72EF12C2A
:10265000812C912CA12C60E1B62E70C03FE9310F86
:102660003A3128F439EA332E80C021E09AC0302F65
:102670003170C114D10431F0222309F12197F60100
:10268000D183C08327FF21C060E070E080E090E844
:10269000311104C06FEF7FEF8FEF9FE722E230E050
:1026A0003093030320930203462F372F282F642FE4
:1026B000732F822FCDB7DEB7E1E10C946E1401FFCA
:1026C00004C02297F601D183C083332341F0909553
:1026D0008095709561957F4F8F4F9F4FE5CF97FF06
:1026E000E3CF82E290E090930303809302036FEFC5
:1026F0007FEF8FEF9FE7D8CF10E3E114F10409F4E7
:10270000A4CF28E0E216F10409F4A2CF0CF092CF96
:10271000812C912CA12CE0E4BE2E82E0E816F1047D
:1027200069F060E070E080E090E897010F2C000C09
:10273000440B550B0E94FD1349015A0120E060E053
:1027400070E0CB0127010F2C000C66087708FE0112
:1027500050ED352E310E39E0331540F43FEB310F9B
:102760003A3108F07BCF49EC342E310E3E141F0471
:102770000CF07DCF27FD15C086169706A806B90672
:1027800078F0A30192010E94ED13630D711D811D6C
:10279000911D61307105810520E8920708F465CF2D
:1027A0002FEF21961081D3CF103309F42ACF2AE0DE
:1027B000E22EF12C9CEC892E982CA82C9CE0B92EB2
:1027C000BDCF91110C94EA13803219F089508550D5
:1027D000C8F70895992788270895DB018F939F9361
:1027E0000E943E14BF91AF91A29F800D911DA39FA7
:1027F000900DB29F900D11240895A1E21A2EAA1BEC
:10280000BB1BFD010DC0AA1FBB1FEE1FFF1FA217A0
:10281000B307E407F50720F0A21BB30BE40BF50B9D
:10282000661F771F881F991F1A9469F76095709526
:10283000809590959B01AC01BD01CF010895052EB7
:1028400097FB1EF400940E94361457FD07D00E9497
:10285000FD1307FC03D04EF40C94361450954095AC
:10286000309521953F4F4F4F5F4F0895909580953C
:10287000709561957F4F8F4F9F4F08950E948814E8
:10288000A59F900DB49F900DA49F800D911D1124C4
:102890000895B7FF0C943E140E943E14821B930BC4
:1028A00008952F923F924F925F926F927F928F92F4
:1028B0009F92AF92BF92CF92DF92EF92FF920F93CF
:1028C0001F93CF93DF93CDB7DEB7CA1BDB0B0FB6D9
:1028D000F894DEBF0FBECDBF09942A883988488896
:1028E0005F846E847D848C849B84AA84B984C8842C
:1028F000DF80EE80FD800C811B81AA81B981CE0F23
:10290000D11D0FB6F894DEBF0FBECDBFED01089507
:10291000A29FB001B39FC001A39F700D811D112420
:10292000911DB29F700D811D1124911D0895991B59
:1029300079E004C0991F961708F0961B881F7A95B6
:10294000C9F780950895EE0FFF1F0590F491E02DD3
:1029500009949111089581548A5108F4805E855A32
:102960000895FC018191861721F08823D9F79927D2
:1029700008953197CF010895FB01DC018D910190FD
:0E29800080190110D9F3990B0895F894FFCF38
:10298E000100FFFFFFFF00E10000000000003E0518
:10299E003E053E053E053E0500C18081000000005B
:1029AE0000000085060406C106B6060707C506E345
:1029BE00060D0A0050494E47003F0048454C500056
:1029CE0048004D46004D42004D5300544C005452A9
:1029DE000054414E4B004D31004D320053310053E7
:1029EE003200484F4D4500504F530050414E005459
:1029FE00494C54005455525245540050414E4C00CF
:102A0E0050414E520054494C54550054494C544474
:0E2A1E0000464952450049520053544F5000A3
:00000001FF
