:100000000C9453050C949D0C0C94760C0C944F0C92
:100010000C94280C0C947B050C947B050C94010C1F
:100020000C947B050C947B050C94C40C0C94330D40
:100030000C947B050C947B050C947B050C947B0540
:100040000C947B050C94650F0C947B050C947B053C
:100050000C947B050C947B050C947B050C94B70BDE
:100060000C947B050C947B050C947B050C947B0510
:100070000C947B050C947B050C947B050C947B0500
:100080000C947B050C947B050C947B050C947B05F0
:100090000C947B050C947B050C947B050C947B05E0
:1000A0000C947B050C947B050C947B054F4B004511
:1000B00052522000080B0002020200000904000056
:1000C00001020200000524001001052401010104C1
:1000D00024020605240600010705810310004009DB
:1000E000040100020A0000000705020240000007A8
:1000F0000583024000000403090412010002EF021C
:100100000140412336800001010203014172647500
:10011000696E6F204C4C430041726475696E6F20AC
:100120004C656F6E6172646F00424F4F5420524FA6
:100130004D454F5F5553425F50524F544F20310051
:100140003F2020202020202020D18DD182D0B0201F
:10015000D181D0BFD180D0B0D0B2D0BAD0B0005011
:10016000494E472020202020D0BFD180D0BED0B221
:10017000D0B5D180D0BAD0B020D181D0B2D18FD07B
:10018000B7D0B80056524546205B6D767C41555439
:100190004F5D2020D0BFD0BED0BAD0B0D0B7D0B045
:1001A000D182D18C2FD0B7D0B0D0B4D0B0D182D141
:1001B0008C20D0BED0BFD0BED180D0BDD0BED0B5F7
:1001C00020D0BDD0B0D0BFD180D18FD0B6D0B5D0E7
:1001D000BDD0B8D0B520D090D0A6D09F0056434314
:1001E000202020202020D0B8D0B7D0BCD0B5D180DE
:1001F000D0B8D182D18C204156434320D187D0B58D
:10020000D180D0B5D0B72062616E6467617020D0B4
:10021000B820D0B2D0B7D18FD182D18C20D0BAD073
:10022000B0D0BA20D180D0B5D184D0B5D180D0B5EE
:10023000D0BDD18100564241542020202020D0B191
:10024000D0B0D182D0B0D180D0B5D18F20D0BDD0A8
:10025000B020413120D187D0B5D180D0B5D0B720E2
:1002600034376B2F31306B202D3E205642415420C5
:100270003C6D563E203C7261773E203C70696E5F5B
:100280006D563E0041302E2E4135202F2041206EEC
:100290002020D090D0A6D09F202D3E20413C6E3E05
:1002A000203C7261775F305F313032333E203C6DED
:1002B000563E004C4544204F4E7C4F46467C5420D1
:1002C0002020D182D0BE20D0B6D0B52C20D180D075
:1002D000B0D0B7D0B2D191D180D0BDD183D182D0AE
:1002E000BE3B204C454420D0B1D0B5D0B720D0B0D3
:1002F000D180D0B3D183D0BCD0B5D0BDD182D0B065
:1003000020E2809420D181D182D0B0D182D183D11A
:1003100081004C4F4E2F4C4F46462F4C54472020C7
:10032000D0B1D0BED180D182D0BED0B2D0BED0B9F3
:1003300020D181D0B2D0B5D182D0BED0B4D0B8D087
:10034000BED0B400464952452F49522020D098D003
:100350009A2DD0B8D0BCD0BFD183D0BBD18CD181A5
:10036000005332206E2020202020D181D0B5D180B2
:10037000D0B2D0BE2032202854494C54292C2030F1
:100380002E2E31383020D0B1D0B5D0B720D0BBD050
:10039000B8D0BCD0B8D182D0BED0B2005331206E1C
:1003A0002020202020D181D0B5D180D0B2D0BE2055
:1003B00031202850414E292C20302E2E313830202B
:1003C000D0B1D0B5D0B720D0BBD0B8D0BCD0B8D188
:1003D00082D0BED0B200504F53202020202020D108
:1003E00082D0B5D0BAD183D189D0B5D0B53A20501A
:1003F0004F532050414E203C643E2054494C5420E1
:100400003C643E00484F4D452020202020D0B1D0F4
:10041000B0D188D0BDD18F20D0B220D186D0B5D078
:10042000BDD182D1802028D0B3D0B0D181D0B8D175
:100430008220D181D0BAD0BED180D0BED181D1822C
:10044000D18C29005453544F5020202020D0BED1AD
:1004500081D182D0B0D0BDD0BED0B2D0B8D182D1FF
:100460008C20D0BFD0BBD0B0D0B2D0BDD18BD0B952
:1004700020D185D0BED0B420D0B1D0B0D188D0BDED
:10048000D0B8005455525245545620702074202044
:1004900020D0BED0B1D0B520D181D0BAD0BED180CD
:1004A000D0BED181D182D0B820D181D180D0B0D07E
:1004B000B7D1830054494C545620762020D0BFD069
:1004C000BBD0B0D0B2D0BDD18BD0B920D0BDD0B0D0
:1004D000D0BAD0BBD0BED0BD2C207620D0B3D18036
:1004E000D0B0D0B42FD1812028D181D0BE20D0B7B8
:1004F000D0BDD0B0D0BAD0BED0BC290050414E56ED
:100500002076202020D0BFD0BBD0B0D0B2D0BDD17B
:100510008BD0B920D0BFD0BED0B2D0BED180D0BE9B
:10052000D1822C207620D0B3D180D0B0D0B42FD1BE
:10053000812028D181D0BE20D0B7D0BDD0B0D0BAD4
:10054000D0BED0BC290054532020202020202020C1
:10055000D181D182D0BED0BF20D0BFD0BBD0B0D04F
:10056000B2D0BDD0BED0B3D0BE20D185D0BED0B425
:10057000D0B020D0B1D0B0D188D0BDD0B82028D153
:1005800081D0B8D0BDD0BED0BDD0B8D0BC205453DF
:10059000544F502900504C2F50522F54552F544433
:1005A000205B765D20D0BFD0BBD0B0D0B2D0BDD163
:1005B0008BD0B920D185D0BED0B420D0B1D0B0D1AD
:1005C00088D0BDD0B82028D0BFD0BE20D183D0BC29
:1005D000D0BED0BBD187D0B0D0BDD0B8D18E206B2B
:1005E00054757272657444656661756C7452617499
:1005F00065290054494C5444205B735D20D188D058
:10060000B0D0B320D0B2D0BDD0B8D0B70054494C90
:100610005455205B735D20D188D0B0D0B320D0B2C8
:10062000D0B2D0B5D180D1850050414E52205B73FD
:100630005D20D188D0B0D0B320D0B2D0BFD180D08F
:10064000B0D0B2D0BE0050414E4C205B735D20D183
:1006500088D0B0D0B320D0B2D0BBD0B5D0B2D0BE4D
:10066000202028D0BFD0BE20D183D0BCD0BED0BBEC
:10067000D187D0B0D0BDD0B8D18E206B54757272F6
:10068000657453746570446567290054555252452A
:1006900054207020742020D0BED0B1D0B020D1839F
:1006A000D0B3D0BBD0B020D181D180D0B0D0B7D121
:1006B000830054494C542064202020D0B1D0B0D1C4
:1006C00088D0BDD18F3A20D0BDD0B0D0BAD0BBD069
:1006D000BED0BD2C20D183D0B3D0BED0BB20D18121
:1006E00020D0BBD0B8D0BCD0B8D182D0B0D0BCD094
:1006F000B80050414E206420202020D0B1D0B0D18D
:1007000088D0BDD18F3A20D0BFD0BED0B2D0BED11C
:1007100080D0BED1822C20D183D0B3D0BED0BB201C
:10072000D18120D0BBD0B8D0BCD0B8D182D0B0D08D
:10073000BCD0B8004D32206E2020202020D0BCD06C
:10074000BED182D0BED18020322C20D181D0BAD06F
:10075000BED180D0BED181D182D18C202D32353511
:100760002E2E323535004D31206E2020202020D015
:10077000BCD0BED182D0BED18020312C20D181D03E
:10078000BAD0BED180D0BED181D182D18C202D32C1
:1007900035352E2E3235350054414E4B206C2072AB
:1007A00020D0BBD0B5D0B2D0B0D18F20D0B820D01F
:1007B000BFD180D0B0D0B2D0B0D18F20D0B3D18350
:1007C000D181D0B5D0BDD0B8D186D0B02C202D32BB
:1007D00035352E2E32353520D0BAD0B0D0B6D0B483
:1007E000D0B0D18F00545220202020202020D18052
:1007F000D0B0D0B7D0B2D0BED180D0BED18220D0C0
:10080000BDD0B020D0BCD0B5D181D182D0B520D060
:10081000B2D0BFD180D0B0D0B2D0BE00544C2020D6
:100820002020202020D180D0B0D0B7D0B2D0BED1EF
:1008300080D0BED18220D0BDD0B020D0BCD0B5D128
:1008400081D182D0B520D0B2D0BBD0B5D0B2D0BE8D
:10085000004D532F53544F502020D181D182D0BE10
:10086000D0BF20D0BED0B1D0BED0B8D18520D0BCB2
:10087000D0BED182D0BED180D0BED0B2004D4220F9
:10088000202020202020D0BED0B1D0B020D0BCD09D
:10089000BED182D0BED180D0B020D0BDD0B0D0B734
:1008A000D0B0D0B4004D4620202020202020D0BE43
:1008B000D0B1D0B020D0BCD0BED182D0BED180D0FB
:1008C000B020D0B2D0BFD0B5D180D191D0B4003D4E
:1008D0003D3D20526F6D656F2055534220E280945C
:1008E00020D0BAD0BED0BCD0B0D0BDD0B4D18B2037
:1008F0003D3D3D00554E4B4E4F574E004C45445FDD
:1009000056414C004F4646004F4E004C4544200097
:10091000565245462000565245465F56414C0056B9
:10092000524546200056524546200056434320007B
:1009300056424154200041004144435F4348004136
:1009400052470041004144435F43480053544550DF
:100950005F56414C00524154455F56414C0054553E
:1009600052524554565F56414C0041524700415245
:10097000470054494C54565F56414C004152470081
:1009800050414E565F56414C00415247005455521B
:100990005245545F56414C00415247004152470076
:1009A00054494C545F56414C004152470050414E0F
:1009B0005F56414C00415247002054494C5420009E
:1009C000504F532050414E200053325F56414C004F
:1009D0004152470053315F56414C00415247004D50
:1009E000325F56414C00415247004D315F56414CF9
:1009F000004152470054414E4B5F56414C0041521A
:100A0000470041524700504F4E4720310045565451
:100A10002048495420004C494E455F4F5646000738
:100A20000605040100080A0B0C0D09000000002453
:100A30000027002A002D00300000000000250028BB
:100A4000002B002E003100040404040403040502FA
:100A50000202020403020202020606060606060459
:100A60000402020204040408020110408040102025
:100A70004080408008020401804020100201108064
:100A800010204040200000000200090F0000030475
:100A900001000C0000000000000000000000000049
:100AA00000000000861111241FBECFEFDAE0DEBF88
:100AB000CDBF11E0A0E0B1E0E4E3F8E302C00590AF
:100AC0000D92AC3EB107D9F723E0ACEEB1E001C026
:100AD0001D92A336B207E1F715E0C3E5D5E004C0E7
:100AE0002197FE010E94EF1BC235D107C9F70E9472
:100AF000D7110C94181C0C940000FC018091E502A5
:100B0000882311F13FB7F89482E08093E9002091A7
:100B1000F200822F90E01816190614F481E090E09C
:100B2000882339F0289844E64093E4024091F1008C
:100B30004083222339F02091F200211103C02BE6DB
:100B40002093E8003FBF08958FEF9FEF08952FB7E0
:100B5000F89483E08093E9009091E800892F8072F7
:100B600095FF04C09091F20080E4891B2FBF089587
:100B70008091DC0281110DC082E08093D80284E074
:100B80008093D9021092DB021092DA0281E0809306
:100B9000DC0288ED92E00895282F30E0F901EB5750
:100BA000F54F9491F901EA59F54F8491295B354F3E
:100BB000F9012491222309F430C09923E9F09150DE
:100BC0009F30D0F4E92FF0E0E851FA4F0C94EF1B7E
:100BD00016061A06F7050E061206FC05FC05FC05AE
:100BE0001D06230627062B063106FC0535069091C7
:100BF00080009F7790938000E22FF0E0EE0FFF1FC0
:100C0000E75CF54FA591B4919FB7F894EC91611111
:100C100032C080958E238C939FBF08959091800061
:100C20009F7DE8CF90918000977FE4CF94B59F7728
:100C300094BDE2CF94B59F7DFBCF909190009F77BC
:100C400090939000D9CF909190009F7DF9CF909193
:100C50009000977FF5CF9091C0009F779093C00050
:100C6000CBCF9091C0009F7DF9CF9091C200977F2C
:100C70009093C200C1CF8E2BCECFCF93DF9390E065
:100C8000FC01EA59F54F2491895B954FFC01849151
:100C90008823C9F090E0880F991FFC01E55DF54FAE
:100CA000A591B491FC01E75CF54FC591D491611118
:100CB0000DC09FB7F8948C91209582238C938881E6
:100CC000282328839FBFDF91CF910895623051F48C
:100CD0009FB7F8943C91822F809583238C93E88171
:100CE0002E2BEFCF8FB7F894EC912E2B2C938FBF38
:100CF000EACF1F93CF93DF93EC01162F88818C30BE
:100D000008F050C061E0812F0E943D068881282FA5
:100D100030E0F901EE0FFF1FE20FF31FEA5CFC4F1A
:100D20001F736081607C612B60839BE0998397EEE9
:100D30009A832CE0622F0E94E31B829FB001112452
:100D400030E020E0AB01420F531FFA01EE0FFF1F0E
:100D5000E40FF51FEA5CFC4F908196FD16C02F5FF3
:100D60003F4F2C30310571F781110FC01092800078
:100D700082E0809381001092850010928400B19AE5
:100D800080916F00826080936F00E8818E2F90E0E9
:100D9000FC01EE0FFF1FE80FF91FEA5CFC4F80819A
:100DA000806480838881DF91CF911F9108951F9384
:100DB000CF93DF93182FEB0161E00E943D0620974F
:100DC00039F460E0812FDF91CF911F910C94CC0515
:100DD000CF3FD10511F461E0F5CFE12FF0E0EB5703
:100DE000F54FE491E150EF3008F07FC0F0E0E550BE
:100DF000F94F0C94EF1B0A071207170721072B075F
:100E000075077507750735073F07490753076007DB
:100E10007507680784B5806884BDC7BDDF91CF9131
:100E20001F91089584B5806284BDC8BDF7CF8091BD
:100E30008000806880938000D0938900C0938800F0
:100E4000EDCF80918000806280938000D0938B00F2
:100E5000C0938A00E3CF80918000886080938000F7
:100E6000D0938D00C0938C00D9CF80919000806882
:100E700080939000D0939900C0939800CFCF809139
:100E80009000806280939000D0939B00C0939A0062
:100E9000C5CF80919000886080939000D0939D0092
:100EA000C0939C00BBCF8091C00080688093C0003D
:100EB0008091C0008F7B8093C000C093CF00AECFE5
:100EC0008091C00080628093C000C093D000A6CF04
:100ED0008091C20088608093C2008091C2008B7FA5
:100EE0008093C200C093D20099CFC038D1050CF0D6
:100EF00072CF67CF3FB7F8948091D4029091D5021A
:100F0000A091D602B091D70226B5A89B05C02F3F6D
:100F100019F00196A11DB11D3FBFBA2FA92F982F1F
:100F20008827BC01CD01620F711D811D911D42E01A
:100F3000660F771F881F991F4A95D1F708958F92E2
:100F40009F92AF92BF92CF92DF92EF92FF924B01AE
:100F50005C010E947A076B017C010E947A076C1980
:100F60007D098E099F09683E734081059105A8F3AC
:100F700028EEC20E23E0D21EE11CF11C8A948928BF
:100F80008A288B2829F0812C912C54018394E5CF59
:100F9000FF90EF90DF90CF90BF90AF909F908F9099
:100FA00008952FB7F8946091D0027091D10280918A
:100FB000D2029091D3022FBF089508954091EF017E
:100FC0005091F0012091ED013091EE01421753074D
:100FD000B4F49091E8009570E1F39091E80092FDEF
:100FE00019C08093F1008091EF019091F00101967A
:100FF0008F739927892B19F48EEF8093E8008091E5
:10100000EF019091F00101969093F0018093EF0130
:1010100081E0089580E00895EF92FF920F931F936F
:10102000CF93DF93F82E192FE62E042F81E0860F41
:10103000880F0E94DE0783E00E94DE07CF2DD12FAC
:10104000EC0EFD2EF11CCE15DF05B9F007FF13C025
:10105000FE0184910E94DE07182F80E00E94DE07C7
:10106000812321968111EFCFDF91CF911F910F91B5
:10107000FF90EF9008958881EDCF81E0F5CFDF926A
:10108000EF92FF920F931F93CF93DF93D82E8A0195
:10109000EB017B01E40EF51ECE15DF0559F0D7FEFE
:1010A00012C0FE0184910E94DE0721968111F4CFC7
:1010B0000FEF1FEFC801DF91CF911F910F91FF90AC
:1010C000EF90DF9008958881EECF0F931F93CF9319
:1010D000DF931F92CDB7DEB782E0898342E450E010
:1010E00064EB70E080E80E943F080E94B805DC01D4
:1010F00012960D911C910115110589F0D801ED9101
:10110000FC910280F381E02DBE016F5F7F4FC8012B
:10111000099597FD04C0F80100851185ECCF898100
:101120000F90DF91CF911F910F910895615030F092
:101130002091F100FC0120830196F8CF289884E6E5
:101140008093E40208958F929F92AF92BF92CF92C4
:10115000DF92EF92FF920F931F93CF93DF936C0177
:101160007B018A0180910D01882309F45CC0809184
:10117000E502882309F457C08091F30180FF05C080
:101180008091E00082608093E000E801B12C8AEF5A
:10119000A82E93E0892E2AE3922E209711F4BB20EB
:1011A000D9F10E94A70581110AC0AA94AA20D9F1F9
:1011B00061E070E080E090E00E949F07EECF8C1726
:1011C0001D0611F00CF08C2F9FB7F8948092E90067
:1011D0002091E80025FD02C09FBFDFCF282F30E01F
:1011E000C21BD30BF701815020F041914093F100D5
:1011F000FACFE20EF31EBB2021F09092E800B12C52
:10120000EBCF8091E80085FDE7CF9092E800BB240A
:10121000B394209709F3F3CF5D9884E68093F201AD
:10122000101611063CF081E090E0F6019383828372
:1012300010E000E0C801DF91CF911F910F91FF9066
:10124000EF90DF90CF90BF90AF909F908F900895D8
:10125000CF93DF931F92CDB7DEB76983DC01ED91A9
:10126000FC910280F381E02D41E050E0BE016F5F10
:101270007F4F09950F90DF91CF9108950F931F93A2
:10128000CF93DF938C01D0E0C0E0F801EC0FFD1F9D
:101290006491662341F086EE92E00E942809892B32
:1012A00011F02196F2CFCE01DF91CF911F910F91D6
:1012B000089583E08093E9008091F200882319F07B
:1012C0008AE38093E80008950E94A70590E00895BE
:1012D000CF93DF931F92CDB7DEB7FC018485958550
:1012E00097FD08C02FEF3FEF358724870F90DF91E0
:1012F000CF910895CE0101960E947D05019719F4C2
:10130000898190E0F3CF8FEF9FEFF0CF0F931F9382
:10131000CF93DF931F92CDB7DEB78C01FC0184859C
:10132000958597FF0BC0CE0101960E947D05019720
:1013300071F4898190E0F80195878487F8018485AC
:1013400095850F90DF91CF911F910F9108958FEFA9
:101350009FEFF1CFFC018485958597FD0BC09FB76A
:10136000F89482E08093E9008091F2009FBF90E0C2
:10137000019608959FB7F89482E08093E9008091E8
:10138000F2009FBF90E00895DC01EC91EC3090F505
:1013900011968C91119728E830E0281B310987FDC0
:1013A0003395220F331F220F331F6217730784F008
:1013B00012968C9128E532E0281B310987FD339580
:1013C000220F331F220F331F621773070CF49B0188
:1013D00022503109220F331F4FB7F8948E2F90E01F
:1013E000FC01EE0FFF1FE80FF91FEA5CFC4F328390
:1013F00021834FBF089561322FEB720722E08207ED
:10140000910524F060E27FEB82E090E09B01AC016B
:1014100057FF03C020E030E0A901A0EDB7E00E9433
:101420008A1B20E23FEB42E050E00E94491BDA01B8
:10143000C9018C509E4FAF4FBF4F0895AC01092E8C
:10144000000C660B770B4E3151056105710544F0B8
:1014500047395105610571052CF086E990E002C01D
:101460008EE190E028EE33E0DC010E94F51B6093F2
:10147000BF027093C0028093C1029093C202109287
:10148000C8021092C7020E94FB09BC018BE593E0E1
:101490000C94C409AC01092E000C660B770B77FD88
:1014A00008C0453B5105610571052CF084EB90E0C7
:1014B00002C090E080E028EE33E0DC010E94F51BE2
:1014C0006093C3027093C4028093C5029093C602D6
:1014D0001092CA021092C9020E94FB09BC018EE55B
:1014E00093E00C94C4091F93CF93DF939C01862F44
:1014F000D42F21309FEF3907DCF070E060E0211538
:10150000310581F0C22F132F2F3F310519F014F050
:10151000CFEF10E01216130664F461E00E94CC05D0
:101520006C2F712F8D2FDF91CF911F910C94D706C7
:10153000C1E060E00E94CC05C1956C2F70E0F2CF55
:1015400046E067E00C94730A45E064E00C94730A8B
:101550008093F901682F8DE00C94CC05CF92DF9237
:10156000EF92FF920F931F93CF93DF930E947A071E
:101570000091F5011091F6012091F7013091F801E9
:101580006B017C01C01AD10AE20AF30A97018601B5
:10159000003A164821403105C0F16093F50170937F
:1015A000F6018093F7019093F801C0910001D0916A
:1015B0000101CE01019690930101809300010E94E8
:1015C000D10720915C0230E02F5F3F4FA9014F709F
:1015D000552720915D022417C1F0A0915C02E6E03E
:1015E000EA9FD0011124A450BE4F6D937D938D933B
:1015F0009C93139790915C02E99FF0011124E450B1
:10160000FE4FD583C48340935C02DF91CF911F913D
:101610000F91FF90EF90DF90CF9008958F929F925F
:10162000AF92BF920F931F93CF93DF93CDB7DEB7E7
:10163000A1970FB6F894DEBF0FBECDBF19A24230FE
:1016400008F44AE08E010F5D1F4F842E912CB12CBF
:10165000A12CA50194010E94491BE62FB901CA01E2
:10166000EA3044F5E05DD801EE938D01232B242B65
:10167000252B79F790E080E0109769F0FD0101904B
:101680000020E9F73197AF014A1B5B0BBD0186EEE5
:1016900092E00E94A308A1960FB6F894DEBF0FBE99
:1016A000CDBFDF91CF911F910F91BF90AF909F90D1
:1016B0008F900895E95CD7CF42E050E061E371E09C
:1016C00086EE92E00C94A308CF93DF930E943E092C
:1016D000EC010E945C0B8C0F9D1FDF91CF91089550
:1016E000CF93DF93EC018FEA90E00E943E09CE0198
:1016F000DF91CF910C94640B8CEA90E00C94640B16
:10170000CF93DF934AE00E940E0BEC010E945C0B2A
:101710008C0F9D1FDF91CF910895CF92DF92EF92B2
:10172000FF921F93CF93DF937C01EB01F70191911F
:101730007F011991992381F0112371F0892F90E095
:101740000E94FC1B6C01812F90E00E94FC1BC816BC
:10175000D90661F380E003C081E09113FBCFDF91F4
:10176000CF911F91FF90EF90DF90CF9008951F923F
:101770000F920FB60F9211242F933F938F939F9345
:10178000AF93BF938091D0029091D102A091D202E9
:10179000B091D3023091CF0223E0230F2D3758F5BB
:1017A0000196A11DB11D2093CF028093D00290938A
:1017B000D102A093D202B093D3028091D40290912F
:1017C000D502A091D602B091D7020196A11DB11DFC
:1017D0008093D4029093D502A093D602B093D702FF
:1017E000BF91AF919F918F913F912F910F900FBE1D
:1017F0000F901F90189526E8230F0296A11DB11D8A
:10180000D2CF1F920F920FB60F9211242F933F93B6
:101810004F935F936F937F938F939F93AF93BF93F8
:10182000EF93FF93E0911601F09117010995FF9155
:10183000EF91BF91AF919F918F917F916F915F9148
:101840004F913F912F910F900FBE0F901F901895C1
:101850001F920F920FB60F9211242F933F934F9325
:101860005F936F937F938F939F93AF93BF93EF9308
:10187000FF93E0911401F09115010995FF91EF910B
:10188000BF91AF919F918F917F916F915F914F9198
:101890003F912F910F900FBE0F901F9018951F92A0
:1018A0000F920FB60F9211242F933F934F935F9394
:1018B0006F937F938F939F93AF93BF93EF93FF9318
:1018C000E0911201F09113010995FF91EF91BF9101
:1018D000AF919F918F917F916F915F914F913F91C8
:1018E0002F910F900FBE0F901F9018951F920F927F
:1018F0000FB60F9211242F933F934F935F936F93E3
:101900007F938F939F93AF93BF93EF93FF93E09158
:101910001001F09111010995FF91EF91BF91AF91E5
:101920009F918F917F916F915F914F913F912F91F7
:101930000F900FBE0F901F9018951F920F920FB629
:101940000F9211242F933F934F935F936F937F9345
:101950008F939F93AF93BF93EF93FF93E0910E010B
:10196000F0910F010995FF91EF91BF91AF919F9178
:101970008F917F916F915F914F913F912F910F9038
:101980000FBE0F901F9018951F920F920FB60F92D7
:1019900011248F939F938091E1009091E100937FB8
:1019A0009093E10083FF0FC01092E90091E09093C3
:1019B000EB001092EC0092E39093ED001092E502A0
:1019C00098E09093F00082FF22C093E09093E900AA
:1019D0009091F200992319F09AE39093E800909186
:1019E000F201992341F09091F20191509093F2010C
:1019F000911101C05D9A9091E402992341F0909178
:101A0000E40291509093E402911101C0289A84FF5E
:101A100018C08091E2008E7E81608093E200809108
:101A2000E1008F7E8093E1008091F3018E7E8061E2
:101A30008093F3019F918F910F900FBE0F901F9095
:101A4000189580FFF7CF8091E2008E7E80618093B1
:101A5000E2008091E1008E7E8093E1008091F301AD
:101A60008E7E8160E5CF1F920F920FB60F921124E8
:101A7000CF92DF92EF92FF920F931F932F933F939A
:101A80004F935F936F937F938F939F93AF93BF9386
:101A9000EF93FF93CF93DF93CDB7DEB76C97DEBFA5
:101AA000CDBF1092E9008091E80083FF25C068E077
:101AB000CE0145960E94960882EF8093E8008D89BA
:101AC00087FF39C09091E80090FFFCCF982F907667
:101AD00009F034C19E894F89588D2F89F88C911156
:101AE00031C0803861F58091F4018093F10010924B
:101AF000F1008EEF8093E8006C960FB6F894DEBF8D
:101B00000FBECDBFDF91CF91FF91EF91BF91AF910C
:101B10009F918F917F916F915F914F913F912F9105
:101B20001F910F91FF90EF90DF90CF900F900FBE1D
:101B30000F901F9018959EEF9093E800C7CF1092DA
:101B4000F100D5CF913059F48111D3CF41305105F7
:101B500081F68091F4018D7F8093F401CACF933098
:101B600049F48111C6CF4130510519F68091F40135
:101B70008260F2CF953041F48091E80080FFFCCF85
:101B800020682093E300B5CF963009F0A9C00B8DF3
:101B90001C8D22E01092E9001092F0011092EF01EA
:101BA000F2122EC01092EE011092ED010E94650813
:101BB0001F8299E09983FA8291E09E8390EA988748
:101BC0009AEF99872091EF013091F001275F3F4F05
:101BD0003C832B838D831092E9001092F0011092C8
:101BE000EF011093EE010093ED0149E050E0BE01DA
:101BF0006F5F7F4F80E00E943F080E94650879CFA9
:101C00001093EE010093ED010E94B805DC011296DD
:101C10000D911C910115110509F451C1D801ED91E7
:101C2000FC910480F581E02DBE016B5E7F4FC80101
:101C30000995009709F03EC1F80100851185EACFAA
:101C4000F3E0FF120EC08F89882309F440C0823070
:101C500061F440E860E188E191E00E940C088111A4
:101C600048CF81E28093EB0047CF813029F440E8F0
:101C70006BE08CE091E0F1CF833099F70E94B805DA
:101C8000DC011296ED90FC908E010F5F1F4F6801F2
:101C9000E114F10479F0D701ED91FC910680F78110
:101CA000E02DB801C7010995080F111DF701E08467
:101CB000F184EECFD8011C92F60101900020E9F7E3
:101CC0003197BF016C197D0940E0C601C6CF66EFB0
:101CD00070E0FB01449150E080E80E943F0809CF8A
:101CE000973009F4BECF983021F481E08093F10061
:101CF00000CF993009F0FDCE837009F0B2CFE9E151
:101D0000F1E081E031E096E32191222371F08093AC
:101D1000E9003093EB00DF0111972C912093EC0048
:101D20009093ED008F5F873079F78EE78093EA001C
:101D30001092EA008F898093E502DBCE8B8D9C8D1B
:101D40001092E9001092F0011092EF019093EE01D1
:101D50008093ED01898D811192C08E899D89913A80
:101D600049F4813209F07DCF47E050E066E071E050
:101D700080E0B3CF913209F074CF833269F48F8958
:101D8000988DB0E0A0E08093020190930301A093AE
:101D90000401B0930501ADCE803269F48091E80072
:101DA00082FFFCCF67E086E091E00E9496088BEF0F
:101DB0008093E8009ECE823209F09BCE8F8980937B
:101DC0000D01EEEFFFE7859194918B3F9C4D51F112
:101DD000E0E0F8E08091060190910701A0910801F0
:101DE000B0910901803B9440A105B105F1F48091C7
:101DF0000D0180FD1AC0EE3F8AE0F80789F587E7FC
:101E000097E791838083809160008093F10188E15E
:101E10009BE00FB6F894A895809360000FBE909356
:101E2000600067CEEEEFFAE0D5CF808191818737F1
:101E3000974709F05ECEA8958091600088618093F5
:101E400060008091F10180936000EE3F2AE0F2078C
:101E500089F08091FE0A9091FF0A9183808349CE98
:101E6000808191818737980751F29093FF0A809380
:101E7000FE0AC5CF1092FF0A1092FE0A3ACE0E94C7
:101E8000B805DC0112960D911C910115110509F49C
:101E9000E8CED801ED91FC910190F081E02DBE01DA
:101EA0006B5E7F4FC8010995811123CEF801008533
:101EB0001185EBCF181619060CF41BCED2CEF1E02B
:101EC000FF12BECE6AEF70E004CF1F920F920FB6E2
:101ED0000F9211242F933F934F935F936F937F93B0
:101EE0008F939F93AF93BF93CF93DF93EF93FF9322
:101EF0008091EC01C0915A03D0E087FF24C010927A
:101F00008500109284008091EC018F5F8093EC013A
:101F10008091EC01082E000C990B8C179D0724F47E
:101F20008091EC018C30C4F1809184009091850007
:101F3000049680349C4908F47AC080918400909182
:101F40008500049676C08091EC01082E000C990B58
:101F50008C179D07C4F6E091EC018E2FEE0F990BC4
:101F6000FC01EE0FFF1FE80FF91FEA5CFC4F8081B8
:101F700086FFC9CFE091EC018E2FEE0F990BFC018B
:101F8000EE0FFF1FE80FF91FEA5CFC4F808160E055
:101F90008F730E94CC05B7CF2091840030918500CB
:101FA000E091EC018E2FEE0F990BFC01EE0FFF1F5D
:101FB000E80FF91FEA5CFC4F81819281820F931F29
:101FC0009093890080938800E091EC018E2FEE0FB2
:101FD000990BFC01EE0FFF1FE80FF91FEA5CFC4FA5
:101FE000808186FF11C0E091EC018E2FEE0F990BDE
:101FF000FC01EE0FFF1FE80FF91FEA5CFC4F808128
:1020000061E08F730E94CC05FF91EF91DF91CF913A
:10201000BF91AF919F918F917F916F915F914F9100
:102020003F912F910F900FBE0F901F90189580E455
:102030009CE990938900809388008FEF8093EC0156
:10204000E3CF823108F08251E82FF0E0E15EF54FF6
:10205000E49190917B008E2F880F880F80729F7D76
:10206000892B80937B00E770E064E0937C00809193
:102070007A00806480937A0080917A0086FDFCCF9C
:1020800080917800909179000895AC01092E000CA0
:10209000660B770B40312FEF52076207720744F04F
:1020A000413F5105610571052CF080EF90E002C0C1
:1020B00080E19FEF9093CA028093C9020895AC011A
:1020C000092E000C660B770B40312FEF5207620789
:1020D000720744F0413F5105610571052CF080EF16
:1020E00090E002C080E19FEF9093C8028093C70206
:1020F0000895EF92FF920F931F93CF93DF93E09099
:102100007C00F0907B008EE580937C0080917B00CA
:102110008F7D80937B0062E070E080E090E00E9421
:102120009F0780917A00806480937A0080917A0082
:1021300086FDFCCF8091780020917900322F282FE6
:1021400021153105A1F150E040E064EB7BE281E133
:1021500090E00E94491B8901D42FC52FE0927C009A
:10216000F0927B0061E070E080E090E00E949F07C9
:10217000A8016D2F7C2F4115510581E0680771057D
:1021800020F04FEF5FEF60E070E0CA019A012C5D34
:1021900035402D37354120F45093FB014093FA012F
:1021A000DF91CF911F910F91FF90EF90089500E084
:1021B00010E0D0E0C0E0D2CFAF92BF92CF92DF92DA
:1021C000EF92FF920F931F93CF93DF938B01EA015E
:1021D00092E1B92EB80E60E08B2D0E943D0660E0C2
:1021E0008B2D0E94CC058B2D0E9421108B2D0E94DF
:1021F000211020E1A22EC12CD12C76018B2D0E9422
:102200002110C80ED91EE11CF11CAA94A110F6CF12
:1022100088E0C80ED11CE11CF11CA701960184E0E6
:1022200056954795379527958A95D1F7F8013183CB
:10223000208344275527A091FA01B091FB010E9409
:102240008A1B2FEF33E040E050E00E94491B2883B7
:1022500039834A835B83DF91CF911F910F91FF9068
:10226000EF90DF90CF90BF90AF900895CF93DF9322
:10227000BC0190E080E04AE00E940E0BEC010E945D
:102280005C0B8C0F9D1FDF91CF910895EF92FF9211
:102290000F931F93CF93DF9300D0CDB7DEB77C01B0
:1022A0008B011A8219824AE050E0BE016F5F7F4FB6
:1022B0000E94161A29813A812E153F0569F4F8010A
:1022C000108290E080E00F900F90DF91CF911F91EE
:1022D0000F91FF90EF90089521E0F80120836115A0
:1022E000F0E87F07FFEF8F079F076CF0DC01CB0161
:1022F000811520E89207A105B1052CF38FEF9FE728
:10230000A0E0B0E0E0CF80E090E8DDCF1092E902FD
:102310001092E80288EE93E0A0E0B0E08093EA0239
:102320009093EB02A093EC02B093ED0283E291E074
:102330009093E7028093E6028FEF9FEF9093F30272
:102340008093F20280915A038C3048F591E0980F07
:1023500090935A0380935E0390E0FC01EE0FFF1F01
:10236000E80FF91FEA5CFC4F88EB9BE092838183C6
:1023700080915A038C30B8F491E0980F90935A03EF
:1023800080935B0390E0FC01EE0FFF1FE80FF91F45
:10239000EA5CFC4F88EB9BE09283818308958FEF8A
:1023A00080935E03E5CF8FEF80935B030895CF9317
:1023B000DF9300D000D000D01F92CDB7DEB7789465
:1023C00084B5826084BD84B5816084BD85B582603A
:1023D00085BD85B5816085BD80916E0081608093EB
:1023E0006E00109281008091810082608093810054
:1023F0008091810081608093810080918000816064
:102400008093800080919100826080939100809100
:102410009100816080939100809190008160809311
:1024200090008091C10084608093C1008091C100C0
:1024300082608093C1008091C10081608093C1005F
:102440008091C30081608093C3008091C00082604E
:102450008093C0008091C20081608093C20080910F
:102460007A00846080937A0080917A008260809301
:102470007A0080917A00816080937A0080917A005E
:10248000806880937A001092E5021092F401109215
:10249000F3018091D70081608093D70080EA809318
:1024A000D80089B5806189BD89B5826089BD09B4CC
:1024B00000FEFDCF61E070E080E090E00E949F07A9
:1024C0008091D8008F7C80618093D8008091E0005B
:1024D000807F8093E0008091E1008E7E8093E10018
:1024E0008DE08093E200559A209A61E084E00E949A
:1024F0003D0661E087E00E943D0661E085E00E94C4
:102500003D0661E086E00E943D0690E080E00E948A
:10251000A40A90E080E00E94A00A69E070E08EE5E5
:1025200093E00E9479066AE070E08BE593E00E94F8
:1025300079061092CA021092C9021092C802109233
:10254000C7020E94D1076093CB027093CC028093A4
:10255000CD029093CE028AE590E00E944A0A8AE575
:1025600090E00E941E0A61E08DE00E943D0680E03E
:102570000E94A80A82E394E19093FB018093FA0100
:1025800012E160E0812F0E943D0660E0812F0E94F1
:10259000CC051F5F1831A9F710925C0210925D0202
:1025A0001092F5011092F6011092F7011092F801C5
:1025B00061E08BE00E943D0660E08BE00E94CC056C
:1025C00062E083E00E943D068EEA9AE090930F015C
:1025D00080930E01809169008C7F826080936900F6
:1025E000E89A1092BE028FEF9FEF9093F3028093D0
:1025F000F2028AE090E0A0E0B0E08093EA029093DB
:10260000EB02A093EC02B093ED0289E291E00E940C
:10261000640B58EE852E53E0952EA12CB12C6FE261
:10262000262E312C70E4472E72E4572E7FE0672E61
:10263000712C86EE92E00E94AA09181619060CF079
:1026400002C686EE92E00E9468098D3091F3E09117
:10265000BE028A3009F0BBC5E03650F5F0E0E25A20
:10266000FD4F10822EE532E08901F90180812F5F54
:102670003F4F8032C9F38930B9F3882309F42FC260
:1026800060E270E0C8010E94041C7C01009721F008
:10269000FC01108201967C0164E371E0C8010E9494
:1026A0008D0B882341F086E09AE00E94640B17C2EC
:1026B0001092BD02D7CF69E371E0C8010E940F1CE0
:1026C000892B79F06BE371E0C8010E948D0B8111B9
:1026D00008C060E471E0C8010E948D0B882309F4F2
:1026E0008FC08FEC98E00E94640B85EA98E00E940E
:1026F000640B8DE798E00E94640B81E598E00E94EE
:10270000640B8CE198E00E94640B85EE97E00E94D8
:10271000640B88E997E00E94640B86E697E00E94CC
:10272000640B84E397E00E94640B82EF96E00E94C2
:10273000640B82EB96E00E94640B8BE896E00E94AB
:10274000640B86E496E00E94640B89E296E00E94A6
:10275000640B8DE096E00E94640B83EF95E00E948D
:10276000640B85E995E00E94640B86E495E00E9485
:10277000640B8CEF94E00E94640B84EB94E00E9465
:10278000640B83E894E00E94640B84E494E00E946C
:10279000640B84E094E00E94640B86ED93E00E9459
:1027A000640B8CE993E00E94640B81E693E00E9445
:1027B000640B84E493E00E94640B82E193E00E9446
:1027C000640B83EB92E00E94640B84E892E00E9429
:1027D000640B85E392E00E94640B8DED91E00E9412
:1027E000640B84E891E00E94640B8FE591E00E9405
:1027F000640B80E491E00E94640B0E947C0B6FC12B
:1028000062E471E0C8010E948D0B882349F08CEDD1
:1028100090E00E94A40A8CED90E00E94A00AEDCF07
:1028200065E471E0C8010E948D0B882339F084E2D1
:102830009FEF0E94A40A84E29FEFEFCF68E471E06B
:10284000C8010E948D0B882339F090E080E00E943F
:10285000A40A90E080E0E1CF6BE471E0C8010E943F
:102860008D0B811128C06EE471E0C8010E948D0BB0
:10287000811121C061E571E0C8010E948D0B8111B9
:102880002EC066E571E0C8010E948D0B882309F413
:1028900058C081EF99E0E114F10479F11982BE0189
:1028A0006F5F7F4FC7010E9446112981211146C0E9
:1028B0008AEE99E022C06EE471E0C8010E948D0B9F
:1028C000882341F088EC90E008E31FEF0E94A40AFF
:1028D000C801A3CF88E39FEF08EC10E0F7CF82E0B8
:1028E0009AE0E114F10449F060E270E0C7010E944F
:1028F000041C009729F48EEF99E00E94700BEFC042
:10290000FC0111928F011D821982BE016B5F7F4F06
:10291000C7010E9446117C01BE016F5F7F4FC80155
:102920000E9446118C018D81882319F089818111C3
:1029300003C085EF99E0E1CFC701C8CF0E94A40A88
:102940005CCF69E571E0C8010E948D0B882391F08E
:1029500086EE99E0E114F10481F21982BE016F5F05
:102960007F4FC7010E9446112981211156CF8FED5B
:1029700099E0C3CF6CE571E0C8010E948D0B8823FC
:1029800081F18BED99E0E114F10409F4B6CF1982DD
:10299000BE016F5F7F4FC7010E944611998191115F
:1029A00003C084ED99E0A9CF853B08F084EB282F84
:1029B00030E0A8EEB3E00E94D41B6093C302709392
:1029C000C4028093C5029093C6021092CA0210926C
:1029D000C9020E94FB09BC018EE593E00E94C40974
:1029E0000CCF6FE571E0C8010E948D0B882371F157
:1029F00080ED99E0E114F10409F47FCF1982BE0162
:102A00006F5F7F4FC7010E9446119981911103C0EA
:102A100089EC99E072CF853B08F084EB282F30E0F9
:102A2000A8EEB3E00E94D41B6093BF027093C00273
:102A30008093C1029093C2021092C8021092C70202
:102A40000E94FB09BC018BE593E0C8CF62E671E010
:102A5000C8010E948D0B882349F08AE590E00E940E
:102A60004A0A8AE590E00E941E0AC7CE67E671E036
:102A7000C8010E948D0B8823A9F180EC99E00E9487
:102A80003E096091C3027091C4028091C502909189
:102A9000C602A50194010E946B1BCA01B9017727E8
:102AA000882799274AE00E940E0B89EB99E00E9443
:102AB0003E096091BF027091C0028091C102909165
:102AC000C202A50194010E946B1BCA01B9017727BC
:102AD000882799274AE00E940E0B0E945C0B1092F7
:102AE000BE02A7CD6BE671E0C8010E948D0B882362
:102AF00099F085EB99E0E114F10409F4FECE198216
:102B0000BE016F5F7F4FC7010E94461129812111CD
:102B10009DC18DEA99E0F1CE6FE671E0C8010E9497
:102B20008D0B882399F089EA99E0E114F10409F406
:102B3000E4CE1982BE016F5F7F4FC7010E9446112C
:102B40002981211190CF80EA99E0D7CE64E771E026
:102B5000C8010E948D0B882389F18CE999E0E1146A
:102B6000F10409F4CACE60E270E0C7010E94041CBF
:102B7000009719F488E999E0C0CEFC0111928F0109
:102B80001D821982BE016B5F7F4FC7010E944611F3
:102B90007C01BE016F5F7F4FC8010E9446118C010E
:102BA0008D81882319F08981811103C08DE899E016
:102BB000A4CEC7010E944A0AC80155CF6BE771E055
:102BC000C8010E948D0B882399F089E899E0E114EF
:102BD000F10409F492CE1982BE016F5F7F4FC701E5
:102BE0000E94461129812111EAC080E899E085CE32
:102BF00060E871E0C8010E948D0B882399F08CE792
:102C000099E0E114F10409F478CE1982BE016F5FF6
:102C10007F4FC7010E944611298121113AC082E7E6
:102C200099E06BCE66E871E0C8010E948D0B8823A5
:102C300099F18EE699E0E114F10409F45ECE60E2C8
:102C400070E0C7010E94041C009719F48AE699E01D
:102C500054CEFC0111928F011D821982BE016B5F5F
:102C60007F4FC7010E9446117C01BE016F5F7F4FFD
:102C7000C8010E9446118C018D81882319F0898139
:102C8000811103C08EE599E038CEC7010E9445103E
:102C9000C8010E945F10B1CD6EE871E0C8010E94CA
:102CA0008D0B811143C264E971E0C8010E948D0B54
:102CB00081113CC267E971E0C8010E948D0B81114E
:102CC0005CC06AE971E0C8010E948D0B811155C09A
:102CD0006AEA71E0C8010E948D0B81114EC060EB61
:102CE00071E0C8010E948D0B811147C06DE971E050
:102CF000C8010E948D0B81117CC062EA71E0C8019D
:102D00000E948D0B811175C067EA71E0C8010E94B5
:102D10008D0B81116EC06DEA71E0C8010E948D0BB0
:102D2000811167C063EB71E0C8010E948D0B88239D
:102D300009F4C1C00E94D1076B017C01F2E1CF0E02
:102D4000D11CE11CF11C0E94D1076C197D098E0970
:102D50009F0997FF52CD16E061E08BE00E94CC0501
:102D6000C1010197F1F760E08BE00E94CC05C10141
:102D70000197F1F7115081F7E6CFE114F10489F0E2
:102D80001982BE016F5F7F4FC7010E9446117C010F
:102D90008981882319F01E141F0434F085E599E019
:102DA000ACCD4AE5E42EF12C67E971E0C8010E9440
:102DB0008D0B882339F0882799278E199F090E9447
:102DC00045101BCD6AE971E0C8010E948D0B882374
:102DD00011F0C701F4CF6AEA71E0C8010E948D0BBF
:102DE000882311F0C70155CF882799278E199F098D
:102DF00050CFE114F10489F01982BE016F5F7F4F5B
:102E0000C7010E9446117C018981882319F01E1494
:102E10001F0434F08CE499E070CD35E0E32EF12C02
:102E20006DE971E0C8010E948D0B882391F06091DB
:102E3000C3027091C4028091C5029091C602A5019F
:102E400094010E946B1BC9018E199F090E944A0AB6
:102E5000D4CC62EA71E0C8010E948D0B882381F016
:102E60006091C3027091C4028091C5029091C60224
:102E7000A50194010E946B1BC701820F931FE6CF2F
:102E800067EA71E0C8010E948D0B182F6091BF02A4
:102E90007091C0028091C1029091C202A50194017B
:102EA0000E946B1BC901112319F08E0D9F1DDBCDF4
:102EB0008E199F09D8CD68EB71E0C8010E948D0B77
:102EC000811138CFF80180818F7D8134E9F56181EE
:102ED00020EDD22ED60EF9E0FD15B0F1F801828179
:102EE000811132C0F5E085E499E0FD1508F405CDC7
:102EF000AE014F5F5F4FBE016B5F7F4F8D2D0E9414
:102F0000DC1083E499E00E943E096D2D70E090E0B2
:102F100080E04AE00E940E0B60E286EE92E00E94A2
:102F200028096D817E8190E080E04AE00E940E0BCE
:102F300060E286EE92E00E94280969817A818B81A5
:102F40009C810E94800BCBCD6BEB71E0C8010E948D
:102F50008D0B882349F18FE399E0E114F10409F422
:102F6000CCCC1F82BE01695F7F4FC7010E94461112
:102F70008C018F81882319F00630110518F088E341
:102F800099E0BBCCAE014F5F5F4FBE016B5F7F4FDF
:102F9000802F0E94DC1086E399E00E943E09B80170
:102FA000110F880B990BB5CF6DEB71E0C8010E9432
:102FB0008D0B8823B9F1AE014F5F5F4FBE016B5F90
:102FC0007F4F81E00E94DC1029813A814B815C8136
:102FD000A8EABEED0E948A1B68577C4E8F4F9F4F18
:102FE00020E137E240E050E00E94491B60E579E6CD
:102FF0008FE090E00E94391B6B017C0120E2C20E41
:1030000021EAD21E27E0E21EF11C80E399E00E9433
:103010003E09C701B601A30192010E94491BCA01E2
:10302000B90177CF62EC71E0C8010E948D0B882353
:1030300059F00E9479108C018BE299E00E943E09C0
:10304000C8010E9436114BCD66EC71E0C8010E94A8
:103050008D0B882391F185E299E0E114F10431F1BF
:103060006BEC71E0C7010E948D0B882331F00E9448
:1030700079108C018FE199E0E1CF1982BE016F5F79
:103080007F4FC7010E9446112981222331F09C0104
:10309000245F31402536394118F086E199E02DCC86
:1030A0009093FB018093FA0180E199E00E943E0930
:1030B0008091FA019091FB01C4CF60ED71E0C801ED
:1030C0000E948D0B882321F081E00E94A80A95CBF5
:1030D00064ED71E0C8010E948D0B882311F080E03F
:1030E000F4CF69ED71E0C8010E948D0B811127C0FA
:1030F0006DED71E0C8010E948D0B811120C065EE5D
:1031000071E0C8010E948D0B81111EC06FE871E053
:10311000C8010E948D0B882309F456C090E080E01E
:103120000E94A40A90E080E00E94A00A1092CA02C5
:103130001092C9021092C8021092C7025ECB909101
:10314000F90181E08927C1CFE114F10471F48BE02A
:1031500099E00E943E098091F901882319F088E0E6
:1031600099E0A3CA84E099E0A0CA61ED71E0C701CB
:103170000E948D0B8111A8CF67E571E0C7010E9405
:103180000F1C892B09F4A0CF65ED71E0C7010E94E7
:103190008D0B8111A4CF69EE71E0C7010E940F1C55
:1031A000892B09F49CCF60EC71E0C7010E948D0B64
:1031B0008111C5CF6EED71E0C7010E948D0B8111A9
:1031C000BECF8CEF98E099CB84EF98E096CBEF35AB
:1031D00048F491E09E0F9093BE02F0E0E25AFD4F5A
:1031E000808327CA1092BE0286E19AE00E94700B8B
:1031F00020CAE0915D0286E0E89FF0011124E450CE
:10320000FE4FC080D180E280F380048115818091DF
:103210005D0290E001968F70992780935D0278940B
:103220008DE09AE00E943E09B80190E080E04AE01B
:103230000E940E0B60E286EE92E00E942809C70110
:10324000B6010E94800BF89490915D0280915C021F
:103250009813CFCF78940E94D1070091CB021091A0
:10326000CC022091CD023091CE026B017C01C01ABC
:10327000D10AE20AF30A6093CB027093CC028093E6
:10328000CD029093CE02A091C902B091CA021097CC
:1032900079F1C114D104E104F10489F145E6C416C1
:1032A000D104E104F10428F084E6C82ED12CE12CED
:1032B000F12CA70196010E94951B0091C302109169
:1032C000C4022091C5023091C602060F171F281FA5
:1032D000391F37FF1CC01092C3021092C402109213
:1032E000C5021092C6021092CA021092C9021FC0F3
:1032F0008091C7029091C802892B09F084C080E0B8
:1033000090E0892B09F495C90E94000092C901320E
:103310009FEB190792E0290731050CF05AC0009382
:10332000C3021093C4022093C5023093C602609179
:10333000C3027091C4028091C5029091C6020E949E
:10334000FB09BC018EE593E00E94C409A091C7026D
:10335000B091C802109799F2A70196010E94951B9F
:103360000091BF021091C0022091C1023091C202AF
:10337000060F171F281F391F80E395E7A0E0B0E074
:103380000033E5E71E072105310584F180EF99E45C
:10339000A2E0B0E0013FF9E41F07F2E02F0731059A
:1033A0002CF50093BF021093C0022093C10230930A
:1033B000C2026091BF027091C0028091C1029091DF
:1033C000C2020E94FB09BC018BE593E00E94C40984
:1033D00096CF80E29FEBA2E0B0E08093C30290938F
:1033E000C402A093C502B093C6027DCF8093BF02F2
:1033F0009093C002A093C102B093C2021092C8027F
:103400001092C702D6CFC114D104E104F10409F42B
:1034100076CF25E6C216D104E104F10408F496CF74
:1034200094E6C92ED12CE12CF12C90CFB0E0A0E095
:10343000ECE1FAE10C949E1B5C016B017A016115D1
:10344000710519F0FB0191838083E114F10451F0BF
:10345000C7010297839730F040E030E020E090E031
:1034600072C05E01E5012196F5011081812F90E087
:103470000E942D1B892BA9F71D3201F52196F5011C
:10348000118101E0E114F10409F4DAC0F0E1EF1672
:10349000F10409F082C0103359F488818F7D88359A
:1034A00009F076C0198122960260F0E1EF2EF12C2E
:1034B000812C912CA12C88E0B82E8CC01B3221F4D9
:1034C000E5012296F501118100E0DCCFEAE0EE167D
:1034D000F10409F4BBC0F0E1EF16F10409F06DC08E
:1034E000E7CF78E0E72EF12C812C912CA12C60E124
:1034F000B62E70C03FE9310F3A3128F439EA332E45
:1035000080C021E09AC0302F3170C114D10431F055
:10351000222309F12197F601D183C08327FF21C01F
:1035200060E070E080E090E8311104C06FEF7FEF61
:103530008FEF9FE722E230E0309362032093610334
:10354000462F372F282F642F732F822FCDB7DEB74A
:10355000E1E10C94BA1B01FF04C02297F601D1836C
:10356000C083332341F090958095709561957F4F8E
:103570008F4F9F4FE5CF97FFE3CF82E290E090938C
:103580006203809361036FEF7FEF8FEF9FE7D8CFE8
:1035900010E3E114F10409F4A4CF28E0E216F104E9
:1035A00009F4A2CF0CF092CF812C912CA12CE0E455
:1035B000BE2E82E0E816F10469F060E070E080E081
:1035C00090E897010F2C000C440B550B0E94491BEF
:1035D00049015A0120E060E070E0CB0127010F2C87
:1035E000000C66087708FE0150ED352E310E39E0EB
:1035F000331540F43FEB310F3A3108F07BCF49EC03
:10360000342E310E3E141F040CF07DCF27FD15C063
:1036100086169706A806B90678F0A30192010E94C3
:10362000391B630D711D811D911D6130710581056F
:1036300020E8920708F465CF2FEF21961081D3CFB1
:10364000103309F42ACF2AE0E22EF12C9CEC892ECB
:10365000982CA82C9CE0B92EBDCF91110C94361B50
:10366000803219F089508550C8F708959927882726
:103670000895DB018F939F930E948A1BBF91AF91A6
:10368000A29F800D911DA39F900DB29F900D1124BC
:103690000895A1E21A2EAA1BBB1BFD010DC0AA1F93
:1036A000BB1FEE1FFF1FA217B307E407F50720F0AB
:1036B000A21BB30BE40BF50B661F771F881F991F26
:1036C0001A9469F760957095809590959B01AC016F
:1036D000BD01CF010895052E97FB1EF400940E94B2
:1036E000821B57FD07D00E94491B07FC03D04EF4F4
:1036F0000C94821B50954095309521953F4F4F4F2C
:103700005F4F089590958095709561957F4F8F4F8D
:103710009F4F08950E94D41BA59F900DB49F900DBC
:10372000A49F800D911D11240895B7FF0C948A1B4E
:103730000E948A1B821B930B08952F923F924F92F7
:103740005F926F927F928F929F92AF92BF92CF9231
:10375000DF92EF92FF920F931F93CF93DF93CDB73A
:10376000DEB7CA1BDB0B0FB6F894DEBF0FBECDBFB2
:1037700009942A88398848885F846E847D848C8483
:103780009B84AA84B984C884DF80EE80FD800C818C
:103790001B81AA81B981CE0FD11D0FB6F894DEBF6F
:1037A0000FBECDBFED010895A29FB001B39FC00130
:1037B000A39F700D811D1124911DB29F700D811D5D
:1037C0001124911D0895991B79E004C0991F961743
:1037D00008F0961B881F7A95C9F780950895EE0F1B
:1037E000FF1F0590F491E02D09940E94D41BB7FFB0
:1037F0000895821B930B08959111089581548A5165
:1038000008F4805E855A0895FC018191861721F0A5
:103810008823D9F7992708953197CF010895FB019F
:10382000DC018D91019080190110D9F3990B089555
:04383000F894FFCF3A
:103834000100FFFFFFFF00E1000000000000DD07C2
:10384400DD07DD07DD07DD0700C180810000000022
:103854000000002809A30864095909AA096809860F
:10386400090D0A0050494E47003F0048454C50009E
:1038740048004D46004D42004D5300544C005452F4
:103884000054414E4B004D31004D32005331005332
:103894003200484F4D4500504F530050414E0054A4
:1038A400494C54005455525245540050414E560010
:1038B40054494C545600545552524554560054538E
:1038C400544F5000545300504C0050520050414E3D
:1038D4004C0050414E520054494C54550054494CEC
:1038E4005444004649524500495200410056424161
:1038F40054005643430056524546004155544F0028
:103904004C4F4E004C4F4646004C5447004C544FCD
:0C39140047474C45004C45440030000083
:00000001FF
