:100000000C9498040C94AC0B0C94850B0C945E0B24
:100010000C94370B0C94C0040C94C0040C94100B7B
:100020000C94C0040C94C0040C94D30B0C94420C9C
:100030000C94C0040C94C0040C94C0040C94C00430
:100040000C94C0040C94740E0C94C0040C94C00462
:100050000C94C0040C94C0040C94C0040C94C60A04
:100060000C94C0040C94C0040C94C0040C94C00400
:100070000C94C0040C94C0040C94C0040C94C004F0
:100080000C94C0040C94C0040C94C0040C94C004E0
:100090000C94C0040C94C0040C94C0040C94C004D0
:1000A0000C94C0040C94C0040C94C0044F4B004545
:1000B00052522000080B0002020200000904000056
:1000C00001020200000524001001052401010104C1
:1000D00024020605240600010705810310004009DB
:1000E000040100020A0000000705020240000007A8
:1000F0000583024000000403090412010002EF021C
:100100000140412336800001010203014172647500
:10011000696E6F204C4C430041726475696E6F20AC
:100120004C656F6E6172646F00424F4F5420524FA6
:100130004D454F5F5553425F50524F544F20310051
:100140003F2020202020202020D18DD182D0B0201F
:10015000D181D0BFD180D0B0D0B2D0BAD0B0005011
:10016000494E472020202020D0BFD180D0BED0B221
:10017000D0B5D180D0BAD0B020D181D0B2D18FD07B
:10018000B7D0B8004C4544204F4E7C4F46467C5477
:10019000202020D182D0BE20D0B6D0B52C20D18056
:1001A000D0B0D0B7D0B2D191D180D0BDD183D182DF
:1001B000D0BE3B204C454420D0B1D0B5D0B720D0E4
:1001C000B0D180D0B3D183D0BCD0B5D0BDD182D096
:1001D000B020E2809420D181D182D0B0D182D1836D
:1001E000D181004C4F4E2F4C4F46462F4C54472048
:1001F00020D0B1D0BED180D182D0BED0B2D0BED0BE
:10020000B920D181D0B2D0B5D182D0BED0B4D0B8CF
:10021000D0BED0B400464952452F49522020D09834
:10022000D09A2DD0B8D0BCD0BFD183D0BBD18CD187
:1002300081005332206E2020202020D181D0B5D1E2
:1002400080D0B2D0BE2032202854494C54292C20D2
:10025000302E2E31383020D0B1D0B5D0B720D0BB21
:10026000D0B8D0BCD0B8D182D0BED0B200533120EB
:100270006E2020202020D181D0B5D180D0B2D0BE38
:100280002031202850414E292C20302E2E3138305C
:1002900020D0B1D0B5D0B720D0BBD0B8D0BCD0B86A
:1002A000D182D0BED0B200504F5320202020202039
:1002B000D182D0B5D0BAD183D189D0B5D0B53A20CA
:1002C000504F532050414E203C643E2054494C54E2
:1002D000203C643E00484F4D452020202020D0B1D6
:1002E000D0B0D188D0BDD18F20D0B220D186D0B5AA
:1002F000D0BDD182D1802028D0B3D0B0D181D0B8A8
:10030000D18220D181D0BAD0BED180D0BED181D10E
:1003100082D18C29005453544F5020202020D0BE2D
:10032000D181D182D0B0D0BDD0BED0B2D0B8D18230
:10033000D18C20D0BFD0BBD0B0D0B2D0BDD18BD06B
:10034000B920D185D0BED0B420D0B1D0B0D188D022
:10035000BDD0B800545552524554562070207420D8
:100360002020D0BED0B1D0B520D181D0BAD0BED15E
:1003700080D0BED181D182D0B820D181D180D0B0FF
:10038000D0B7D1830054494C545620762020D0BF9A
:10039000D0BBD0B0D0B2D0BDD18BD0B920D0BDD0E1
:1003A000B0D0BAD0BBD0BED0BD2C207620D0B3D137
:1003B00080D0B0D0B42FD1812028D181D0BE20D020
:1003C000B7D0BDD0B0D0BAD0BED0BC290050414EBD
:1003D000562076202020D0BFD0BBD0B0D0B2D0BD28
:1003E000D18BD0B920D0BFD0BED0B2D0BED180D0BA
:1003F000BED1822C207620D0B3D180D0B0D0B42F03
:10040000D1812028D181D0BE20D0B7D0BDD0B0D0EE
:10041000BAD0BED0BC290054532020202020202058
:1004200020D181D182D0BED0BF20D0BFD0BBD0B030
:10043000D0B2D0BDD0BED0B3D0BE20D185D0BED03A
:10044000B4D0B020D0B1D0B0D188D0BDD0B82028A1
:10045000D181D0B8D0BDD0BED0BDD0B8D0BC205492
:1004600053544F502900504C2F50522F54552F5455
:1004700044205B765D20D0BFD0BBD0B0D0B2D0BD21
:10048000D18BD0B920D185D0BED0B420D0B1D0B0DE
:10049000D188D0BDD0B82028D0BFD0BE20D183D045
:1004A000BCD0BED0BBD187D0B0D0BDD0B8D18E200B
:1004B0006B54757272657444656661756C745261D3
:1004C0007465290054494C5444205B735D20D188E5
:1004D000D0B0D0B320D0B2D0BDD0B8D0B70054493E
:1004E0004C5455205B735D20D188D0B0D0B320D060
:1004F000B2D0B2D0B5D180D1850050414E52205BF0
:10050000735D20D188D0B0D0B320D0B2D0BFD1801D
:10051000D0B0D0B2D0BE0050414E4C205B735D20B5
:10052000D188D0B0D0B320D0B2D0BBD0B5D0B2D06B
:10053000BE202028D0BFD0BE20D183D0BCD0BED01A
:10054000BBD187D0B0D0BDD0B8D18E206B547572DE
:10055000726574537465704465672900545552522E
:100560004554207020742020D0BED0B1D0B020D10E
:1005700083D0B3D0BBD0B020D181D180D0B0D0B7A0
:10058000D1830054494C542064202020D0B1D0B0F5
:10059000D188D0BDD18F3A20D0BDD0B0D0BAD0BB99
:1005A000D0BED0BD2C20D183D0B3D0BED0BB20D103
:1005B0008120D0BBD0B8D0BCD0B8D182D0B0D0BC14
:1005C000D0B80050414E206420202020D0B1D0B0BF
:1005D000D188D0BDD18F3A20D0BFD0BED0B2D0BE4E
:1005E000D180D0BED1822C20D183D0B3D0BED0BB9D
:1005F00020D18120D0BBD0B8D0BCD0B8D182D0B06F
:10060000D0BCD0B8004D32206E2020202020D0BC9D
:10061000D0BED182D0BED18020322C20D181D0BAA0
:10062000D0BED180D0BED181D182D18C202D3235A7
:10063000352E2E323535004D31206E2020202020E1
:10064000D0BCD0BED182D0BED18020312C20D1816F
:10065000D0BAD0BED180D0BED181D182D18C202D54
:100660003235352E2E3235350054414E4B206C201C
:100670007220D0BBD0B5D0B2D0B0D18F20D0B820AE
:10068000D0BFD180D0B0D0B2D0B0D18F20D0B3D134
:1006900083D181D0B5D0BDD0B8D186D0B02C202D9B
:1006A0003235352E2E32353520D0BAD0B0D0B6D036
:1006B000B4D0B0D18F00545220202020202020D14F
:1006C00080D0B0D0B7D0B2D0BED180D0BED1822041
:1006D000D0BDD0B020D0BCD0B5D181D182D0B52092
:1006E000D0B2D0BFD180D0B0D0B2D0BE00544C2058
:1006F000202020202020D180D0B0D0B7D0B2D0BED2
:10070000D180D0BED18220D0BDD0B020D0BCD0B559
:10071000D181D182D0B520D0B2D0BBD0B5D0B2D0AB
:10072000BE004D532F53544F502020D181D182D041
:10073000BED0BF20D0BED0B1D0BED0B8D18520D0E1
:10074000BCD0BED182D0BED180D0BED0B2004D428E
:1007500020202020202020D0BED0B1D0B020D0BC7E
:10076000D0BED182D0BED180D0B020D0BDD0B0D04C
:10077000B7D0B0D0B4004D4620202020202020D07B
:10078000BED0B1D0B020D0BCD0BED182D0BED1803E
:10079000D0B020D0B2D0BFD0B5D180D191D0B400EC
:1007A0003D3D3D20526F6D656F2055534220E280E4
:1007B0009420D0BAD0BED0BCD0B0D0BDD0B4D18BF4
:1007C000203D3D3D00554E4B4E4F574E004C45444D
:1007D0005F56414C004F4646004F4E004C4544206A
:1007E00000535445505F56414C00524154455F56AA
:1007F000414C00545552524554565F56414C0041AD
:100800005247004152470054494C54565F56414CA0
:10081000004152470050414E565F56414C004152F4
:1008200047005455525245545F56414C004152477F
:10083000004152470054494C545F56414C004152CC
:10084000470050414E5F56414C00415247002054F2
:10085000494C542000504F532050414E20005332F9
:100860005F56414C004152470053315F56414C00A6
:10087000415247004D325F56414C00415247004DB6
:10088000315F56414C004152470054414E4B5F5638
:10089000414C004152470041524700504F4E4720C3
:1008A00031004556542048495420004C494E455F7C
:1008B0004F56460000000000240027002A002D00AB
:1008C000300000000000250028002B002E00310021
:1008D00004040404040304050202020204030202E5
:1008E00002020606060606060404020202040404C6
:1008F000080201104080401020408040800802041F
:100900000180402010020110801020404020000093
:10091000000200090F0000030401000C00000000A9
:100920000000000000000000000000000000A40F14
:1009300011241FBECFEFDAE0DEBFCDBF11E0A0E093
:10094000B1E0E2E2F2E302C005900D92A63DB107EC
:10095000D9F723E0A6EDB1E001C01D92AB34B20798
:10096000E1F714E0C8E9D4E004C02197FE010E9439
:10097000E618C739D107C9F70E94F50F0C940F1973
:100980000C940000FC018091CD02882311F13FB747
:10099000F89482E08093E9002091F200822F90E0A9
:1009A0001816190614F481E090E0882339F028988D
:1009B00044E64093CC024091F1004083222339F079
:1009C0002091F200211103C02BE62093E8003FBFE5
:1009D00008958FEF9FEF08952FB7F89483E08093E9
:1009E000E9009091E800892F807295FF04C09091F2
:1009F000F20080E4891B2FBF08958091C402811109
:100A00000DC082E08093C00284E08093C102109206
:100A1000C3021092C20281E08093C40280EC92E093
:100A20000895282F30E0F901E25FF64F9491F90123
:100A3000E151F74F84912053374FF901249122233C
:100A400009F430C09923E9F091509F30D0F4E92F98
:100A5000F0E0E35DFA4F0C94E6185B055F053C059A
:100A600053055705410541054105620568056C05BB
:100A70007005760541057A05909180009F779093E7
:100A80008000E22FF0E0EE0FFF1FEE53F74FA5912D
:100A9000B4919FB7F894EC91611132C080958E2388
:100AA0008C939FBF0895909180009F7DE8CF909197
:100AB0008000977FE4CF94B59F7794BDE2CF94B543
:100AC0009F7DFBCF909190009F7790939000D9CF1E
:100AD000909190009F7DF9CF90919000977FF5CFF6
:100AE0009091C0009F779093C000CBCF9091C000B1
:100AF0009F7DF9CF9091C200977F9093C200C1CFA4
:100B00008E2BCECFCF93DF9390E0FC01E151F74FD6
:100B100024918053974FFC0184918823D1F090E079
:100B2000880F991FFC01EC54F74FA591B491FC017B
:100B3000EE53F74FC591D491623071F49FB7F8949A
:100B40003C91822F809583238C93E8812E2B2883E0
:100B50009FBFDF91CF9108958FB7F894EC912E2B22
:100B60002C938FBFF6CF1F93CF93DF93EC01162FFB
:100B700088818C3008F050C061E0812F0E9482058E
:100B80008881282F30E0F901EE0FFF1FE20FF31FDD
:100B9000E25EFC4F1F736081607C612B60839BE091
:100BA000998397EE9A832CE0622F0E94DA18829F35
:100BB000B001112430E020E0AB01420F531FFA01D5
:100BC000EE0FFF1FE40FF51FE25EFC4F908196FDD4
:100BD00016C02F5F3F4F2C30310571F781110FC0C8
:100BE0001092800082E08093810010928500109224
:100BF0008400B19A80916F00826080936F00E881D9
:100C00008E2F90E0FC01EE0FFF1FE80FF91FE25E50
:100C1000FC4F8081806480838881DF91CF911F9118
:100C200008951F93CF93DF93182FEB0161E00E948B
:100C30008205209739F460E0812FDF91CF911F91D9
:100C40000C941105CF3FD10511F461E0F5CFE12FF0
:100C5000F0E0E25FF64FE491E150EF3008F07FC042
:100C6000F0E0EB5CF94F0C94E61844064C06510694
:100C70005B066506AF06AF06AF066F06790683060C
:100C80008D069A06AF06A20684B5806884BDC7BDEE
:100C9000DF91CF911F91089584B5806284BDC8BD56
:100CA000F7CF80918000806880938000D093890086
:100CB000C0938800EDCF8091800080628093800097
:100CC000D0938B00C0938A00E3CF8091800088602E
:100CD00080938000D0938D00C0938C00D9CF8091F9
:100CE0009000806880939000D0939900C093980002
:100CF000CFCF80919000806280939000D0939B0032
:100D0000C0939A00C5CF8091900088608093900036
:100D1000D0939D00C0939C00BBCF8091C0008068A1
:100D20008093C0008091C0008F7B8093C000C093EF
:100D3000CF00AECF8091C00080628093C000C0938E
:100D4000D000A6CF8091C20088608093C2008091BD
:100D5000C2008B7F8093C200C093D20099CFC0386D
:100D6000D1050CF072CF67CF3FB7F8948091BC02E9
:100D70009091BD02A091BE02B091BF0226B5A89B82
:100D800005C02F3F19F00196A11DB11D3FBFBA2F1D
:100D9000A92F982F8827BC01CD01620F711D811DDD
:100DA000911D42E0660F771F881F991F4A95D1F762
:100DB0000895CF92DF92EF92FF920E94B4066B01EA
:100DC0007C010E94B4066C197D098E099F09683E5A
:100DD000734081059105A8F3FF90EF90DF90CF90CD
:100DE00008952FB7F8946091B8027091B90280917C
:100DF000BA029091BB022FBF089508954091D90186
:100E00005091DA012091D7013091D8014217530750
:100E1000B4F49091E8009570E1F39091E80092FDB0
:100E200019C08093F1008091D9019091DA01019667
:100E30008F739927892B19F48EEF8093E8008091A6
:100E4000D9019091DA0101969093DA018093D9014A
:100E500081E0089580E00895EF92FF920F931F9331
:100E6000CF93DF93F82E192FE62E042F81E0860F03
:100E7000880F0E94FE0683E00E94FE06CF2DD12F30
:100E8000EC0EFD2EF11CCE15DF05B9F007FF13C0E7
:100E9000FE0184910E94FE06182F80E00E94FE064B
:100EA000812321968111EFCFDF91CF911F910F9177
:100EB000FF90EF9008958881EDCF81E0F5CFDF922C
:100EC000EF92FF920F931F93CF93DF93D82E8A0157
:100ED000EB017B01E40EF51ECE15DF0559F0D7FEC0
:100EE00012C0FE0184910E94FE0621968111F4CF6A
:100EF0000FEF1FEFC801DF91CF911F910F91FF906E
:100F0000EF90DF9008958881EECF0F931F93CF93DA
:100F1000DF931F92CDB7DEB782E0898342E450E0D1
:100F200064EB70E080E80E945F070E94FD04DC0132
:100F300012960D911C910115110589F0D801ED91C2
:100F4000FC910280F381E02DBE016F5F7F4FC801ED
:100F5000099597FD04C0F80100851185ECCF8981C2
:100F60000F90DF91CF911F910F910895615030F054
:100F70002091F100FC0120830196F8CF289884E6A7
:100F80008093CC0208958F929F92AF92BF92CF929E
:100F9000DF92EF92FF920F931F93CF93DF936C0139
:100FA0007B018A0180910D01882309F458C080914A
:100FB000CD02882309F453C08091DD0180FF05C074
:100FC0008091E00082608093E000E801B12C8AEF1C
:100FD000A82E93E0892E2AE3922E209711F4BB20AD
:100FE000B9F10E94EC04811106C0AA94AA20B9F1BB
:100FF0000E94D906F2CF8C171D0611F00CF08C2F31
:101000009FB7F8948092E9002091E80025FD02C086
:101010009FBFE3CF282F30E0C21BD30BF7018150D5
:1010200020F041914093F100FACFE20EF31EBB2075
:1010300021F09092E800B12CEBCF8091E80085FD83
:10104000E7CF9092E800BB24B394209709F3F3CF45
:101050005D9884E68093DC01101611063CF081E077
:1010600090E0F6019383828310E000E0C801DF91F5
:10107000CF911F910F91FF90EF90DF90CF90BF9095
:10108000AF909F908F900895CF93DF931F92CDB72D
:10109000DEB76983DC01ED91FC910280F381E02DE4
:1010A00041E050E0BE016F5F7F4F09950F90DF91E7
:1010B000CF9108950F931F93CF93DF938C01D0E0CE
:1010C000C0E0F801EC0FFD1F6491662341F08EEC47
:1010D00092E00E944408892B11F02196F2CFCE01B4
:1010E000DF91CF911F910F91089583E08093E900E4
:1010F0008091F200882319F08AE38093E800089534
:101100000E94EC0490E00895CF93DF931F92CDB737
:10111000DEB7FC018485958597FD08C02FEF3FEF72
:10112000358724870F90DF91CF910895CE010196E6
:101130000E94C204019719F4898190E0F3CF8FEFE8
:101140009FEFF0CF0F931F93CF93DF931F92CDB7F5
:10115000DEB78C01FC018485958597FF0BC0CE011D
:1011600001960E94C204019771F4898190E0F80110
:1011700095878487F801848595850F90DF91CF91BD
:101180001F910F9108958FEF9FEFF1CFFC018485A0
:10119000958597FD0BC09FB7F89482E08093E90096
:1011A0008091F2009FBF90E0019608959FB7F89458
:1011B00082E08093E9008091F2009FBF90E0089563
:1011C000DC01EC91EC3090F511968C91119728E8A8
:1011D00030E0281B310987FD3395220F331F220F82
:1011E000331F6217730784F012968C9128E532E062
:1011F000281B310987FD3395220F331F220F331F20
:10120000621773070CF49B0122503109220F331F20
:101210004FB7F8948E2F90E0FC01EE0FFF1FE80F00
:10122000F91FE25EFC4F328321834FBF0895613284
:101230002FEB720722E08207910524F060E27FEB3A
:1012400082E090E09B01AC0157FF03C020E030E05A
:10125000A901A0EDB7E00E94811820E23FEB42E037
:1012600050E00E944018DA01C9018C509E4FAF4FE8
:10127000BF4F0895AC01092E000C660B770B4E3161
:1012800051056105710544F0473951056105710546
:101290002CF086E990E002C08EE190E028EE33E089
:1012A000DC010E94EC186093A7027093A80280935F
:1012B000A9029093AA021092B0021092AF020E946B
:1012C0001709BC0183E493E00C94E008AC01092EFB
:1012D000000C660B770B77FD08C0453B5105610597
:1012E00071052CF084EB90E002C090E080E028EEE5
:1012F00033E0DC010E94EC186093AB027093AC0207
:101300008093AD029093AE021092B2021092B1029D
:101310000E941709BC0186E493E00C94E0081F9337
:10132000CF93DF939C01862FD42F21309FEF390775
:10133000DCF070E060E02115310581F0C22F132F41
:101340002F3F310519F014F0CFEF10E012161306FD
:1013500064F461E00E9411056C2F712F8D2FDF91D5
:10136000CF911F910C941106C1E060E00E9411051D
:10137000C1956C2F70E0F2CF46E067E00C948F09C6
:1013800045E064E00C948F098093E301682F8DE0C1
:101390000C941105CF92DF92EF92FF920F931F935F
:1013A000CF93DF930E94B4060091DF011091E0011A
:1013B0002091E1013091E2016B017C01C01AD10A58
:1013C000E20AF30A97018601003A164821403105E6
:1013D000C0F16093DF017093E0018093E10190938D
:1013E000E201C0910001D0910101CE0101969093DC
:1013F0000101809300010E94F1062091440230E037
:101400002F5F3F4FA9014F705527209145022417A8
:10141000C1F0A0914402E6E0EA9FD0011124AC5152
:10142000BE4F6D937D938D939C931397909144023F
:10143000E99FF0011124EC51FE4FD583C483409302
:101440004402DF91CF911F910F91FF90EF90DF90B9
:10145000CF9008958F929F92AF92BF920F931F9358
:10146000CF93DF93CDB7DEB7A1970FB6F894DEBF69
:101470000FBECDBF19A2423008F44AE08E010F5DC5
:101480001F4F842E912CB12CA12CA50194010E94F8
:101490004018E62FB901CA01EA3044F5E05DD801F1
:1014A000EE938D01232B242B252B79F790E080E000
:1014B000109769F0FD0101900020E9F73197AF0125
:1014C0004A1B5B0BBD018EEC92E00E94C307A19604
:1014D0000FB6F894DEBF0FBECDBFDF91CF911F9145
:1014E0000F91BF90AF909F908F900895E95CD7CFF8
:1014F00042E050E061E371E08EEC92E00C94C307AF
:10150000CF93DF930E945A08EC010E94780A8C0F57
:101510009D1FDF91CF910895CF93DF93EC018FEA68
:1015200090E00E945A08CE01DF91CF910C94800A7E
:101530008CEA90E00C94800ACF92DF92EF92FF92B7
:101540001F93CF93DF937C01EB01F70191917F0112
:101550001991992381F0112371F0892F90E00E9455
:10156000F3186C01812F90E00E94F318C816D90679
:1015700061F380E003C081E09113FBCFDF91CF9155
:101580001F91FF90EF90DF90CF9008951F920F92E0
:101590000FB60F9211242F933F938F939F93AF9386
:1015A000BF938091B8029091B902A091BA02B09114
:1015B000BB023091B70223E0230F2D3758F5019677
:1015C000A11DB11D2093B7028093B8029093B90278
:1015D000A093BA02B093BB028091BC029091BD026D
:1015E000A091BE02B091BF020196A11DB11D8093D2
:1015F000BC029093BD02A093BE02B093BF02BF9104
:10160000AF919F918F913F912F910F900FBE0F90AF
:101610001F90189526E8230F0296A11DB11DD2CF69
:101620001F920F920FB60F9211242F933F934F9357
:101630005F936F937F938F939F93AF93BF93EF933A
:10164000FF93E0911601F09117010995FF91EF9139
:10165000BF91AF919F918F917F916F915F914F91CA
:101660003F912F910F900FBE0F901F9018951F92D2
:101670000F920FB60F9211242F933F934F935F93C6
:101680006F937F938F939F93AF93BF93EF93FF934A
:10169000E0911401F09115010995FF91EF91BF912F
:1016A000AF919F918F917F916F915F914F913F91FA
:1016B0002F910F900FBE0F901F9018951F920F92B1
:1016C0000FB60F9211242F933F934F935F936F9315
:1016D0007F938F939F93AF93BF93EF93FF93E0918B
:1016E0001201F09113010995FF91EF91BF91AF9114
:1016F0009F918F917F916F915F914F913F912F912A
:101700000F900FBE0F901F9018951F920F920FB65B
:101710000F9211242F933F934F935F936F937F9377
:101720008F939F93AF93BF93EF93FF93E09110013B
:10173000F09111010995FF91EF91BF91AF919F91A8
:101740008F917F916F915F914F913F912F910F906A
:101750000FBE0F901F9018951F920F920FB60F9209
:1017600011242F933F934F935F936F937F938F93A6
:101770009F93AF93BF93EF93FF93E0910E01F0918E
:101780000F010995FF91EF91BF91AF919F918F91BB
:101790007F916F915F914F913F912F910F900FBE6D
:1017A0000F901F9018951F920F920FB60F92112451
:1017B0008F939F938091E1009091E100937F9093AC
:1017C000E10083FF0FC01092E90091E09093EB00DD
:1017D0001092EC0092E39093ED001092CD0298E00D
:1017E0009093F00082FF22C093E09093E9009091E3
:1017F000F200992319F09AE39093E8009091DC01AC
:10180000992341F09091DC0191509093DC0191116A
:1018100001C05D9A9091CC02992341F09091CC0245
:1018200091509093CC02911101C0289A84FF18C066
:101830008091E2008E7E81608093E2008091E100E1
:101840008F7E8093E1008091DD018E7E80618093A8
:10185000DD019F918F910F900FBE0F901F901895F3
:1018600080FFF7CF8091E2008E7E80618093E2005E
:101870008091E1008E7E8093E1008091DD018E7E7B
:101880008160E5CF1F920F920FB60F921124CF9275
:10189000DF92EF92FF920F931F932F933F934F93FB
:1018A0005F936F937F938F939F93AF93BF93EF93C8
:1018B000FF93CF93DF93CDB7DEB76C97DEBFCDBF7D
:1018C0001092E9008091E80083FF25C068E0CE0116
:1018D00045960E94B60782EF8093E8008D8987FFC6
:1018E00039C09091E80090FFFCCF982F907609F0D6
:1018F00034C19E894F89588D2F89F88C911131C040
:10190000803861F58091DE018093F1001092F10042
:101910008EEF8093E8006C960FB6F894DEBF0FBE92
:10192000CDBFDF91CF91FF91EF91BF91AF919F918B
:101930008F917F916F915F914F913F912F911F9167
:101940000F91FF90EF90DF90CF900F900FBE0F9010
:101950001F9018959EEF9093E800C7CF1092F1006A
:10196000D5CF913059F48111D3CF4130510581F653
:101970008091DE018D7F8093DE01CACF933049F4E0
:101980008111C6CF4130510519F68091DE01826088
:10199000F2CF953041F48091E80080FFFCCF2068C1
:1019A0002093E300B5CF963009F0A9C00B8D1C8DB4
:1019B00022E01092E9001092DA011092D901F2129D
:1019C0002EC01092D8011092D7010E9485071F8265
:1019D00099E09983FA8291E09E8390EA98879AEF42
:1019E00099872091D9013091DA01275F3F4F3C83DD
:1019F0002B838D831092E9001092DA011092D901A5
:101A00001093D8010093D70149E050E0BE016F5F09
:101A10007F4F80E00E945F070E94850779CF109377
:101A2000D8010093D7010E94FD04DC0112960D91AC
:101A30001C910115110509F451C1D801ED91FC91DA
:101A40000480F581E02DBE016B5E7F4FC8010995D2
:101A5000009709F03EC1F80100851185EACFF3E057
:101A6000FF120EC08F89882309F440C0823061F4D0
:101A700040E860E188E191E00E942C07811148CFA5
:101A800081E28093EB0047CF813029F440E86BE09E
:101A90008CE091E0F1CF833099F70E94FD04DC01E6
:101AA0001296ED90FC908E010F5F1F4F6801E114BC
:101AB000F10479F0D701ED91FC910680F781E02DDA
:101AC000B801C7010995080F111DF701E084F184E1
:101AD000EECFD8011C92F60101900020E9F7319772
:101AE000BF016C197D0940E0C601C6CF66EF70E00A
:101AF000FB01449150E080E80E945F0709CF9730D6
:101B000009F4BECF983021F481E08093F10000CF3A
:101B1000993009F0FDCE837009F0B2CFE9E1F1E030
:101B200081E031E096E32191222371F08093E90076
:101B30003093EB00DF0111972C912093EC009093F0
:101B4000ED008F5F873079F78EE78093EA0010927F
:101B5000EA008F898093CD02DBCE8B8D9C8D109215
:101B6000E9001092DA011092D9019093D801809384
:101B7000D701898D811192C08E899D89913A49F44E
:101B8000813209F07DCF47E050E066E071E080E00F
:101B9000B3CF913209F074CF833269F48F89988D75
:101BA000B0E0A0E08093020190930301A0930401B0
:101BB000B0930501ADCE803269F48091E80082FFD8
:101BC000FCCF67E086E091E00E94B6078BEF809340
:101BD000E8009ECE823209F09BCE8F8980930D0162
:101BE000EEEFFFE7859194918B3F9C4D51F1E0E042
:101BF000F8E08091060190910701A0910801B09151
:101C00000901803B9440A105B105F1F480910D01DB
:101C100080FD1AC0EE3F8AE0F80789F587E797E76D
:101C200091838083809160008093DB0188E19BE059
:101C30000FB6F894A895809360000FBE9093600053
:101C400067CEEEEFFAE0D5CF808191818737974755
:101C500009F05ECEA8958091600088618093600055
:101C60008091DB0180936000EE3F2AE0F20789F06B
:101C70008091FE0A9091FF0A9183808349CE8081F2
:101C800091818737980751F29093FF0A8093FE0A5B
:101C9000C5CF1092FF0A1092FE0A3ACE0E94FD04B0
:101CA000DC0112960D911C910115110509F4E8CE85
:101CB000D801ED91FC910190F081E02DBE016B5EA9
:101CC0007F4FC8010995811123CEF8010085118548
:101CD000EBCF181619060CF41BCED2CEF1E0FF1292
:101CE000BECE6AEF70E004CF1F920F920FB60F9234
:101CF00011242F933F934F935F936F937F938F9311
:101D00009F93AF93BF93CF93DF93EF93FF93809114
:101D1000D601C0914203D0E087FF24C01092850015
:101D2000109284008091D6018F5F8093D6018091BC
:101D3000D601082E000C990B8C179D0724F4809176
:101D4000D6018C30C4F18091840090918500049676
:101D500080349C4908F47AC0809184009091850079
:101D6000049676C08091D601082E000C990B8C1732
:101D70009D07C4F6E091D6018E2FEE0F990BFC0162
:101D8000EE0FFF1FE80FF91FE25EFC4F808186FF18
:101D9000C9CFE091D6018E2FEE0F990BFC01EE0F0B
:101DA000FF1FE80FF91FE25EFC4F808160E08F7338
:101DB0000E941105B7CF2091840030918500E091F9
:101DC000D6018E2FEE0F990BFC01EE0FFF1FE80FCF
:101DD000F91FE25EFC4F81819281820F931F9093E5
:101DE000890080938800E091D6018E2FEE0F990B29
:101DF000FC01EE0FFF1FE80FF91FE25EFC4F808130
:101E000086FF11C0E091D6018E2FEE0F990BFC01D9
:101E1000EE0FFF1FE80FF91FE25EFC4F808161E0CB
:101E20008F730E941105FF91EF91DF91CF91BF91C8
:101E3000AF919F918F917F916F915F914F913F9162
:101E40002F910F900FBE0F901F90189580E49CE982
:101E500090938900809388008FEF8093D601E3CF21
:101E6000AC01092E000C660B770B40312FEF5207A7
:101E70006207720744F0413F5105610571052CF07E
:101E800080EF90E002C080E19FEF9093B2028093D8
:101E9000B1020895AC01092E000C660B770B40319E
:101EA0002FEF52076207720744F0413F5105610569
:101EB00071052CF080EF90E002C080E19FEF9093DD
:101EC000B0028093AF020895EF92FF920F931F9399
:101ED000CF93DF9300D0CDB7DEB77C018B011A82A0
:101EE00019824AE050E0BE016F5F7F4F0E940D17DC
:101EF00029813A812E153F0569F4F801108290E09E
:101F000080E00F900F90DF91CF911F910F91FF9084
:101F1000EF90089521E0F80120836115F0E87F0734
:101F2000FFEF8F079F076CF0DC01CB01811520E8E4
:101F30009207A105B1052CF38FEF9FE7A0E0B0E079
:101F4000E0CF80E090E8DDCF1092D1021092D00275
:101F500088EE93E0A0E0B0E08093D2029093D302A9
:101F6000A093D402B093D50283E291E09093CF0284
:101F70008093CE028FEF9FEF9093DB028093DA0283
:101F8000809142038C3048F591E0980F9093420382
:101F90008093460390E0FC01EE0FFF1FE80FF91F4E
:101FA000E25EFC4F88EB9BE0928381838091420349
:101FB0008C30B8F491E0980F9093420380934303E0
:101FC00090E0FC01EE0FFF1FE80FF91FE25EFC4FEF
:101FD00088EB9BE09283818308958FEF8093460383
:101FE000E5CF8FEF809343030895CF93DF9300D025
:101FF000CDB7DEB7789484B5826084BD84B5816046
:1020000084BD85B5826085BD85B5816085BD8091C3
:102010006E00816080936E0010928100809181003B
:102020008260809381008091810081608093810033
:102030008091800081608093800080919100826017
:1020400080939100809191008160809391008091B4
:1020500090008160809390008091C10084608093A3
:10206000C1008091C10082608093C1008091C10055
:1020700081608093C1008091C30081608093C30020
:102080008091C00082608093C0008091C200816016
:102090008093C20080917A00846080937A0080915E
:1020A0007A00826080937A0080917A0081608093C8
:1020B0007A0080917A00806880937A001092CD0235
:1020C0001092DE011092DD018091D7008160809333
:1020D000D70080EA8093D80089B5806189BD89B531
:1020E000826089BD09B400FEFDCF0E94D9068091AF
:1020F000D8008F7C80618093D8008091E000807F41
:102100008093E0008091E1008E7E8093E1008DE07D
:102110008093E200559A209A61E084E00E94820553
:1021200061E087E00E94820561E085E00E9482050F
:1021300061E086E00E94820590E080E00E94C00994
:1021400090E080E00E94BC0969E070E086E493E0E2
:102150000E94B3056AE070E083E493E00E94B30557
:102160001092B2021092B1021092B0021092AF021D
:102170000E94F1066093B3027093B4028093B5029B
:102180009093B6028AE590E00E9466098AE590E0A5
:102190000E943A0961E08DE00E94820580E00E9481
:1021A000C40910924402109245021092DF0110926D
:1021B000E0011092E1011092E20161E08BE00E94E7
:1021C000820560E08BE00E94110562E083E00E94DE
:1021D00082058AEC99E090930F0180930E01809123
:1021E00069008C7F826080936900E89A1092A60251
:1021F0008FEF9FEF9093DB028093DA028AE090E00A
:10220000A0E0B0E08093D2029093D302A093D402D6
:10221000B093D50289E291E00E94800A58EE852EA3
:1022200053E0952EA12CB12C6FE2C62ED12C8EEC52
:1022300092E00E94C60846E0F42E181619060CF02B
:10224000F9C48EEC92E00E9484088D3081F3E09115
:10225000A6028A3009F0B0C4E03650F5F0E0EA5B3F
:10226000FD4F108226E432E08901F90180812F5F61
:102270003F4F8032C9F38930B9F3882309F41FC274
:1022800060E270E0C8010E94FB187C01009721F019
:10229000FC01108201967C0164E371E0C8010E9498
:1022A0009C0A882341F08BE998E00E94800A07C2CB
:1022B0001092A502D7CF69E371E0C8010E94061908
:1022C000892B79F06BE371E0C8010E949C0A8111AF
:1022D00008C060E471E0C8010E949C0A882309F4E8
:1022E0007FC080EA97E00E94800A86E797E00E941C
:1022F000800A8EE497E00E94800A82E297E00E94C2
:10230000800A8DEE96E00E94800A86EB96E00E949D
:10231000800A89E696E00E94800A87E396E00E94A0
:10232000800A85E096E00E94800A83EC95E00E9496
:10233000800A83E895E00E94800A8CE595E00E947F
:10234000800A87E195E00E94800A8AEF94E00E946B
:10235000800A8EED94E00E94800A84EC94E00E9452
:10236000800A86E694E00E94800A87E194E00E9459
:10237000800A8DEC93E00E94800A85E893E00E9439
:10238000800A84E593E00E94800A85E193E00E9440
:10239000800A85ED92E00E94800A87EA92E00E941E
:1023A000800A8DE692E00E94800A82E392E00E9419
:1023B000800A85E192E00E94800A83EE91E00E940B
:1023C000800A84E891E00E94800A8FE591E00E94F3
:1023D000800A80E491E00E94800A0E94980A6FC1FE
:1023E00062E471E0C8010E949C0A882349F08CEDE8
:1023F00090E00E94C0098CED90E00E94BC09EDCFF6
:1024000065E471E0C8010E949C0A882339F084E2E7
:102410009FEF0E94C00984E29FEFEFCF68E471E074
:10242000C8010E949C0A882339F090E080E00E9455
:10243000C00990E080E0E1CF6BE471E0C8010E9448
:102440009C0A811128C06EE471E0C8010E949C0AB8
:10245000811121C061E571E0C8010E949C0A8111CF
:102460002EC066E571E0C8010E949C0A882309F429
:1024700058C086E898E0E114F10479F11982BE01B0
:102480006F5F7F4FC7010E94640F2981211146C0F1
:102490008FE798E022C06EE471E0C8010E949C0AB8
:1024A000882341F088EC90E008E31FEF0E94C00908
:1024B000C801A3CF88E39FEF08EC10E0F7CF87E9CE
:1024C00098E0E114F10449F060E270E0C7010E9475
:1024D000FB18009729F483E998E00E948C0AEFC06A
:1024E000FC0111928F011A821982BE016E5F7F4F2B
:1024F000C7010E94640F7C01BE016F5F7F4FC8015E
:102500000E94640F8C018A81882319F089818111CE
:1025100003C08AE898E0E1CFC701C8CF0E94C00994
:102520005CCF69E571E0C8010E949C0A882391F0A4
:102530008BE798E0E114F10481F21982BE016F5F2C
:102540007F4FC7010E94640F2981211156CF84E774
:1025500098E0C3CF6CE571E0C8010E949C0A882313
:1025600081F180E798E0E114F10409F4B6CF198213
:10257000BE016F5F7F4FC7010E94640F9981911167
:1025800003C089E698E0A9CF853B08F084EB282FAB
:1025900030E0A8EEB3E00E94CB186093AB027093DA
:1025A000AC028093AD029093AE021092B2021092F0
:1025B000B1020E941709BC0186E493E00E94E00882
:1025C0000CCF6FE571E0C8010E949C0A882371F16D
:1025D00085E698E0E114F10409F47FCF1982BE0189
:1025E0006F5F7F4FC7010E94640F9981911103C0F3
:1025F0008EE598E072CF853B08F084EB282F30E021
:10260000A8EEB3E00E94CB186093A7027093A802D3
:102610008093A9029093AA021092B0021092AF0286
:102620000E941709BC0183E493E0C8CF62E671E021
:10263000C8010E949C0A882349F08AE590E00E9424
:1026400066098AE590E00E943A09C7CE67E671E024
:10265000C8010E949C0A8823A9F185E598E00E94A0
:102660005A086091AB027091AC028091AD029091DA
:10267000AE02A50194010E946218CA01B901772730
:10268000882799274AE00E942A0A8EE498E00E944F
:102690005A086091A7027091A8028091A9029091B6
:1026A000AA02A50194010E946218CA01B901772704
:1026B000882799274AE00E942A0A0E94780A1092E5
:1026C000A602B5CD6BE671E0C8010E949C0A882382
:1026D00099F08AE498E0E114F10409F4FECE19823D
:1026E000BE016F5F7F4FC7010E94640F29812111D6
:1026F0009DC182E498E0F1CE6FE671E0C8010E94CE
:102700009C0A882399F08EE398E0E114F10409F41F
:10271000E4CE1982BE016F5F7F4FC7010E94640F34
:102720002981211190CF85E398E0D7CE64E771E04D
:10273000C8010E949C0A882389F181E398E0E11492
:10274000F10409F4CACE60E270E0C7010E94FB18F0
:10275000009719F48DE298E0C0CEFC0111928F0130
:102760001A821982BE016E5F7F4FC7010E94640FFB
:102770007C01BE016F5F7F4FC8010E94640F8C0116
:102780008A81882319F08981811103C082E298E04F
:10279000A4CEC7010E946609C80155CF6BE771E05E
:1027A000C8010E949C0A882399F08EE198E0E11408
:1027B000F10409F492CE1982BE016F5F7F4FC70109
:1027C0000E94640F29812111EAC085E198E085CE3D
:1027D00060E871E0C8010E949C0A882399F081E1B9
:1027E00098E0E114F10409F478CE1982BE016F5F1C
:1027F0007F4FC7010E94640F298121113AC087E0F1
:1028000098E06BCE66E871E0C8010E949C0A8823BC
:1028100099F183E098E0E114F10409F45ECE60E2FE
:1028200070E0C7010E94FB18009719F48FEF97E042
:1028300054CEFC0111928F011A821982BE016E5F83
:102840007F4FC7010E94640F7C01BE016F5F7F4F05
:10285000C8010E94640F8C018A81882319F0898144
:10286000811103C083EF97E038CEC7010E94300F7B
:10287000C8010E944A0FB1CD6EE871E0C8010E9404
:102880009C0A811148C164E971E0C8010E949C0A58
:10289000811141C167E971E0C8010E949C0A811160
:1028A0005CC06AE971E0C8010E949C0A811155C0B0
:1028B0006AEA71E0C8010E949C0A81114EC060EB77
:1028C00071E0C8010E949C0A811147C06DE971E066
:1028D000C8010E949C0A81117CC062EA71E0C801B3
:1028E0000E949C0A811175C067EA71E0C8010E94CC
:1028F0009C0A81116EC06DEA71E0C8010E949C0AB9
:10290000811167C063EB71E0C8010E949C0A8823B3
:1029100009F4C1C00E94F1062B013C01F2E14F0E07
:10292000511C611C711C0E94F1066419750986090D
:10293000970997FF52CD16E061E08BE00E941105E8
:10294000C6010197F1F760E08BE00E941105C60116
:102950000197F1F7115081F7E6CFE114F10489F006
:102960001982BE016F5F7F4FC7010E94640F7C0117
:102970008981882319F01E141F0434F08AEE97E031
:10298000ACCD3AE5E32EF12C67E971E0C8010E9475
:102990009C0A882339F0882799278E199F090E945D
:1029A000300F1BCD6AE971E0C8010E949C0A8823A0
:1029B00011F0C701F4CF6AEA71E0C8010E949C0AD5
:1029C000882311F0C70155CF882799278E199F09B1
:1029D00050CFE114F10489F01982BE016F5F7F4F7F
:1029E000C7010E94640F7C018981882319F01E149D
:1029F0001F0434F081EE97E070CD25E0E22EF12C3B
:102A00006DE971E0C8010E949C0A882391F06091F1
:102A1000AB027091AC028091AD029091AE02A50123
:102A200094010E946218C9018E199F090E946609CB
:102A3000D4CC62EA71E0C8010E949C0A882381F02C
:102A40006091AB027091AC028091AD029091AE02A8
:102A5000A50194010E946218C701820F931FE6CF5F
:102A600067EA71E0C8010E949C0A182F6091A702D2
:102A70007091A8028091A9029091AA02A5019401E7
:102A80000E946218C901112319F08E0D9F1DDBCD24
:102A90008E199F09D8CD68EB71E0C8010E949C0A8D
:102AA000811138CF6BEB71E0C8010E949C0A88232A
:102AB00021F081E00E94C40990CC6FEB71E0C80165
:102AC0000E949C0A882311F080E0F4CF64EC71E04E
:102AD000C8010E949C0A811127C068EC71E0C801FE
:102AE0000E949C0A811120C060ED71E0C8010E9423
:102AF0009C0A81111EC06FE871E0C8010E949C0A07
:102B0000882309F456C090E080E00E94C00990E05C
:102B100080E00E94BC091092B2021092B1021092A1
:102B2000B0021092AF0259CC9091E30181E0892765
:102B3000C1CFE114F10471F48CED97E00E945A08C2
:102B40008091E301882319F089ED97E0AECB85ED04
:102B500097E0ABCB6CEB71E0C7010E949C0A81113E
:102B6000A8CF67E571E0C7010E940619892B09F417
:102B7000A0CF60EC71E0C7010E949C0A8111A4CF34
:102B800064ED71E0C7010E940619892B09F49CCFFE
:102B900069E771E0C7010E949C0A8111C5CF69EC09
:102BA00071E0C7010E949C0A8111BECF8DEC97E0B5
:102BB00094CC85EC97E091CCEF3548F491E09E0FF2
:102BC0009093A602F0E0EA5BFD4F808330CB109239
:102BD000A6028BEA98E00E948C0A29CBE09145027C
:102BE000EF9DF0011124EC51FE4F40805180628036
:102BF0007380048115818091450290E001968F7069
:102C0000992780934502789482EA98E00E945A08B6
:102C1000B80190E080E04AE00E942A0A60E28EEC6F
:102C200092E00E9444084AE0C301B2010E942A0ACD
:102C30000E94780AF894909145028091440298137A
:102C4000CDCF78940E94F1060091B3021091B402A6
:102C50002091B5023091B6022B013C01401A510A75
:102C6000620A730A6093B3027093B4028093B50250
:102C70009093B602A091B102B091B202109779F18F
:102C8000411451046104710489F125E6421651048E
:102C90006104710428F084E6482E512C612C712CBB
:102CA000A30192010E948C180091AB021091AC021A
:102CB0002091AD023091AE02060F171F281F391F59
:102CC00037FF1CC01092AB021092AC021092AD0202
:102CD0001092AE021092B2021092B1021FC0809107
:102CE000AF029091B002892B09F084C080E090E09F
:102CF000892B09F49CCA0E94000099CA01328FEB0B
:102D0000180782E0280731050CF044C00093AB029D
:102D10001093AC022093AD023093AE026091AB02EF
:102D20007091AC028091AD029091AE020E941709A1
:102D3000BC0186E493E00E94E008A091AF02B0914C
:102D4000B002109799F2A30192010E948C18009191
:102D5000A7021091A8022091A9023091AA02060FA1
:102D6000171F281F391F003395E719072105310563
:102D7000F4F480E395E7A0E0B0E08093A70290939D
:102D8000A802A093A902B093AA021092B0021092D6
:102D9000AF0220C080E29FEBA2E0B0E08093AB02E4
:102DA0009093AC02A093AD02B093AE0293CF80EFAC
:102DB00099E4A2E0B0E0013FE9E41E07E2E02E075B
:102DC0003105DCF60093A7021093A8022093A90214
:102DD0003093AA026091A7027091A8028091A90283
:102DE0009091AA020E941709BC0183E493E00E941B
:102DF000E0087CCF411451046104710409F476CFDA
:102E0000F5E64F1651046104710408F496CF94E678
:102E1000492E512C612C712C90CFB0E0A0E0E3E161
:102E2000F7E10C9495185C016B017A01611571054D
:102E300019F0FB0191838083E114F10451F0C70183
:102E40000297839730F040E030E020E090E072C0DD
:102E50005E01E5012196F5011081812F90E00E942D
:102E60002418892BA9F71D3201F52196F50111814E
:102E700001E0E114F10409F4DAC0F0E1EF16F10425
:102E800009F082C0103359F488818F7D883509F0AC
:102E900076C0198122960260F0E1EF2EF12C812C90
:102EA000912CA12C88E0B82E8CC01B3221F4E501B6
:102EB0002296F501118100E0DCCFEAE0EE16F10484
:102EC00009F4BBC0F0E1EF16F10409F06DC0E7CFE3
:102ED00078E0E72EF12C812C912CA12C60E1B62E0C
:102EE00070C03FE9310F3A3128F439EA332E80C0FF
:102EF00021E09AC0302F3170C114D10431F0222367
:102F000009F12197F601D183C08327FF21C060E03A
:102F100070E080E090E8311104C06FEF7FEF8FEF39
:102F20009FE722E230E030934A0320934903462F83
:102F3000372F282F642F732F822FCDB7DEB7E1E113
:102F40000C94B11801FF04C02297F601D183C0830D
:102F5000332341F090958095709561957F4F8F4F09
:102F60009F4FE5CF97FFE3CF82E290E090934A0333
:102F7000809349036FEF7FEF8FEF9FE7D8CF10E388
:102F8000E114F10409F4A4CF28E0E216F10409F4F5
:102F9000A2CF0CF092CF812C912CA12CE0E4BE2E7C
:102FA00082E0E816F10469F060E070E080E090E80B
:102FB00097010F2C000C440B550B0E94401849013F
:102FC0005A0120E060E070E0CB0127010F2C000CDB
:102FD00066087708FE0150ED352E310E39E03315C5
:102FE00040F43FEB310F3A3108F07BCF49EC342EFF
:102FF000310E3E141F040CF07DCF27FD15C0861640
:103000009706A806B90678F0A30192010E9430182D
:10301000630D711D811D911D61307105810520E8D1
:10302000920708F465CF2FEF21961081D3CF10338C
:1030300009F42ACF2AE0E22EF12C9CEC892E982C60
:10304000A82C9CE0B92EBDCF91110C942D18803284
:1030500019F089508550C8F7089599278827089551
:10306000DB018F939F930E948118BF91AF91A29F24
:10307000800D911DA39F900DB29F900D1124089576
:10308000A1E21A2EAA1BBB1BFD010DC0AA1FBB1F6C
:10309000EE1FFF1FA217B307E407F50720F0A21BDE
:1030A000B30BE40BF50B661F771F881F991F1A944B
:1030B00069F760957095809590959B01AC01BD0175
:1030C000CF010895052E97FB1EF400940E947918F5
:1030D00057FD07D00E94401807FC03D04EF40C9413
:1030E000791850954095309521953F4F4F4F5F4F40
:1030F000089590958095709561957F4F8F4F9F4F64
:1031000008950E94CB18A59F900DB49F900DA49F89
:10311000800D911D11240895B7FF0C9481180E9411
:103120008118821B930B08952F923F924F925F92CA
:103130006F927F928F929F92AF92BF92CF92DF92C7
:10314000EF92FF920F931F93CF93DF93CDB7DEB72C
:10315000CA1BDB0B0FB6F894DEBF0FBECDBF0994C0
:103160002A88398848885F846E847D848C849B8417
:10317000AA84B984C884DF80EE80FD800C811B8125
:10318000AA81B981CE0FD11D0FB6F894DEBF0FBE54
:10319000CDBFED010895A29FB001B39FC001A39FD1
:1031A000700D811D1124911DB29F700D811D112480
:1031B000911D0895991B79E004C0991F961708F096
:1031C000961B881F7A95C9F780950895EE0FFF1F0B
:1031D0000590F491E02D09940E94CB18B7FF089553
:1031E000821B930B08959111089581548A5108F41C
:1031F000805E855A0895FC018191861721F088230D
:10320000D9F7992708953197CF010895FB01DC0183
:103210008D91019080190110D9F3990B0895F894BC
:02322000FFCFDE
:103222000100FFFFFFFF00E1000000000000FD06BB
:10323200FD06FD06FD06FD0600C1808100000000BE
:103242000000004408C30780087508C6088408A265
:10325200080D0A0050494E47003F0048454C5000B7
:1032620048004D46004D42004D5300544C0054520C
:103272000054414E4B004D31004D3200533100534A
:103282003200484F4D4500504F530050414E0054BC
:10329200494C54005455525245540050414E560028
:1032A20054494C54560054555252455456005453A6
:1032B200544F5000545300504C0050520050414E55
:1032C2004C0050414E520054494C54550054494C04
:1032D20054440046495245004952004C4F4E004C5E
:1032E2004F4646004C5447004C544F47474C45000C
:0632F2004C4544003000D1
:00000001FF
