:100000000C9445040C94530B0C942C0B0C94050B82
:100010000C94DE0A0C946D040C946D040C94B70AD5
:100020000C946D040C946D040C947A0B0C94E90BF5
:100030000C946D040C946D040C946D040C946D047C
:100040000C946D040C941B0E0C946D040C946D04B4
:100050000C946D040C946D040C946D040C946D0A56
:100060000C946D040C946D040C946D040C946D044C
:100070000C946D040C946D040C946D040C946D043C
:100080000C946D040C946D040C946D040C946D042C
:100090000C946D040C946D040C946D040C946D041C
:1000A0000C946D040C946D040C946D044F4B00453E
:1000B00052522000080B0002020200000904000056
:1000C00001020200000524001001052401010104C1
:1000D00024020605240600010705810310004009DB
:1000E000040100020A0000000705020240000007A8
:1000F0000583024000000403090412010002EF021C
:100100000140412336800001010203014172647500
:10011000696E6F204C4C430041726475696E6F20AC
:100120004C656F6E6172646F00424F4F5420524FA6
:100130004D454F5F5553425F50524F544F20310051
:100140003F2020202020202020D18DD182D0B0201F
:10015000D181D0BFD180D0B0D0B2D0BAD0B0005011
:10016000494E472020202020D0BFD180D0BED0B221
:10017000D0B5D180D0BAD0B020D181D0B2D18FD07B
:10018000B7D0B800464952452F49522020D098D0C8
:100190009A2DD0B8D0BCD0BFD183D0BBD18CD18167
:1001A000005332206E2020202020D181D0B5D18074
:1001B000D0B2D0BE2032202854494C54292C2030B3
:1001C0002E2E31383020D0B1D0B5D0B720D0BBD012
:1001D000B8D0BCD0B8D182D0BED0B2005331206EDE
:1001E0002020202020D181D0B5D180D0B2D0BE2017
:1001F00031202850414E292C20302E2E31383020ED
:10020000D0B1D0B5D0B720D0BBD0B8D0BCD0B8D149
:1002100082D0BED0B200504F53202020202020D1C9
:1002200082D0B5D0BAD183D189D0B5D0B53A2050DB
:100230004F532050414E203C643E2054494C5420A2
:100240003C643E00484F4D452020202020D0B1D0B6
:10025000B0D188D0BDD18F20D0B220D186D0B5D03A
:10026000BDD182D1802028D0B3D0B0D181D0B8D137
:100270008220D181D0BAD0BED180D0BED181D182EE
:10028000D18C29005453544F5020202020D0BED16F
:1002900081D182D0B0D0BDD0BED0B2D0B8D182D1C1
:1002A0008C20D0BFD0BBD0B0D0B2D0BDD18BD0B914
:1002B00020D185D0BED0B420D0B1D0B0D188D0BDAF
:1002C000D0B8005455525245545620702074202006
:1002D00020D0BED0B1D0B520D181D0BAD0BED1808F
:1002E000D0BED181D182D0B820D181D180D0B0D040
:1002F000B7D1830054494C545620762020D0BFD02B
:10030000BBD0B0D0B2D0BDD18BD0B920D0BDD0B091
:10031000D0BAD0BBD0BED0BD2C207620D0B3D180F7
:10032000D0B0D0B42FD1812028D181D0BE20D0B779
:10033000D0BDD0B0D0BAD0BED0BC290050414E56AE
:100340002076202020D0BFD0BBD0B0D0B2D0BDD13D
:100350008BD0B920D0BFD0BED0B2D0BED180D0BE5D
:10036000D1822C207620D0B3D180D0B0D0B42FD180
:10037000812028D181D0BE20D0B7D0BDD0B0D0BA96
:10038000D0BED0BC29005453202020202020202083
:10039000D181D182D0BED0BF20D0BFD0BBD0B0D011
:1003A000B2D0BDD0BED0B3D0BE20D185D0BED0B4E7
:1003B000D0B020D0B1D0B0D188D0BDD0B82028D115
:1003C00081D0B8D0BDD0BED0BDD0B8D0BC205453A1
:1003D000544F502900504C2F50522F54552F5444F5
:1003E000205B765D20D0BFD0BBD0B0D0B2D0BDD125
:1003F0008BD0B920D185D0BED0B420D0B1D0B0D16F
:1004000088D0BDD0B82028D0BFD0BE20D183D0BCEA
:10041000D0BED0BBD187D0B0D0BDD0B8D18E206BEC
:1004200054757272657444656661756C745261745A
:1004300065290054494C5444205B735D20D188D019
:10044000B0D0B320D0B2D0BDD0B8D0B70054494C52
:100450005455205B735D20D188D0B0D0B320D0B28A
:10046000D0B2D0B5D180D1850050414E52205B73BF
:100470005D20D188D0B0D0B320D0B2D0BFD180D051
:10048000B0D0B2D0BE0050414E4C205B735D20D145
:1004900088D0B0D0B320D0B2D0BBD0B5D0B2D0BE0F
:1004A000202028D0BFD0BE20D183D0BCD0BED0BBAE
:1004B000D187D0B0D0BDD0B8D18E206B54757272B8
:1004C00065745374657044656729005455525245EC
:1004D00054207020742020D0BED0B1D0B020D18361
:1004E000D0B3D0BBD0B020D181D180D0B0D0B7D1E3
:1004F000830054494C542064202020D0B1D0B0D186
:1005000088D0BDD18F3A20D0BDD0B0D0BAD0BBD02A
:10051000BED0BD2C20D183D0B3D0BED0BB20D181E2
:1005200020D0BBD0B8D0BCD0B8D182D0B0D0BCD055
:10053000B80050414E206420202020D0B1D0B0D14E
:1005400088D0BDD18F3A20D0BFD0BED0B2D0BED1DE
:1005500080D0BED1822C20D183D0B3D0BED0BB20DE
:10056000D18120D0BBD0B8D0BCD0B8D182D0B0D04F
:10057000BCD0B8004D32206E2020202020D0BCD02E
:10058000BED182D0BED18020322C20D181D0BAD031
:10059000BED180D0BED181D182D18C202D323535D3
:1005A0002E2E323535004D31206E2020202020D0D7
:1005B000BCD0BED182D0BED18020312C20D181D000
:1005C000BAD0BED180D0BED181D182D18C202D3283
:1005D00035352E2E3235350054414E4B206C20726D
:1005E00020D0BBD0B5D0B2D0B0D18F20D0B820D0E1
:1005F000BFD180D0B0D0B2D0B0D18F20D0B3D18312
:10060000D181D0B5D0BDD0B8D186D0B02C202D327C
:1006100035352E2E32353520D0BAD0B0D0B6D0B444
:10062000D0B0D18F00545220202020202020D18013
:10063000D0B0D0B7D0B2D0BED180D0BED18220D081
:10064000BDD0B020D0BCD0B5D181D182D0B520D022
:10065000B2D0BFD180D0B0D0B2D0BE00544C202098
:100660002020202020D180D0B0D0B7D0B2D0BED1B1
:1006700080D0BED18220D0BDD0B020D0BCD0B5D1EA
:1006800081D182D0B520D0B2D0BBD0B5D0B2D0BE4F
:10069000004D532F53544F502020D181D182D0BED2
:1006A000D0BF20D0BED0B1D0BED0B8D18520D0BC74
:1006B000D0BED182D0BED180D0BED0B2004D4220BB
:1006C000202020202020D0BED0B1D0B020D0BCD05F
:1006D000BED182D0BED180D0B020D0BDD0B0D0B7F6
:1006E000D0B0D0B4004D4620202020202020D0BE05
:1006F000D0B1D0B020D0BCD0BED182D0BED180D0BD
:10070000B020D0B2D0BFD0B5D180D191D0B4003D0F
:100710003D3D20526F6D656F2055534220E280941D
:1007200020D0BAD0BED0BCD0B0D0BDD0B4D18B20F8
:100730003D3D3D00554E4B4E4F574E005354455096
:100740005F56414C00524154455F56414C00545550
:1007500052524554565F56414C0041524700415257
:10076000470054494C54565F56414C004152470093
:1007700050414E565F56414C00415247005455522D
:100780005245545F56414C00415247004152470088
:1007900054494C545F56414C004152470050414E21
:1007A0005F56414C00415247002054494C542000B0
:1007B000504F532050414E200053325F56414C0061
:1007C0004152470053315F56414C00415247004D62
:1007D000325F56414C00415247004D315F56414C0B
:1007E000004152470054414E4B5F56414C0041522C
:1007F000470041524700504F4E4720310045565464
:100800002048495420004C494E455F4F5646000051
:10081000000000240027002A002D00300000000006
:1008200000250028002B002E0031000404040404DD
:100830000304050202020204030202020206060683
:100840000606060404020202040404080201104021
:100850008040102040804080080204018040201029
:100860000201108010204040200000000200090F0B
:100870000000030401000C00000000000000000064
:1008800000000000000000004B0F11241FBECFEF3E
:10089000DAE0DEBFCDBF11E0A0E0B1E0E2E7F0E3D7
:1008A00002C005900D92AC3BB107D9F723E0ACEB49
:1008B000B1E001C01D92A033B207E1F714E0C5E436
:1008C000D4E004C02197FE010E940E18C434D10761
:1008D000C9F70E949C0F0C9437180C940000FC017F
:1008E0008091B202882311F13FB7F89482E080939F
:1008F000E9002091F200822F90E01816190614F4F6
:1009000081E090E0882339F0289844E64093B102D2
:100910004091F1004083222339F02091F20021110F
:1009200003C02BE62093E8003FBF08958FEF9FEFB1
:1009300008952FB7F89483E08093E9009091E80040
:10094000892F807295FF04C09091F20080E4891B8A
:100950002FBF08958091A90281110DC082E080937C
:10096000A50284E08093A6021092A8021092A7022A
:1009700081E08093A90285EA92E00895282F30E073
:10098000F901E759F74F9491F901E65BF74F84912C
:10099000255D374FF9012491222309F430C09923B2
:1009A000E9F091509F30D0F4E92FF0E0E652FB4F90
:1009B0000C940E1808050C05E90400050405EE0466
:1009C000EE04EE040F05150519051D052305EE04BB
:1009D0002705909180009F7790938000E22FF0E0B0
:1009E000EE0FFF1FE35EF74FA591B4919FB7F89408
:1009F000EC91611132C080958E238C939FBF089536
:100A0000909180009F7DE8CF90918000977FE4CF08
:100A100094B59F7794BDE2CF94B59F7DFBCF909125
:100A200090009F7790939000D9CF909190009F7DF8
:100A3000F9CF90919000977FF5CF9091C0009F776C
:100A40009093C000CBCF9091C0009F7DF9CF909143
:100A5000C200977F9093C200C1CF8E2BCECFCF9391
:100A6000DF9390E0FC01E65BF74F2491855D974FA3
:100A7000FC0184918823D1F090E0880F991FFC013C
:100A8000E15FF74FA591B491FC01E35EF74FC5918B
:100A9000D491623071F49FB7F8943C91822F809585
:100AA00083238C93E8812E2B28839FBFDF91CF91E6
:100AB00008958FB7F894EC912E2B2C938FBFF6CF1F
:100AC0001F93CF93DF93EC01162F88818C3008F0B1
:100AD00050C061E0812F0E942F058881282F30E0CF
:100AE000F901EE0FFF1FE20FF31FED5FFC4F1F73C5
:100AF0006081607C612B60839BE0998397EE9A8391
:100B00002CE0622F0E940218829FB001112430E075
:100B100020E0AB01420F531FFA01EE0FFF1FE40F5D
:100B2000F51FED5FFC4F908196FD16C02F5F3F4F84
:100B30002C30310571F781110FC01092800082E0D6
:100B4000809381001092850010928400B19A809168
:100B50006F00826080936F00E8818E2F90E0FC012F
:100B6000EE0FFF1FE80FF91FED5FFC4F80818064DF
:100B700080838881DF91CF911F9108951F93CF9338
:100B8000DF93182FEB0161E00E942F05209739F4C5
:100B900060E0812FDF91CF911F910C94BE04CF3F75
:100BA000D10511F461E0F5CFE12FF0E0E759F74FFF
:100BB000E491E150EF3008F07FC0F0E0EE51FA4FE1
:100BC0000C940E18F105F905FE05080612065C06E0
:100BD0005C065C061C06260630063A0647065C06DE
:100BE0004F0684B5806884BDC7BDDF91CF911F914A
:100BF000089584B5806284BDC8BDF7CF8091800020
:100C0000806880938000D0938900C0938800EDCFE6
:100C100080918000806280938000D0938B00C0938D
:100C20008A00E3CF80918000886080938000D09319
:100C30008D00C0938C00D9CF809190008068809304
:100C40009000D0939900C0939800CFCF80919000EE
:100C5000806280939000D0939B00C0939A00C5CF90
:100C600080919000886080939000D0939D00C09305
:100C70009C00BBCF8091C00080688093C0008091B1
:100C8000C0008F7B8093C000C093CF00AECF809117
:100C9000C00080628093C000C093D000A6CF809136
:100CA000C20088608093C2008091C2008B7F8093D5
:100CB000C200C093D20099CFC038D1050CF072CFDA
:100CC00067CF3FB7F8948091A1029091A202A091C2
:100CD000A302B091A40226B5A89B05C02F3F19F02E
:100CE0000196A11DB11D3FBFBA2FA92F982F8827AC
:100CF000BC01CD01620F711D811D911D42E0660F87
:100D0000771F881F991F4A95D1F70895CF92DF92D8
:100D1000EF92FF920E9461066B017C010E946106C6
:100D20006C197D098E099F09683E73408105910504
:100D3000A8F3FF90EF90DF90CF9008952FB7F8942D
:100D400060919D0270919E0280919F029091A002FD
:100D50002FBF089508954091BF015091C001209187
:100D6000BD013091BE0142175307B4F49091E800E1
:100D70009570E1F39091E80092FD19C08093F10025
:100D80008091BF019091C00101968F739927892BA3
:100D900019F48EEF8093E8008091BF019091C0011B
:100DA00001969093C0018093BF0181E0089580E097
:100DB0000895EF92FF920F931F93CF93DF93F82E36
:100DC000192FE62E042F81E0860F880F0E94AB06B4
:100DD00083E00E94AB06CF2DD12FEC0EFD2EF11C2F
:100DE000CE15DF05B9F007FF13C0FE0184910E9404
:100DF000AB06182F80E00E94AB068123219681115B
:100E0000EFCFDF91CF911F910F91FF90EF90089559
:100E10008881EDCF81E0F5CFDF92EF92FF920F93C3
:100E20001F93CF93DF93D82E8A01EB017B01E40E51
:100E3000F51ECE15DF0559F0D7FE12C0FE018491D4
:100E40000E94AB0621968111F4CF0FEF1FEFC8016E
:100E5000DF91CF911F910F91FF90EF90DF90089558
:100E60008881EECF0F931F93CF93DF931F92CDB75F
:100E7000DEB782E0898342E450E064EB70E080E812
:100E80000E940C070E94AA04DC0112960D911C918D
:100E90000115110589F0D801ED91FC910280F381D3
:100EA000E02DBE016F5F7F4FC801099597FD04C01B
:100EB000F80100851185ECCF89810F90DF91CF91EA
:100EC0001F910F910895615030F02091F100FC01C5
:100ED00020830196F8CF289884E68093B102089584
:100EE0008F929F92AF92BF92CF92DF92EF92FF923A
:100EF0000F931F93CF93DF936C017B018A01809145
:100F00000D01882309F458C08091B202882309F4A6
:100F100053C08091C30180FF05C08091E0008260D2
:100F20008093E000E801B12C8AEFA82E93E0892E8F
:100F30002AE3922E209711F4BB20B9F10E94990464
:100F4000811106C0AA94AA20B9F10E948606F2CFA8
:100F50008C171D0611F00CF08C2F9FB7F89480921F
:100F6000E9002091E80025FD02C09FBFE3CF282FB4
:100F700030E0C21BD30BF701815020F04191409328
:100F8000F100FACFE20EF31EBB2021F09092E800B0
:100F9000B12CEBCF8091E80085FDE7CF9092E8007F
:100FA000BB24B394209709F3F3CF5D9884E6809334
:100FB000C201101611063CF081E090E0F601938327
:100FC000828310E000E0C801DF91CF911F910F9163
:100FD000FF90EF90DF90CF90BF90AF909F908F9059
:100FE0000895CF93DF931F92CDB7DEB76983DC01FD
:100FF000ED91FC910280F381E02D41E050E0BE01D3
:101000006F5F7F4F09950F90DF91CF9108950F93F8
:101010001F93CF93DF938C01D0E0C0E0F801EC0F79
:10102000FD1F6491662341F083EB92E00E94F1077B
:10103000892B11F02196F2CFCE01DF91CF911F9134
:101040000F91089583E08093E9008091F200882356
:1010500019F08AE38093E80008950E94990490E0D3
:101060000895CF93DF931F92CDB7DEB7FC0184853F
:10107000958597FD08C02FEF3FEF358724870F90A8
:10108000DF91CF910895CE0101960E946F040197E0
:1010900019F4898190E0F3CF8FEF9FEFF0CF0F939A
:1010A0001F93CF93DF931F92CDB7DEB78C01FC0166
:1010B0008485958597FF0BC0CE0101960E946F0431
:1010C000019771F4898190E0F80195878487F80190
:1010D000848595850F90DF91CF911F910F91089591
:1010E0008FEF9FEFF1CFFC018485958597FD0BC0B5
:1010F0009FB7F89482E08093E9008091F2009FBF4F
:1011000090E0019608959FB7F89482E08093E900FB
:101110008091F2009FBF90E00895DC01EC91EC30EB
:1011200090F511968C91119728E830E0281B310931
:1011300087FD3395220F331F220F331F621773076A
:1011400084F012968C9128E532E0281B310987FD46
:101150003395220F331F220F331F621773070CF4CE
:101160009B0122503109220F331F4FB7F8948E2F65
:1011700090E0FC01EE0FFF1FE80FF91FED5FFC4F41
:10118000328321834FBF089561322FEB720722E033
:101190008207910524F060E27FEB82E090E09B0102
:1011A000AC0157FF03C020E030E0A901A0EDB7E09B
:1011B0000E94A91720E23FEB42E050E00E9468172E
:1011C000DA01C9018C509E4FAF4FBF4F0895AC015B
:1011D000092E000C660B770B4E3151056105710528
:1011E00044F047395105610571052CF086E990E01E
:1011F00002C08EE190E028EE33E0DC010E9414187A
:1012000060938C0270938D0280938E0290938F0274
:1012100010929502109294020E94C408BC0188E2C8
:1012200093E00C948D08AC01092E000C660B770B33
:1012300077FD08C0453B5105610571052CF084EB35
:1012400090E002C090E080E028EE33E0DC010E94F4
:10125000141860939002709391028093920290937D
:10126000930210929702109296020E94C408BC0149
:101270008BE293E00C948D081F93CF93DF939C0136
:10128000862FD42F21309FEF3907DCF070E060E02B
:101290002115310581F0C22F132F2F3F310519F091
:1012A00014F0CFEF10E01216130664F461E00E9410
:1012B000BE046C2F712F8D2FDF91CF911F910C9455
:1012C000BE05C1E060E00E94BE04C1956C2F70E0D5
:1012D000F2CF46E067E00C943C0945E064E00C94F2
:1012E0003C09CF92DF92EF92FF920F931F93CF931F
:1012F000DF930E9461060091C5011091C601209103
:10130000C7013091C8016B017C01C01AD10AE20A01
:10131000F30A97018601003A164821403105C0F1D1
:101320006093C5017093C6018093C7019093C80173
:10133000C0910001D0910101CE010196909301016D
:10134000809300010E949E062091290230E02F5FC9
:101350003F4FA9014F70552720912A022417C1F051
:10136000A0912902E6E0EA9FD0011124A753BE4FC5
:101370006D937D938D939C93139790912902E99F90
:10138000F0011124E753FE4FD583C4834093290213
:10139000DF91CF911F910F91FF90EF90DF90CF9051
:1013A00008958F929F92AF92BF920F931F93CF9306
:1013B000DF93CDB7DEB7A1970FB6F894DEBF0FBEAF
:1013C000CDBF19A2423008F44AE08E010F5D1F4FD5
:1013D000842E912CB12CA12CA50194010E94681798
:1013E000E62FB901CA01EA3044F5E05DD801EE9379
:1013F0008D01232B242B252B79F790E080E010978B
:1014000069F0FD0101900020E9F73197AF014A1B17
:101410005B0BBD0183EB92E00E947007A1960FB6B3
:10142000F894DEBF0FBECDBFDF91CF911F910F911A
:10143000BF90AF909F908F900895E95CD7CF42E026
:1014400050E061E371E083EB92E00C947007CF937E
:10145000DF930E940708EC010E941F0A8C0F9D1F5A
:10146000DF91CF910895CF93DF93EC018FEA90E065
:101470000E940708CE01DF91CF910C94270A8CEAD5
:1014800090E00C94270ACF92DF92EF92FF921F9385
:10149000CF93DF937C01EB01F70191917F011991CB
:1014A000992381F0112371F0892F90E00E941B187D
:1014B0006C01812F90E00E941B18C816D90661F3B9
:1014C00080E003C081E09113FBCFDF91CF911F91AA
:1014D000FF90EF90DF90CF9008951F920F920FB67C
:1014E0000F9211242F933F938F939F93AF93BF93AA
:1014F00080919D0290919E02A0919F02B091A002C6
:1015000030919C0223E0230F2D3758F50196A11D41
:10151000B11D20939C0280939D0290939E02A09304
:101520009F02B093A0028091A1029091A202A0918B
:10153000A302B091A4020196A11DB11D8093A10246
:101540009093A202A093A302B093A402BF91AF9183
:101550009F918F913F912F910F900FBE0F901F90F1
:10156000189526E8230F0296A11DB11DD2CF1F9218
:101570000F920FB60F9211242F933F934F935F93C7
:101580006F937F938F939F93AF93BF93EF93FF934B
:10159000E0911601F09117010995FF91EF91BF912C
:1015A000AF919F918F917F916F915F914F913F91FB
:1015B0002F910F900FBE0F901F9018951F920F92B2
:1015C0000FB60F9211242F933F934F935F936F9316
:1015D0007F938F939F93AF93BF93EF93FF93E0918C
:1015E0001401F09115010995FF91EF91BF91AF9111
:1015F0009F918F917F916F915F914F913F912F912B
:101600000F900FBE0F901F9018951F920F920FB65C
:101610000F9211242F933F934F935F936F937F9378
:101620008F939F93AF93BF93EF93FF93E09112013A
:10163000F09113010995FF91EF91BF91AF919F91A7
:101640008F917F916F915F914F913F912F910F906B
:101650000FBE0F901F9018951F920F920FB60F920A
:1016600011242F933F934F935F936F937F938F93A7
:101670009F93AF93BF93EF93FF93E0911001F0918D
:1016800011010995FF91EF91BF91AF919F918F91BA
:101690007F916F915F914F913F912F910F900FBE6E
:1016A0000F901F9018951F920F920FB60F92112452
:1016B0002F933F934F935F936F937F938F939F935A
:1016C000AF93BF93EF93FF93E0910E01F0910F0161
:1016D0000995FF91EF91BF91AF919F918F917F916C
:1016E0006F915F914F913F912F910F900FBE0F908F
:1016F0001F9018951F920F920FB60F9211248F937F
:101700009F938091E1009091E100937F9093E1009D
:1017100083FF0FC01092E90091E09093EB001092CC
:10172000EC0092E39093ED001092B20298E0909357
:10173000F00082FF22C093E09093E9009091F200C4
:10174000992319F09AE39093E8009091C2019923AC
:1017500041F09091C20191509093C201911101C04A
:101760005D9A9091B102992341F09091B10291500C
:101770009093B102911101C0289A84FF18C0809102
:10178000E2008E7E81608093E2008091E1008F7E96
:101790008093E1008091C3018E7E80618093C301BC
:1017A0009F918F910F900FBE0F901F90189580FF03
:1017B000F7CF8091E2008E7E80618093E20080917D
:1017C000E1008E7E8093E1008091C3018E7E816076
:1017D000E5CF1F920F920FB60F921124CF92DF9296
:1017E000EF92FF920F931F932F933F934F935F932B
:1017F0006F937F938F939F93AF93BF93EF93FF93D9
:10180000CF93DF93CDB7DEB76C97DEBFCDBF10921D
:10181000E9008091E80083FF25C068E0CE0145968D
:101820000E94630782EF8093E8008D8987FF39C0AB
:101830009091E80090FFFCCF982F907609F034C18A
:101840009E894F89588D2F89F88C911131C080382D
:1018500061F58091C4018093F1001092F1008EEF48
:101860008093E8006C960FB6F894DEBF0FBECDBF34
:10187000DF91CF91FF91EF91BF91AF919F918F91A8
:101880007F916F915F914F913F912F911F910F9198
:10189000FF90EF90DF90CF900F900FBE0F901F90B2
:1018A00018959EEF9093E800C7CF1092F100D5CF26
:1018B000913059F48111D3CF4130510581F6809197
:1018C000C4018D7F8093C401CACF933049F4811144
:1018D000C6CF4130510519F68091C4018260F2CF24
:1018E000953041F48091E80080FFFCCF2068209380
:1018F000E300B5CF963009F0A9C00B8D1C8D22E016
:101900001092E9001092C0011092BF01F2122EC095
:101910001092BE011092BD010E9432071F8299E011
:101920009983FA8291E09E8390EA98879AEF99874B
:101930002091BF013091C001275F3F4F3C832B8333
:101940008D831092E9001092C0011092BF01109394
:10195000BE010093BD0149E050E0BE016F5F7F4FC3
:1019600080E00E940C070E94320779CF1093BE01DD
:101970000093BD010E94AA04DC0112960D911C91F6
:101980000115110509F451C1D801ED91FC910480B4
:10199000F581E02DBE016B5E7F4FC8010995009770
:1019A00009F03EC1F80100851185EACFF3E0FF128E
:1019B0000EC08F89882309F440C0823061F440E86A
:1019C00060E188E191E00E94D906811148CF81E26F
:1019D0008093EB0047CF813029F440E86BE08CE046
:1019E00091E0F1CF833099F70E94AA04DC011296AE
:1019F000ED90FC908E010F5F1F4F6801E114F10420
:101A000079F0D701ED91FC910680F781E02DB801C6
:101A1000C7010995080F111DF701E084F184EECF8D
:101A2000D8011C92F60101900020E9F73197BF011F
:101A30006C197D0940E0C601C6CF66EF70E0FB017E
:101A4000449150E080E80E940C0709CF973009F4D8
:101A5000BECF983021F481E08093F10000CF99301F
:101A600009F0FDCE837009F0B2CFE9E1F1E081E049
:101A700031E096E32191222371F08093E9003093C5
:101A8000EB00DF0111972C912093EC009093ED0077
:101A90008F5F873079F78EE78093EA001092EA0033
:101AA0008F898093B202DBCE8B8D9C8D1092E900E2
:101AB0001092C0011092BF019093BE018093BD01AE
:101AC000898D811192C08E899D89913A49F4813224
:101AD00009F07DCF47E050E066E071E080E0B3CFF1
:101AE000913209F074CF833269F48F89988DB0E018
:101AF000A0E08093020190930301A0930401B093AE
:101B00000501ADCE803269F48091E80082FFFCCF00
:101B100067E086E091E00E9463078BEF8093E80026
:101B20009ECE823209F09BCE8F8980930D01EEEF1D
:101B3000FFE7859194918B3F9C4D51F1E0E0F8E0F7
:101B40008091060190910701A0910801B0910901CF
:101B5000803B9440A105B105F1F480910D0180FD19
:101B60001AC0EE3F8AE0F80789F587E797E7918387
:101B70008083809160008093C10188E19BE00FB673
:101B8000F894A895809360000FBE9093600067CE94
:101B9000EEEFFAE0D5CF808191818737974709F042
:101BA0005ECEA895809160008861809360008091EE
:101BB000C10180936000EE3F2AE0F20789F0809136
:101BC000FE0A9091FF0A9183808349CE80819181A2
:101BD0008737980751F29093FF0A8093FE0AC5CF8A
:101BE0001092FF0A1092FE0A3ACE0E94AA04DC016B
:101BF00012960D911C910115110509F4E8CED8013A
:101C0000ED91FC910190F081E02DBE016B5E7F4F64
:101C1000C8010995811123CEF80100851185EBCF0C
:101C2000181619060CF41BCED2CEF1E0FF12BECE70
:101C30006AEF70E004CF1F920F920FB60F9211243B
:101C40002F933F934F935F936F937F938F939F93C4
:101C5000AF93BF93CF93DF93EF93FF938091BC013A
:101C6000C0912703D0E087FF24C010928500109216
:101C700084008091BC018F5F8093BC018091BC0186
:101C8000082E000C990B8C179D0724F48091BC0141
:101C90008C30C4F18091840090918500049680344A
:101CA0009C4908F47AC08091840090918500049644
:101CB00076C08091BC01082E000C990B8C179D07F3
:101CC000C4F6E091BC018E2FEE0F990BFC01EE0FD4
:101CD000FF1FE80FF91FED5FFC4F808186FFC9CF22
:101CE000E091BC018E2FEE0F990BFC01EE0FFF1F50
:101CF000E80FF91FED5FFC4F808160E08F730E9459
:101D0000BE04B7CF2091840030918500E091BC01E2
:101D10008E2FEE0F990BFC01EE0FFF1FE80FF91F3E
:101D2000ED5FFC4F81819281820F931F9093890018
:101D300080938800E091BC018E2FEE0F990BFC017F
:101D4000EE0FFF1FE80FF91FED5FFC4F808186FF4C
:101D500011C0E091BC018E2FEE0F990BFC01EE0F2C
:101D6000FF1FE80FF91FED5FFC4F808161E08F736B
:101D70000E94BE04FF91EF91DF91CF91BF91AF918F
:101D80009F918F917F916F915F914F913F912F9193
:101D90000F900FBE0F901F90189580E49CE99093D0
:101DA0008900809388008FEF8093BC01E3CFAC0162
:101DB000092E000C660B770B40312FEF520762079C
:101DC000720744F0413F5105610571052CF080EF29
:101DD00090E002C080E19FEF90939702809396027B
:101DE0000895AC01092E000C660B770B40312FEFE4
:101DF00052076207720744F0413F510561057105C2
:101E00002CF080EF90E002C080E19FEF909395026C
:101E1000809394020895EF92FF920F931F93CF93B4
:101E2000DF9300D0CDB7DEB77C018B011A82198217
:101E30004AE050E0BE016F5F7F4F0E943516298156
:101E40003A812E153F0569F4F801108290E080E098
:101E50000F900F90DF91CF911F910F91FF90EF9016
:101E6000089521E0F80120836115F0E87F07FFEF76
:101E70008F079F076CF0DC01CB01811520E89207EA
:101E8000A105B1052CF38FEF9FE7A0E0B0E0E0CF14
:101E900080E090E8DDCF1092B6021092B50288EE95
:101EA00093E0A0E0B0E08093B7029093B802A093D3
:101EB000B902B093BA0283E291E09093B4028093A6
:101EC000B3028FEF9FEF9093C0028093BF02809187
:101ED00027038C3048F591E0980F90932703809367
:101EE0002B0390E0FC01EE0FFF1FE80FF91FED5FE1
:101EF000FC4F88EB9BE092838183809127038C3099
:101F0000B8F491E0980F909327038093280390E012
:101F1000FC01EE0FFF1FE80FF91FED5FFC4F88EB90
:101F20009BE09283818308958FEF80932B03E5CF0D
:101F30008FEF809328030895CF93DF9300D0CDB720
:101F4000DEB7789484B5826084BD84B5816084BD39
:101F500085B5826085BD85B5816085BD80916E0047
:101F6000816080936E001092810080918100826078
:101F700080938100809181008160809381008091B5
:101F800080008160809380008091910082608093C6
:101F900091008091910081608093910080919000E8
:101FA0008160809390008091C10084608093C10023
:101FB0008091C10082608093C1008091C1008160E6
:101FC0008093C1008091C30081608093C3008091A1
:101FD000C00082608093C0008091C20081608093C5
:101FE000C20080917A00846080937A0080917A00A8
:101FF000826080937A0080917A00816080937A0079
:1020000080917A00806880937A001092B2021092D8
:10201000C4011092C3018091D70081608093D700E2
:1020200080EA8093D80089B5806189BD89B58260D6
:1020300089BD09B400FEFDCF0E9486068091D800BC
:102040008F7C80618093D8008091E000807F8093B6
:10205000E0008091E1008E7E8093E1008DE080932E
:10206000E200559A209A61E084E00E942F0561E029
:1020700087E00E942F0561E085E00E942F0561E066
:1020800086E00E942F0590E080E00E946D0990E0BC
:1020900080E00E94690969E070E08BE293E00E94B1
:1020A00060056AE070E088E293E00E9460051092AB
:1020B00097021092960210929502109294020E943A
:1020C0009E06609398027093990280939A0290936F
:1020D0009B028AE590E00E9413098AE590E00E9445
:1020E000E7081092290210922A021092C50110925C
:1020F000C6011092C7011092C80161E08BE00E94F6
:102100002F0560E08BE00E94BE0462E083E00E9445
:102110002F0581E799E090930F0180930E01809144
:1021200069008C7F826080936900E89A10928B022C
:102130008FEF9FEF9093C0028093BF028AE090E000
:10214000A0E0B0E08093B7029093B802A093B902E8
:10215000B093BA0289E291E00E94270A58EE852ED8
:1021600053E0952EA12CB12C6FE2C62ED12C83EB1F
:1021700092E00E94730846E0F42E181619060CF03F
:1021800081C483EB92E00E9431088D3081F3E091AD
:102190008B028A3009F038C4E03658F5F0E0E55D8E
:1021A000FD4F10822BE232E08901F90180812F5F1F
:1021B0003F4F8032C9F38930B9F38823B9F060E228
:1021C00070E0C8010E9423187C01009721F0FC01F7
:1021D000108201967C0164E371E0C8010E94430A09
:1021E000882351F086EF97E00E94270A10928B0215
:1021F000BECF10928A02D6CF69E371E0C8010E9477
:102200002E18892B79F06BE371E0C8010E94430A14
:10221000811108C060E471E0C8010E94430A88236C
:1022200009F477C08FE097E00E94270A85EE96E0D8
:102230000E94270A8DEB96E00E94270A81E996E02A
:102240000E94270A8CE596E00E94270A85E296E024
:102250000E94270A88ED95E00E94270A86EA95E009
:102260000E94270A84E795E00E94270A82E395E00E
:102270000E94270A82EF94E00E94270A8BEC94E0E8
:102280000E94270A86E894E00E94270A89E694E0E3
:102290000E94270A8DE494E00E94270A83E394E0D9
:1022A0000E94270A85ED93E00E94270A86E893E0C2
:1022B0000E94270A8CE393E00E94270A84EF92E0B1
:1022C0000E94270A83EC92E00E94270A84E892E0A9
:1022D0000E94270A84E492E00E94270A86E192E0A5
:1022E0000E94270A8CED91E00E94270A81EA91E082
:1022F0000E94270A84E891E00E94270A8FE591E076
:102300000E94270A80E491E00E94270A0E943F0A67
:102310006DCF62E471E0C8010E94430A882349F04E
:102320008CED90E00E946D098CED90E00E946909AF
:10233000EDCF65E471E0C8010E94430A882339F0BB
:1023400084E29FEF0E946D0984E29FEFEFCF68E483
:1023500071E0C8010E94430A882339F090E080E0D0
:102360000E946D0990E080E0E1CF6BE471E0C8016C
:102370000E94430A811128C06EE471E0C8010E94E6
:10238000430A811121C061E571E0C8010E94430A3E
:1023900081112EC066E571E0C8010E94430A8823BE
:1023A00009F458C081EE97E0E114F10479F1198243
:1023B000BE016F5F7F4FC7010E940B0F2981211162
:1023C00046C08AED97E022C06EE471E0C8010E9429
:1023D000430A882341F088EC90E008E31FEF0E9455
:1023E0006D09C801A3CF88E39FEF08EC10E0F7CF99
:1023F00082EF97E0E114F10449F060E270E0C70178
:102400000E942318009729F48EEE97E00E94330A69
:10241000EDCEFC0111928F011A821982BE016E5F0E
:102420007F4FC7010E940B0F7C01BE016F5F7F4F82
:10243000C8010E940B0F8C018A81882319F08981C1
:10244000811103C085EE97E0E1CFC701C8CF0E949C
:102450006D095CCF69E571E0C8010E94430A8823D9
:1024600091F086ED97E0E114F10481F21982BE014A
:102470006F5F7F4FC7010E940B0F2981211156CF3B
:102480008FEC97E0C3CF6CE571E0C8010E94430A6E
:10249000882381F18BEC97E0E114F10409F4B6CFC5
:1024A0001982BE016F5F7F4FC7010E940B0F998198
:1024B000911103C084EC97E0A9CF853B08F084EB31
:1024C000282F30E0A8EEB3E00E94F317609390024B
:1024D00070939102809392029093930210929702CC
:1024E000109296020E94C408BC018BE293E00E9405
:1024F0008D080CCF6FE571E0C8010E94430A882364
:1025000071F180EC97E0E114F10409F47FCF1982B6
:10251000BE016F5F7F4FC7010E940B0F9981911120
:1025200003C089EB97E072CF853B08F084EB282F3E
:1025300030E0A8EEB3E00E94F31760938C02709332
:102540008D0280938E0290938F02109295021092CA
:1025500094020E94C408BC0188E293E0C8CF62E6FE
:1025600071E0C8010E94430A882349F08AE590E09F
:102570000E9413098AE590E00E94E708C7CE67E64B
:1025800071E0C8010E94430A882399F180EB97E02B
:102590000E940708609190027091910280919202CE
:1025A00090919302A50194010E948A17CA01B90172
:1025B0007727882799274AE00E94D10989EA97E07E
:1025C0000E94070860918C0270918D0280918E02AA
:1025D00090918F02A50194010E948A17CA01B90146
:1025E0007727882799274AE00E94D1090E941F0A6D
:1025F000FDCD6BE671E0C8010E94430A882399F083
:1026000085EA97E0E114F10409F400CF1982BE01D4
:102610006F5F7F4FC7010E940B0F298121119DC160
:102620008DE997E0F3CE6FE671E0C8010E94430A9E
:10263000882399F089E997E0E114F10409F4E6CEE2
:102640001982BE016F5F7F4FC7010E940B0F298166
:10265000211192CF80E997E0D9CE64E771E0C801FB
:102660000E94430A882389F18CE897E0E114F10481
:1026700009F4CCCE60E270E0C7010E9423180097F5
:1026800019F488E897E0C2CEFC0111928F011A82FA
:102690001982BE016E5F7F4FC7010E940B0F7C0144
:1026A000BE016F5F7F4FC8010E940B0F8C018A81B2
:1026B000882319F08981811103C08DE797E0A6CEA8
:1026C000C7010E941309C80157CF6BE771E0C80129
:1026D0000E94430A882399F089E797E0E114F10406
:1026E00009F494CE1982BE016F5F7F4FC7010E942B
:1026F0000B0F29812111EAC080E797E087CE60E8BF
:1027000071E0C8010E94430A882399F08CE697E0A3
:10271000E114F10409F47ACE1982BE016F5F7F4F94
:10272000C7010E940B0F298121113AC082E697E070
:102730006DCE66E871E0C8010E94430A882399F1D2
:102740008EE597E0E114F10409F460CE60E270E0F8
:10275000C7010E942318009719F48AE597E056CE26
:10276000FC0111928F011A821982BE016E5F7F4FA8
:10277000C7010E940B0F7C01BE016F5F7F4FC80134
:102780000E940B0F8C018A81882319F089818111A5
:1027900003C08EE497E03ACEC7010E94D70EC8016D
:1027A0000E94F10EB3CD6EE871E0C8010E94430AA9
:1027B00081111EC164E971E0C8010E94430A8111C0
:1027C00017C167E971E0C8010E94430A81115CC02A
:1027D0006AE971E0C8010E94430A811155C06AEAA2
:1027E00071E0C8010E94430A81114EC060EB71E0A4
:1027F000C8010E94430A811147C06DE971E0C80118
:102800000E94430A81117CC062EA71E0C8010E9403
:10281000430A811175C067EA71E0C8010E94430A4A
:1028200081116EC06DEA71E0C8010E94430A8111F6
:1028300067C063EB71E0C8010E94430A882309F472
:10284000C1C00E949E062B013C01F2E14F0E511CBB
:10285000611C711C0E949E066419750986099709FE
:1028600097FF54CD16E061E08BE00E94BE04C601E4
:102870000197F1F760E08BE00E94BE04C60101976A
:10288000F1F7115081F7E6CFE114F10489F01982D4
:10289000BE016F5F7F4FC7010E940B0F7C018981D2
:1028A000882319F01E141F0434F085E497E0AECDA0
:1028B0003AE5E32EF12C67E971E0C8010E94430A72
:1028C000882339F0882799278E199F090E94D70EEF
:1028D0001DCD6AE971E0C8010E94430A882311F006
:1028E000C701F4CF6AEA71E0C8010E94430A882355
:1028F00011F0C70155CF882799278E199F0950CF0E
:10290000E114F10489F01982BE016F5F7F4FC701A6
:102910000E940B0F7C018981882319F01E141F046B
:1029200034F08CE397E072CD25E0E22EF12C6DE9D6
:1029300071E0C8010E94430A882391F060919002DF
:10294000709191028091920290919302A50194015D
:102950000E948A17C9018E199F090E941309D6CCBB
:1029600062EA71E0C8010E94430A882381F0609105
:102970009002709191028091920290919302A50130
:1029800094010E948A17C701820F931FE6CF67EA5E
:1029900071E0C8010E94430A182F60918C02709167
:1029A0008D0280918E0290918F02A50194010E9468
:1029B0008A17C901112319F08E0D9F1DDDCD8E19C7
:1029C0009F09DACD68EB71E0C8010E94430A8111CA
:1029D00038CF6FE871E0C8010E94430A882389F06C
:1029E00090E080E00E946D0990E080E00E9469091B
:1029F00010929702109296021092950210929402F1
:102A000085CC84E397E002CDEF3548F491E09E0F4A
:102A100090938B02F0E0E55DFD4F8083A8CB109290
:102A20008B0286E098E00E94330AA1CBE0912A0253
:102A3000EF9DF0011124E753FE4F408051806280EA
:102A400073800481158180912A0290E001968F7035
:102A5000992780932A0278948DEF97E00E940708C7
:102A6000B80190E080E04AE00E94D10960E283EB87
:102A700092E00E94F1074AE0C301B2010E94D1092D
:102A80000E941F0AF89490912A02809129029813BB
:102A9000CDCF78940E949E060091980210919902E1
:102AA00020919A0230919B022B013C01401A510A5D
:102AB000620A730A609398027093990280939A0253
:102AC00090939B02A0919602B0919702109779F192
:102AD000411451046104710489F1F5E64F16510463
:102AE0006104710428F094E6492E512C612C712C5C
:102AF000A30192010E94B4170091900210919102DB
:102B00002091920230919302060F171F281F391F40
:102B100037FF1CC010929002109291021092920204
:102B20001092930210929702109296021FC0809109
:102B3000940290919502892B09F084C080E090E086
:102B4000892B09F414CB0E94000011CB01328FEBCA
:102B5000180782E0280731050CF044C0009390026A
:102B6000109391022093920230939302609190020D
:102B70007091910280919202909193020E94C408F8
:102B8000BC018BE293E00E948D08A0919402B09169
:102B90009502109799F2A30192010E94B417009137
:102BA0008C0210918D0220918E0230918F02060FBF
:102BB000171F281F391F003395E719072105310515
:102BC000F4F480E395E7A0E0B0E080938C0290936A
:102BD0008D02A0938E02B0938F02109295021092F4
:102BE000940220C080E29FEBA2E0B0E080939002CC
:102BF00090939102A0939202B093930293CF80EFAF
:102C000099E4A2E0B0E0013FE9E41E07E2E02E070C
:102C10003105DCF600938C0210938D0220938E0216
:102C200030938F0260918C0270918D0280918E02A0
:102C300090918F020E94C408BC0188E293E00E9438
:102C40008D087CCF411451046104710409F476CFDE
:102C500025E6421651046104710408F496CF84E617
:102C6000482E512C612C712C90CFB0E0A0E0EBE30A
:102C7000F6E10C94BD175C016B017A0161157105D9
:102C800019F0FB0191838083E114F10451F0C70135
:102C90000297839730F040E030E020E090E072C08F
:102CA0005E01E5012196F5011081812F90E00E94DF
:102CB0004C17892BA9F71D3201F52196F5011181D9
:102CC00001E0E114F10409F4DAC0F0E1EF16F104D7
:102CD00009F082C0103359F488818F7D883509F05E
:102CE00076C0198122960260F0E1EF2EF12C812C42
:102CF000912CA12C88E0B82E8CC01B3221F4E50168
:102D00002296F501118100E0DCCFEAE0EE16F10435
:102D100009F4BBC0F0E1EF16F10409F06DC0E7CF94
:102D200078E0E72EF12C812C912CA12C60E1B62EBD
:102D300070C03FE9310F3A3128F439EA332E80C0B0
:102D400021E09AC0302F3170C114D10431F0222318
:102D500009F12197F601D183C08327FF21C060E0EC
:102D600070E080E090E8311104C06FEF7FEF8FEFEB
:102D70009FE722E230E030932F0320932E03462F6B
:102D8000372F282F642F732F822FCDB7DEB7E1E1C5
:102D90000C94D91701FF04C02297F601D183C08398
:102DA000332341F090958095709561957F4F8F4FBB
:102DB0009F4FE5CF97FFE3CF82E290E090932F0300
:102DC00080932E036FEF7FEF8FEF9FE7D8CF10E355
:102DD000E114F10409F4A4CF28E0E216F10409F4A7
:102DE000A2CF0CF092CF812C912CA12CE0E4BE2E2E
:102DF00082E0E816F10469F060E070E080E090E8BD
:102E000097010F2C000C440B550B0E9468174901C9
:102E10005A0120E060E070E0CB0127010F2C000C8C
:102E200066087708FE0150ED352E310E39E0331576
:102E300040F43FEB310F3A3108F07BCF49EC342EB0
:102E4000310E3E141F040CF07DCF27FD15C08616F1
:102E50009706A806B90678F0A30192010E945817B8
:102E6000630D711D811D911D61307105810520E883
:102E7000920708F465CF2FEF21961081D3CF10333E
:102E800009F42ACF2AE0E22EF12C9CEC892E982C12
:102E9000A82C9CE0B92EBDCF91110C94551780320F
:102EA00019F089508550C8F7089599278827089503
:102EB000DB018F939F930E94A917BF91AF91A29FAF
:102EC000800D911DA39F900DB29F900D1124089528
:102ED000A1E21A2EAA1BBB1BFD010DC0AA1FBB1F1E
:102EE000EE1FFF1FA217B307E407F50720F0A21B90
:102EF000B30BE40BF50B661F771F881F991F1A94FD
:102F000069F760957095809590959B01AC01BD0126
:102F1000CF010895052E97FB1EF400940E94A1177F
:102F200057FD07D00E94681707FC03D04EF40C949D
:102F3000A11750954095309521953F4F4F4F5F4FCA
:102F4000089590958095709561957F4F8F4F9F4F15
:102F500008950E94F317A59F900DB49F900DA49F14
:102F6000800D911D11240895B7FF0C94A9170E949C
:102F7000A917821B930B08952F923F924F925F9255
:102F80006F927F928F929F92AF92BF92CF92DF9279
:102F9000EF92FF920F931F93CF93DF93CDB7DEB7DE
:102FA000CA1BDB0B0FB6F894DEBF0FBECDBF099472
:102FB0002A88398848885F846E847D848C849B84C9
:102FC000AA84B984C884DF80EE80FD800C811B81D7
:102FD000AA81B981CE0FD11D0FB6F894DEBF0FBE06
:102FE000CDBFED010895A29FB001B39FC001A39F83
:102FF000700D811D1124911DB29F700D811D112432
:10300000911D0895991B79E004C0991F961708F047
:10301000961B881F7A95C9F780950895EE0FFF1FBC
:103020000590F491E02D09940E94F317B7FF0895DD
:10303000821B930B08959111089581548A5108F4CD
:10304000805E855A0895FC018191861721F08823BE
:10305000D9F7992708953197CF010895FB01DC0135
:103060008D91019080190110D9F3990B0895F8946E
:02307000FFCF90
:103072000100FFFFFFFF00E1000000000000AA06C0
:10308200AA06AA06AA06AA0600C1808100000000BC
:10309200000000F10770072D082208730831084F5D
:1030A200080D0A0050494E47003F0048454C500069
:1030B20048004D46004D42004D5300544C005452BE
:1030C2000054414E4B004D31004D320053310053FC
:1030D2003200484F4D4500504F530050414E00546E
:1030E200494C54005455525245540050414E5600DA
:1030F20054494C5456005455525245545600545358
:10310200544F5000545300504C0050520050414E06
:103112004C0050414E520054494C54550054494CB5
:0C31220054440046495245004952000048
:00000001FF
